S0120000656D333535352D726762772E7333375F
S315080040008826002049E8020869E60208DDE6020873
S31508004010A70A0A0100410008041F03AC1068100132
S315080040200000000000000000000000000000000082
S315080040300000000000000000000000000000000072
S315080040400000000000000000FFFFFFFFFFFFFFFF6A
S31508004050FFFFFFFF007007080000000000000000D7
S31508004060FFFFFFFFFFFFFFFFFF000000000000004B
S315080040700000000000000000000000000000000032
S315080040800000000000000000EC7F0020EC7F00200C
S3150800409088260020F32B030854EA0208281D00206E
S311080040A0A810002000000808000000001E
S315080041008826002049E80208F1E60208FDE60208CA
S3150800411009E7020815E7020821E70208000000007F
S315080041209E4E002000000000000000002DE7020857
S3150800413039E702080000000045E70208DF4C0008DE
S3150800414051E702085DE7020869E7020875E7020811
S3150800415081E702088DE7020899E70208A5E7020841
S31508004160B1E70208BDE70208C9E70208D5E7020871
S31508004170E1E70208EDE70208F9E7020805E80208A0
S3150800418011E802081DE8020829E8020835E80208CD
S31508004190010008D4012200F01F018A40DFF8D4107C
S315080041A0400941F82020704770B5344C2078344DCA
S315080041B02968490724D5032822D232490988324A70
S315080041C022F810100121314A137801FA00F0184339
S315080041D010702F4A1078002818D0002301E05B1CC5
S315080041E0DBB2032B0CD20646DE40F607F7D5237062
S315080041F0994041401170274830F813002649086055
S315080042004FF6FF702860BFF35F8F70BD002022490C
S31508004210086000F0BDF803202070F1E780B50020A3
S315080042201B49087003201549087000201B490870AF
S3150800423005201149088000201449087016480021F5
S31508004240016041604FF4004181601021C1600D4951
S315080042504161012181610321C1600948042101648A
S315080042604FF6FF7101600B20FFF792FFBDE8014092
S3150800427000F0CEB800E100E0167B00205B7F00204E
S3150800428010A80040027B0020702A00205C7F0020D6
S315080042905A7F0020782A002004E000405D7F002035
S315080042A0010007D4012200F01F018A403049400965
S315080042B041F82020704701000BD4012200F01F01AD
S315080042C08A402C49400941F82020BFF34F8FBFF39D
S315080042D06F8F704700F009BC00F0CABB2648012161
S315080042E081604EF6BE2141600121016070470120C0
S315080042F0224908607047A52805D11F484DF6AD61CB
S3150800430041600221016070471B48006800F0010007
S31508004310401E8041C043C00F704780B50420FFF798
S31508004320CAFF17480078174900280ED0032802D17B
S315080043300020086001E00120086040F6510012499B
S315080043400860002000F0CAFD07E0022008604FF46C
S3150800435000600D490860FFF7BFFF0C4807210160A0
S31508004360012101640420FFF79BFF002002BD000025
S3150800437000E100E080E100E00060004008600040E5
S31508004380867F0020080000400C60004014A0004012
S3150800439070477047DFF8003533F81000024022FAFC
S315080043A001F07047F0B50FF2B054DFF8F03434F886
S315080043B01050DFF8E4449D60114034F810509543DE
S315080043C02943D96002261E6000271F6024F81010B2
S315080043D058680028FCD1F0BDDFF8C434DFF8C414EF
S315080043E01878DFF8C42408B150780FE0125612F195
S315080043F0090F02DA30230B607047C86D38B1C86DF3
S3150800440040F24A32B2FBF0F080B2C01E0860704734
S31508004410E0B5DFF8980401880A2300F068F8BDF8CB
S3150800442006104FF6FF720D20FFF7BCFF07BDF8B563
S31508004430B0F5004F0546DFF870641AD1DFF870440E
S315080044402188022300F053F8BDF80000000AFF286F
S3150800445001D0010000D118207070BDF800000006D8
S31508004460C00E10281CBF001D00F0A4F9BDF80050AE
S31508004470ED43DFF82C44607810B10021617006E046
S31508004480B189A8B24140CA0744BF01206070A8B2EA
S31508004490C0F34007DFF81C04B58105F00106016882
S315080044A041F40041016031460FF2D14010F8111075
S315080044B009074FF44052090C0220FFF773FF3046F4
S315080044C000F076FD2D064022B9010B20AD0EFFF750
S315080044D069FF05F001053D432570FFF77DFF60780C
S315080044E018B1FFF795FF002060700020F2BD7F220B
S315080044F0684600F0DEBD01F0D3B92DE9F84FDFF8C4
S31508004500BC53287886B0A0F10B0104900391CAB277
S3150800451004230E21684601F09DFA9DF90000DFF894
S31508004520A0130A788DF80800012A9DF801008DF875
S3150800453007009DF902008DF806009DF803008DF826
S31508004540050004D16878441EA441E40F00E0012464
S3150800455001F0AAF980469DF90200039EDFF85893F8
S3150800456008F10A07A8F10A0BB842B6BF83454FF00F
S31508004570010A4FF0000A012000FA06F69DF801002C
S31508004580010603D4B9F80220324201D04FF0010ADD
S3150800459001F0D4FA9DF80300010609D4B9F80420FD
S315080045A0324205D19DF90000B842B8BF834502DB07
S315080045B04FF0010B01E04FF0000B4AEA04005BEAFA
S315080045C0000000F09F80BF48BF4F0168BF484908F8
S315080045D001F001018DF80410016801F4E06105910C
S315080045E04FF4E060BA490860002001F0BFFE00F011
S315080045F07EFB9CB1687848B100F08FF849084900FD
S3150800460001600120107000F05AFC07E0386840F499
S3150800461000503860396821F480513960A84801781B
S3150800462001290FD1002C1ABF6878002802F007F874
S3150800463000F073F841F00101016000201070642059
S3150800464000F03DFC2CB1687818B9049880B202F0E5
S315080046508AF8687838B1396821F480513960386841
S3150800466040F400503860F643BAF1000F0AD002F061
S3150800467069F9B9F802108DF8010031408DF8028009
S31508004680A9F80210BBF1000F0AD002F008FAB9F82F
S3150800469004108DF803000E408DF80080A9F8046018
S315080046A09DF900009DF90810884202BF9DF8010097
S315080046B09DF8071088420BD19DF902009DF9061056
S315080046C0884202BF9DF803009DF80510884206D06F
S315080046D0039904236A46C9B20E2001F0EBF905983E
S315080046E07A49086000F00EFD9DF8040001F03EFED0
S315080046F002F0F9FA687828B148F2607139606420E6
S3150800470000F0DDFB9DF8010002F082F89DF8030039
S3150800471002F0C0F907B0BDE8F08F6A48684A016838
S31508004720704780B5FFF7E7FEBDE80140E5E6E2E63B
S31508004730A0F10B01102928BFFF20704770B5054668
S31508004740A0F10B0601F06CFD0446A5F10B0010283C
S3150800475001D38A2070BD5F4881680A0702D40068C1
S31508004760C10701D58C2070BD54485B4905700A689D
S315080047700C2A0ED05EA0594BB6B230F8262093F913
S3150800478000008218CA61FFF7B8FE012C08BF01F0C5
S31508004790E9FC002070BD10B50446FFF7ACFE2046C4
S315080047A0BDE81040CAE74548007870473E4890F98A
S315080047B0000070472DE9F8410646202516F12B0F13
S315080047C085B049DB464C21881423FFF790FEBDF8D7
S315080047D010004FF6FF71884203D0400448BF0124F9
S315080047E007D43F2200211020FFF7D4FD002480F0D3
S315080047F0200506F12B022F2A2B483A491AD21322F2
S315080048004BA300E0521E5FFA82F813F91870BE42F5
S31508004810F8DB03EB4802032756780E60002613F8E8
S315080048201810017000218846C4B1BDF810104FF663
S31508004830BF7229E0092E0FDA825D0A60067014231A
S3150800484029480188FFF753FE4FF4C0514FF480768C
S315080048504FF080082827E7E78B201AE04FF46052CC
S3150800486000F044F84FF4E062314600F03FF8802249
S31508004870414600F03BF8791988B24028A8BF3F2185
S3150800488081F020013F2289B200F030F8FFF7A4FD3D
S31508004890002006B0BDE8F08180790020E8100040CD
S315080048A0BB7F002064100040B82700204829030871
S315080048B0522903081C100040227E002041290020AE
S315080048C01429002080200040D010004000E100E0BC
S315080048D080E100E060200040AC100040BA7F002074
S315080048E044290308C0100040462903080B2059E54F
S315080048F0AA2129005523290000252800AA262700D1
S3150800490055282700002A2600AA2B2600552D250003
S31508004910002F2400AA302400553223000034220038
S31508004920AA3522005537210000392000AA3A20006E
S31508004930D500E601EC02EF03F204F405F506F707E5
S31508004940F808F909FA0AFB0BFC0DFD0FFE11FF1317
S3150800495000160119021C031F100011002000300068
S315080049604000410050006000700080009000A000E8
S31508004970B000C000D000E000F00000000000010315
S315080049802DE9F041DFF8C8630546F0780328D4BF5F
S31508004990302760274FF4F070B0FBF7F41E2D24B2D1
S315080049A001DB281B04D5A8B2BDE8F04100F087BAA0
S315080049B002F0D4F900F053F970700722DFF8940377
S315080049C0002102602D1B41602DB281607D43DFF816
S315080049D08823DFF87873ED1C4FF00071AD0811607D
S315080049E06D1E4560DFF8745300F00FF83C6800F060
S315080049F03BF93C602E6002F0B7F9002080F310887E
S31508004A004046BDE8F04102F0B7B92E68286840086C
S31508004A104000286002F0A8B938B50446DFF830032C
S31508004A20C1780329D4BF302560254FF4F070B0FB58
S31508004A30F5F0241A1E2C04DAAB210FF2783002F0B6
S31508004A40A1F9DFF8100307210160002242608260A5
S31508004A506C43DFF80423E41C4FF00071A4081160CE
S31508004A60641E446031BDDFF8E82201215170D3E7A6
S31508004A702DE9F041DFF8E862DFF8E87200253560D5
S31508004A803D604FF4A0427A6041F29A084046FFF72B
S31508004A9077FF706844F69041081A00B24FF44872DE
S31508004AA090FBF2F001B20829A8BF072004DA11F139
S31508004AB0080FB8BF6FF0070000B2386008244046F8
S31508004AC0FFF75EFF4046FFF75BFF70684519641EF7
S31508004AD0F8D12D1DED0808BF0125DFF88C02B0FBC3
S31508004AE0F5F080B27860BDE8F08138B5DFF87C5221
S31508004AF001216FF00F04A9602C608020FFF740FFAA
S31508004B00E868B0F5807F02D2641C102CF4DB31BD56
S31508004B1070B5DFF85C02DFF84452016841F0010124
S31508004B2001600122426002F019F92E680446FFF777
S31508004B306DFF8649512008602E6002F015F920465F
S31508004B40BDE8704002F018B92DE9F0418A4C894E4B
S31508004B50A1887F4F4FF6FF78414540F2DC551CD1BE
S31508004B608648018802237F22201D00F0A2FAA08829
S31508004B70404504BF0221A180B069810703D4B0690A
S31508004B8040F00200B0610120B8702846A188316063
S31508004B90FFF769FF2846BDE8F081B0698207EED5C0
S31508004BA0B8780028F6D1B268B06812F0010204D1CC
S31508004BB00F290AD2491CA18007E0830705D520786A
S31508004BC018B10229C4BF481EA080A08822700228F6
S31508004BD0BCBF0221A1803068A1888842D3D1B069C0
S31508004BE000F00300032818BFFFF792FF0020D2E762
S31508004BF02DE9F047624981460878002468B9C878E3
S31508004C00072818BF09280DD0032818BF112809D06E
S31508004C1013281CBF15280B2804D05A48016841F4EC
S31508004C208071016002F09AF800F019F84846FFF71B
S31508004C308BFF08B901240CE0484D444FFFF7E5FE09
S31508004C40D7F800A000F010F8C7F800A02E6002F010
S31508004C508BF800F0A8F8002CE4D0BDE8F087804671
S31508004C60012080F310887047386820F040003860CB
S31508004C7002F09CB90220BBE710B53648364B002136
S31508004C80416000228260016821F00201016030491A
S31508004C904A704FF000721A60887808B100228A704C
S31508004CA0C878012815D13848384B012202601C689B
S31508004CB0E20702D50320C87010BD0222CA70016C33
S31508004CC0334B41F001010164042032490860186041
S31508004CD010BDC878042804BF0522CA7010BD1C4937
S31508004CE04878002818BFFFF7C7BF01F03FB82DE97D
S31508004CF0F843174D287808B12879E0B100212970C2
S31508004D0022E002F02BF8FFF7AAFFE978052910D070
S31508004D10124E0E4C00F040F8D4F80090206820F0AF
S31508004D204000206002F042F9C4F80090376002F0B3
S31508004D301BF800F038F8E8780528E2D10021A970B8
S31508004D40FFF756FF00202870BDE8F1830080004079
S31508004D50C87F002010E000E004ED00E094ED00E0DC
S31508004D60104000400C0000400060E3160840004078
S31508004D701C4000400440004004290020562903082E
S31508004D80960708083840004018A000400C4000402C
S31508004D9000E100E080E200E0376830684008400043
S31508004DA0306001F0E1BF002080F31088404601F032
S31508004DB0E3BF0000636C6F636B732E630000000033
S31508004DC0002010B501F095FF40F68C2188426A4C08
S31508004DD004DA206840F00800206010BD216821F040
S31508004DE00801216010BD38B5644D2988044600F0D5
S31508004DF061F89DF800109DF80100FF2902BFFF2801
S31508004E0004200021220018BF801CC2B2082A5C4A6E
S31508004E10136823F46073A8BF0720C0B243EAC0131F
S31508004E20136008291068A8BF0721C00841EAC00115
S31508004E30116054490C7031BD80B55348018800F0A3
S31508004E4039F8BDF800004FF6FF71884204D14FF4D7
S31508004E50E162ADF8002004E00A2190FBF1F1ADF81B
S31508004E600010484A107810B34448018802237F226C
S31508004E700DF1020000F01DF99DF80300BDF80030A1
S31508004E80FF2808BF0420811CC9B20829A8BF07212A
S31508004E90C1F12F0202EBD272C0F12F00521000FBB3
S31508004EA00320C1F12F01B0FBF1F0ADF80000BDF809
S31508004EB0000002BD02237F22684600F0FAB8334993
S31508004EC00A68032809D34B6D43F001034B650B6849
S31508004ED09B1AC3F313038342F9D3704710B5040032
S31508004EE004D110BD4FF47A70FFF7E9FF2046441E3F
S31508004EF080B20028F6D110BD2549087868B9C87867
S31508004F00072818BF092814D0032818BF112810D05D
S31508004F1013281CBF15280B280BD01E48016841F41E
S31508004F2080720260C80504D45FF038011DA001F044
S31508004F3029BF704720B1012809D0032818D019E0E5
S31508004F40154800291ABF17220260016010E039B11E
S31508004F50124800EB5100B0FBF1F0B0F1011F01D38C
S31508004F60202070470E4900F001024A604008086098
S31508004F70002070472120704700BC00404A290308DA
S31508004F8018000040BD7F00204C2903083820004047
S31508004F909607080838400040100004E000366E0105
S31508004FA068C800407573625F6572726F722E63001F
S31508004FB0F8B5054688B00020FFF715FF2848018890
S31508004FC00A237F22684600F074F8BDF802004FF6FF
S31508004FD0FF76B04240F005804FF4837123A001F0BC
S31508004FE0D1FE002427A70EE0022C08BF4EF23F028E
S31508004FF03DF81410385DFFF7D5F9641C052C05D269
S31508005000002C3246F0D14FF47C42F1E7012D03D152
S3150800501014237F22134802E014237F2212480188B2
S315080050201AA703A800F045F80024324602E0082C27
S3150800503008BF002203A830F81410385DFFF7B2F94C
S31508005040641C0A2C05D2012C3246F0D14FF6C072E8
S31508005050F0E7012D04BF0120FFF7C5FE09B0F0BD3A
S31508005060482903084629030844290308616E616C28
S315080050706F6775652D63656C6C2D626961732E6348
S315080050800000000000100C0D0E00000001020304D1
S315080050900708090A0B0F000030B415467F2A00D10D
S315080050A000251A46154C214305FB031130BC01F0B7
S315080050B081BF70B5044615461E001ED008464BF241
S315080050C03462904213D13046092800D30826334665
S315080050D07F2240F612012046FFF7DEFF32460849D6
S315080050E0204601F0BBFF002807D140F2A2713346E3
S315080050F02A462046BDE87040CEE770BD0000080885
S315080051002010030810B5DFF83C481020206301F092
S3150800511025FEDFF834180A6842F001020A6001F039
S315080051202BFEDFF82808606020600122616889315B
S31508005130616022638A30E060A0600221E068DFF8DF
S3150800514010288930E06021634FF6FF70106010BDAB
S31508005150DFF8000845F26401C1601E224262502150
S315080051600162C822C261826545F69001F022C265D5
S315080051704166882282660621C16644F2066202609A
S315080051804FF6FF73DFF8D0174360087838B1DFF8B9
S31508005190CC0748F2607101604FF4C1524260DFF8F3
S315080051A0C007DFF8C027016841F00401016000204C
S315080051B050707047DFF89807016811F0190F03D18E
S315080051C00021022001F080BF70472DE9F84F804684
S315080051D0DFF89417DFF89457012001F0D5FF00F0A7
S315080051E0B7F8032001F070FF8A22DFF8601702FB88
S315080051F008F28E18711CDFF878274B780878DFF8E4
S31508005200741700EB032013781FFA80FA01EB0809DC
S315080052100B7000205FEA8A6289F8020001D5686E81
S31508005220010640F1938000240AF0070BBBF1030F37
S3150800523064D10AF440610AF44040B1F5806F1CBF9E
S31508005240B0F5804F002859D00422B1F5006F08BF89
S31508005250082203D0B1F5406F08BF0E225FEA4A6103
S315080052605CBF921CD2B2B0F5004F03D1931CDBB2DF
S31508005270009303E002F10801C9B20091009F7F1C68
S3150800528007EBD777FF053F0E5FEA080114BF696889
S315080052902968B94232D3B118B0F5404F16D108463D
S315080052A002F033F8040029D05FEA0A7026D45FEAD0
S315080052B008000CBF28686868791C884219D2E86813
S315080052C05FEA080214BF0221012110E04978B05CA8
S315080052D000EB012080B202F014FCFF2802D002F095
S315080052E06FFCDFE7BBF1030F08D10124DCE70842B6
S315080052F0DDD10098315C042918BF0024E86D000947
S3150800530000F00100844289F802001FD0002CAA6C24
S315080053104FF400604FF480610BD0B8F1000F08BF5E
S315080053200846024212D0686C40F001006864012108
S315080053300AE0B8F1000F08BF0846024206D0686CBA
S31508005340400840006864002189F80210BDE8F18F22
S31508005350A96C490801F0010170472DE9FE4F044682
S31508005360DFF80856DFF80C6620000CBF2868686866
S31508005370C1B2042905DC00F0B7F87068401C7060FB
S31508005380B0E041008DF800108A22DFF8C0859DF84C
S315080053900010624308EB02094944A1F1080701928B
S315080053A03878797801EB0020B97866311FFA80FBE6
S315080053B0B970307818B9DFF8B81508783070002158
S315080053C032783A703170002003F0D8F97870DFF837
S315080053D08075386C20F4805038642000686E23D1BC
S315080053E07868410525D41BF4E45F73D100F0BBFF50
S315080053F010B15FEA4B406DD5019918F80100802875
S3150800540068DA386C99F801108A06264444D5696E1C
S315080054100A063BD4A96CCA0638D4396823000CBFDF
S3150800542080224FF480722EE0012CDCD178680105C9
S31508005430D9D5DFF844150878C0B100221BF4E45F1B
S315080054400A70DFF8386502D0316840200BE099F819
S315080054500100000900F0010A5146292001F034FE36
S31508005460316852468F2003F0E8F904E0FFF770FF31
S31508005470092001F029FE20000CBF4FF480604FF48C
S315080054800060786028E00840104205D0FFF760FF0A
S31508005490052001F019FE14E000F00DFF50B199F84F
S315080054A00100810606D500F024FF18B1FFF750FF6A
S315080054B0062002E0FFF74CFF092001F005FE002058
S315080054C0B070B2789DF80010484603F0F1FA002053
S315080054D0B07001E000F008F8002C07BF0120286131
S315080054E002212961BDE8F78FA96C490801F001017D
S315080054F0042001F0E9BD2DE9F84FDFF85464DFF820
S315080055006C743568306CDFF87884DFF86C94DFF8F3
S3150800551074A4DFF854B405403AE071B18A21DFF883
S315080055202C24484310444378D80606D4DFF84C3474
S31508005530196800228F2003F080F9280608D50CB9CF
S3150800554000F0A4F803F001FB802025F08005306008
S31508005550E90509D50CB900F099F803F0F6FA4FF405
S31508005560807025F480753060690407D50CB900F0A1
S3150800557086F84FF4804025F480453060290407D525
S315080055800CB900F07CF84FF4004025F40045306073
S31508005590002D70D00024280706D50020FFF715FE39
S315080055A0082025F008053060E90606D50120FFF732
S315080055B00CFE102025F01005306005F0600160290A
S315080055C003D1B86CC1050AD401E0A80605D5202187
S315080055D025F020053160002006E0680606D5402142
S315080055E025F0400531600120FFF7B7FEE80404D531
S315080055F04FF4805125F480553160E8079DD5012187
S3150800560031606D0801F05EFD6D0060B14FF44872BF
S315080056105946012001F05CFDB96CFFF79AFE01209E
S3150800562001F052FD01249AF8010008B100F0BAF918
S315080056309AF80000002806D000F003FE012807D1DA
S3150800564099F8000000283FF478AF98F8001004296C
S315080056507FF473AFF868400800F00100002814BF13
S315080056607968396811B93168CA04F7D5002814BFB2
S315080056707968396851E700203060BDE8F18FB96C68
S31508005680490801F00101072001F01EBDB96C49085F
S3150800569001F00101082001F017BDDFF8EC020068EF
S315080056A070470021DFF8E422101D30F811305B1C2A
S315080056B020F81130491C02EB4103588808B908291B
S315080056C0F2D3704738B50446FFF7EBFFDFF8BC5254
S315080056D01022291D204601F06DFC05F11401204613
S315080056E003F01AFBFFF7DDFF05F11401281D03F08F
S315080056F013FB214605F11400BDE83840102201F0DD
S3150800570059BCF8B5DFF8886237780546012030704D
S31508005710380008D10021032001F08EFA0F2401F089
S31508005720A6FA641EFBD105B12F703078F2BD0028A9
S3150800573000D0704710B5DFF85842207818B101F04C
S31508005740D2FA0020207010BDF8B5FFF7BBFF002580
S31508005750DFF8386200270F2401F089FA641EFBD1AE
S31508005760311DC0F3801031F81520B8404240301D75
S315080057707F1C20F815200F2FEDD96D1C0F2DE9D9A8
S31508005780F1BD10B50446FEF7B2FD2046FFF7DCFF73
S31508005790FEF7ADFD7D4801210170416A1029BCBFA5
S315080057A0491C4162012010BD38B584B000F011F8DB
S315080057B00446764D05E06846FFF7E3FF044018BF48
S315080057C00124696A1029F6DB00F005F8204605B0C1
S315080057D030BD002095E70020A9E72DE9F8436B4F77
S315080057E08846397884B004469146012551B9FFF7B1
S315080057F0F0FF060018BF01266846FFF7C2FF0642FB
S3150800580008BF0025002621E016F0070017D15FEA39
S31508005810090007D0FFF7DDFF054018BF01256846D8
S31508005820FFF792FFFFF73DFF381D90E80C506946D9
S31508005830684681E80C5007F1140103F06DFA06F08A
S3150800584007013DF8112024F81620761C4645DBDBB7
S315080058506846FFF737FFFFF7BEFF284605B0BDE8E5
S31508005860F08370B5044649480D46416A1029164624
S3150800587002DAFFF799FF28B1324629462046BDE8E5
S315080058807040AAE770BD0022EBE780B50022FFF75B
S31508005890A4FF3E494A6A102ABCBF00234B6202BDD8
S315080058A00321022001F0C8B97CB501F0E0F94FF6F2
S315080058B0FF76384D301A292190FBF1F428783A34CE
S315080058C0C0B90321032001F0B7F933480188022340
S315080058D07F226846FFF7EDFB01F0C9F9BDF8001015
S315080058E0401880B2361A292096FBF0F0253001219F
S315080058F06870297001F0F7F96878241A60B276BDE5
S3150800590070B5264908780024B0B90321022001F0B1
S3150800591093F9FFF7C9FF134E0546707848B13078FA
S31508005920401B40B203F001FA0B2805DB3570012451
S3150800593002E0012035707070204670BD1848007866
S31508005940704700000020004084200040307E002080
S3150800595000A000404C10004042290020D010004012
S3150800596080200040D47F0020B55100082020004048
S3150800597041290020B87A0020E87A0020F07A002031
S3150800598013290020D07F002038200040C07A00204C
S31508005990D67F0020D27F00204E2903081429002034
S315080059A0D77F0020704770477CB50124002501A8E1
S315080059B0DFF870110A680260DFF86C612046307003
S315080059C0284603F0B7F9002808D0284603F0B2F9AC
S315080059D0002803D028463070492076BD02237F224E
S315080059E0DFF8480101880DF1020000F033F80223C0
S315080059F07F222946684600F02DF8284608E001A9C6
S31508005A0031F81010BDF80220914200D12546401CFD
S31508005A100128F4D9280004D0BDF80000B0F57F7F2E
S31508005A2016D0280006D1BDF80000B0F57F7F01D05A
S31508005A30042409E0002D01D1062405E0BDF8000084
S31508005A40B0F57F7F00D0072400203070204676BD51
S31508005A50002076BD18B40C46B4F5807F09DADFF865
S31508005A60C8402478002C08D0C9B201B010BC03F095
S31508005A706FBD01B010BCFFF71CBB11BC704718B452
S31508005A800C46B4F5807F09DADFF89C402478002CB0
S31508005A900ED0C9B201B010BC03F08DBD14467F2CE0
S31508005AA000D10022DFF88840214302FB0311016080
S31508005AB011BC70472DE9F04104460D4616461F46AF
S31508005AC0B0F5807F1DDADFF86000007800281FD067
S31508005AD0DFF8608098F80000002804D0CA21DFF8B3
S31508005AE0580001F04FF9012088F800003B462A4685
S31508005AF031462046C0B204F0D1F8002088F80000EC
S31508005B0006E0D521DFF83000BDE8F04101F03AB9EA
S31508005B10BDE8F081DFF810100978002901D004F0FB
S31508005B20F9B97047D8280308B07F00205029030820
S31508005B3000000808B17F0020DC2803081FB50C4CBC
S31508005B4021880A237F226846FFF7B3FABDF80000CA
S31508005B504FF6FF74A04204D15FF0530105A001F08F
S31508005B6011F9BDF8001022460020FEF71BFC1FBDE8
S31508005B7048290308616E616C6F6775652D66696CE7
S31508005B807465722E63000000DFF84C18087848B177
S31508005B90DFF848080179012904BF4079042801D1B2
S31508005BA001207047002070470FF6D0014008085CB6
S31508005BB07047010604D502464FF6F83000EAC200DF
S31508005BC07047491C800189B2B0FBF1F080B2B0F58C
S31508005BD0807F2CBF0020C0F1FF00C0B2704738B5E7
S31508005BE0DFF80018C878012801D1002032BDDFF897
S31508005BF00048607868B1E5780879451920798542C2
S31508005C00A8BF054604F09BFA012202FA05F5691EAB
S31508005C10084061790818C0B232BD2DE9F047C207BD
S31508005C20044605D54FF4D8710FF6400001F0AAF8DE
S31508005C30DFF8C057286DC10748BF8C2000F1948053
S31508005C40DFF8A027DFF8A86751780020107049B957
S31508005C50307838B16078A96F400900F0010041F04A
S31508005C60010103E0A96F490800204900A96750719E
S31508005C70DFF868777078B979DFF87C87DFF87C9782
S31508005C8098B1002313710129286D40F00400286596
S31508005C9007D14FF6FF70C9F800004FF40071C8F835
S31508005CA00010FFF79CFF82460CE0286D20F00400E8
S31508005CB0012928654FF0000A04D100F080FA642013
S31508005CC0FFF7FDF8A86F20F00800A8671421E9641B
S31508005CD0C5F848A0707830B1B879002801BFA86C1B
S31508005CE000280121A964B0790028286D14BF40F066
S31508005CF0080020F008002865FFF746FF28B1D9F804
S31508005D00400040F00800C9F84000202028626C6076
S31508005D102C60042168687F30686029624FF4E0646B
S31508005D20DFF8DC06046006E004F01CFA18B104F09B
S31508005D3021FA01F013F8DFF8CC06016801F0030137
S31508005D400329F1D0C8F80040286D40F00100286505
S31508005D50707810B90021252003E0B87918B9002118
S31508005D60232001F0B1F90020BDE8F087DFF8980696
S31508005D70DFF89826DFF898360021416081600168CF
S31508005D8021F0020101604FF00070106001211970C6
S31508005D907047332800D2704710B5B0F5002F0CD2E3
S31508005DA0DFF86C4600212170FEF736FE02E001207E
S31508005DB004F0DBFC20780028F9D010BD2DE9F84F57
S31508005DC0DFF83886DFF81C76D8F80010D8F84000D7
S31508005DD0DFF8206608401FFA80FAC8F800A078782D
S31508005DE0002840F001815FEACA70DFF82846DFF82C
S31508005DF0009651D53568306C716C41EA0041B9603E
S31508005E0099F8000000283ED0687882063BD5012321
S31508005E103B700021282001F057F9FFF7B5FE00284E
S31508005E203AD01920FFF74BF8DFF8ECB54FF44040AD
S31508005E30CBF82800DBF800100091E06E40F4005023
S31508005E40E066E06E40F48050E0662978B86849015B
S31508005E50B8310D18FFF721FC2D1AC5F31300FFF70B
S31508005E6098FFE06E80098001E066E16EBDF80000EB
S31508005E700143E16648F260700021CBF82810E0661D
S31508005E80F988216008E000212B2001F01DF9B96886
S31508005E900022002002F0D1FC5FEA0A610ED53878AC
S31508005EA030B1002139700022B968402002F0C5FCE3
S31508005EB0D8F83C0020F48050C8F83C005FEA4A61F4
S31508005EC00CD5787850B97979272001F0FDF8FFF7D5
S31508005ED0E4FB01460022892002F0AFFC5FEACA60B3
S31508005EE06BD5DFF8F8542879012804BFA87901286A
S31508005EF028D10021232001F0E7F800F0A0FB306F3D
S31508005F0040F0010030670021A9714FF0000AFFF741
S31508005F10F9F80A20FEF7D3FF4FF6FF70DFF8D8240A
S31508005F20C8F800004FF4E06111600923B366012048
S31508005F30B064B16F41F00801B167306D40F00100FF
S31508005F4030653AE03879401C3871C0B299F80210C9
S31508005F50884225D2FFF743FE8346BBF101018941FA
S31508005F60C90F242001F0B0F82879012802D100F0E1
S31508005F70F9F803E00021232001F0A6F8B06F20F01D
S31508005F800800B0671421B166C6F848B04FF400702F
S31508005F90DFF864140860326D42F0010232650CE0E5
S31508005FA0787850B97979262001F08EF8FFF775FBD5
S31508005FB0014600228D2002F040FC5FEA0A7013D5E4
S31508005FC0FFF7E2FD48B12068F88001212160D8F882
S31508005FD0400020F00800C8F8400099F8010018B100
S31508005FE00021252001F070F85FEA8A600ED520218D
S31508005FF03162787850B97979272001F065F8FFF78A
S315080060004CFB01460022882002F017FC787840B144
S315080060101AF4407F05D100212B2001F055F8012004
S31508006020B870BDE8F18FDFF8B81320B1086840F4FE
S315080060304040086070470A6822F440420A60704788
S315080060407CB50546FEF773FBDFF8D803DFF89843FF
S31508006050DFF88863002101601522E26009210165E5
S315080060601F22426001210166DFF8B4030088FEF7AB
S31508006070DEF9FFF76DF804F0D7FB00F03DF930893B
S3150800608060617189216100F069FE616841F0400133
S31508006090616000F071FE707800F0F9F8B07800F0F1
S315080060A00DF9DFF88403007800F03DF9DFF87C038A
S315080060B090F90000FEF77EFB307800F057F996F964
S315080060C0030000F062F9DFF86803018800F07EF942
S315080060D0BDF80000C105DFF85C1348BF0020087052
S315080060E0DFF854030078FEF729FB28B140F2264171
S315080060F00FF2783000F046FE012D09D12068C1075D
S3150800610015D500F02FF800212C2000F0DDFF0EE059
S315080061106DB92068C1070AD400F091FA206840F0EA
S3150800612001002060C820FEF7CAFE0020B071F120E9
S31508006130DFF8C852286440F2F911E96300F0C2FF9B
S31508006140FFF771FFFEF7DEFF2068C10707D54FF698
S31508006150FF70DFF8A41228604FF4E0620A60FEF7C9
S31508006160C6FD73BD70B5DFF8D452DFF870422E68ED
S31508006170A079012822D000F0F1FDB6B2DFF880221E
S315080061802E604FF4E0611160DFF890120B6A5B082D
S315080061905B000B620A68520852000A600B6843F0FB
S315080061A002030B604A6A42F001024A620121A171A8
S315080061B000F0E2FDBDE8704000F000BA70BD70B5B1
S315080061C0DFF81852A87950B300F039FA00F0C6FD86
S315080061D00446DFF86C12DFF814620120086000211B
S315080061E0306D40F001003065A971FEF78BFF202065
S315080061F03060316B41F002013163F06D40F0080008
S31508006200F065204600F0B8FD0A20FEF758FE7B49E7
S31508006210794B4FF6FF7008604FF4E0621A6070BD64
S315080062206E48807970476D480179012900D070471A
S3150800623080B5FFF797FFBDE8044000212C2000F049
S3150800624043BF66480079704780B5022801DB012004
S3150800625002BD624908718979884209D010B9FFF7E9
S31508006260AEFF05E0FFF77EFF00212C2000F02CFF93
S31508006270002002BD73480068800200149A3801B2F3
S3150800628011F1800FB8BF6FF07F0040B2704710B5AC
S31508006290044600F063FD6C490A68002C04D042F0FD
S315080062A012020A60012103E022F012020A600021AC
S315080062B04A4A517049E049484078704738B504461B
S315080062C000F04CFD0546FFF739FB58B921005E483A
S315080062D004D0026842F08002026003E0016821F0FF
S315080062E0800101603D4884702846BDE8324000F0D0
S315080062F043BD3A4880787047544A537810785449D1
S3150800630000EB03230B609078D37800EB03234B60F4
S315080063101079537900EB03238B609079D37900EBDE
S315080063200323CB60704710B5044600F017FD220022
S31508006330454904D00B6843F020030B6003E00A6864
S3150800634022F020020A6038490C70BDE8104000F0BF
S3150800635013BD22493F4A0881106070471F493E4ACB
S315080063604881106070473D480078704702001E4912
S3150800637004D00B6843F002030B6003E00A6822F0BE
S3150800638002020A6015490870704738B57F28044626
S315080063900AD1334C218800F019F8BDF80000C10570
S315080063A054BF04466FF04A0400F0D8FC0546FFF7D0
S315080063B0C5FA28B960B29A3080052A49000C0860E7
S315080063C00648C470284600F0D7FC31BD02237F2258
S315080063D06846FEF76EBE0000DC7F00200E2900200E
S315080063E040A00040E87A002080200040302000408D
S315080063F0D02700201020004000E100E004A0004063
S3150800640080E100E0A820004010E000E004ED00E094
S31508006410DD7F002064100040E4100040602000404A
S31508006420C42700205C100040DB7F0020B82700202E
S3150800643058290308BA7F0020412900201C10004073
S31508006440281000400C10004084200040307A0020BC
S315080064509820004094200040902000404F290020BA
S315080064605A29030854100040704700007068792DB7
S31508006470636F6D6D6F6E2E6300000000FEF7C80136
S3150800648038B504F0DDF9EFF30880001F03E04FF09C
S31508006490CD3140F804199B498842F8D204F06AFACB
S315080064A004F0F0FA0022984989B2984804F02AFBC9
S315080064B00120FEF749FB0020FEF795FC944C206866
S315080064C040F008002060FDF709FFFEF779FC9148C7
S315080064D0914B1978C16091495A78CA60904A9B785D
S315080064E0D360904B1D8805605D8845609888086074
S315080064F0D8884860188910605889506000F05EF89E
S31508006500206820F010002060FDF788FE04F06CFB80
S31508006510FEF7B0FBFDF7DEFEBDE83140FDF7FDBE38
S3150800652040F2016004F0F0B9F0B514680F259E003A
S3150800653005FA06F630421CD0002616E09C4607EB04
S315080065408C0784462CFA07FC5FEACC770CD5B70093
S3150800655005FA07F7BC43A4461C4631F814E03C4646
S3150800656004EA0E0444EA0C04761C3746FFB2042FEC
S31508006570E4D31460F0BDF0B41568FF26DC00A6402D
S31508006580304218D0002412E01F4606EBC70607461D
S31508006590F740FE070AD50126A640B5432F461D46F5
S315080065A011F805C0354605EA0C053D43641C264628
S315080065B0F6B2082EE8D31560F0BC70472DE9F04115
S315080065C000210A2000F080FD00F080FD584C20686C
S315080065D0002832D000250DE02B46DBB24D4829466F
S315080065E0C9B210EB412000F10C024F492068FFF7B1
S315080065F0C2FF6D1C2846C0B20328EDD300263546D7
S31508006600DFF8288115E043482946C9B210EB41272F
S315080066103346DBB23A4641462068FFF785FF761CCB
S315080066203346DBB23A1D41462068FFF77DFF761CEC
S315080066306D1C2846C0B20328E5D3BDE8F0812DE9D4
S31508006640F04100210B2000F03FFD00F040FD384CE2
S315080066502068002832D000250DE02B46DBB22D48F5
S315080066602946C9B210EB412000F10C022A492068DC
S31508006670FFF781FF6D1C2846C0B20328EDD300261C
S315080066803546DFF8A08015E022482946C9B210EB46
S3150800669041273346DBB23A4641462068FFF744FFB6
S315080066A0761C3346DBB23A1D41462068FFF73CFFAD
S315080066B0761C6D1C2846C0B20328E5D3BDE8F081D8
S315080066C00320FFF727BA80B504F00DF901461948EB
S315080066D00B2901D200EB810002BD80B504F007F951
S315080066E001460912C0B20B2909D2134A525C9042DC
S315080066F005DA124A52F8211001EB800002BD104853
S3150800670002BD0000281D002010100000980000207F
S3150800671000BC004000B000402427002000B2004022
S3150800672000B400401827002034270020282700201E
S3150800673054720020281003086C110308401103083E
S315080067405410030829490A68920992010A6000222E
S315080067500B68184308604FF4004125480160026041
S315080067606420FEF7ACBB2DE9F047224D1F4FD5F844
S315080067700090214C8046286840F40040286039681B
S3150800678021F480513960207850B11C486278A1788C
S3150800679010F822608E1B414610F82100861902E087
S315080067A0012120262170B0B2FFF7CCFF0FF2500A64
S315080067B002E0B0B2FFF7C6FF386B042805D0386B85
S315080067C0410754BF761E761CF3E7F86A28B94FF4DA
S315080067D09271504600F0D6FAEEE784F80180A6706A
S315080067E01FFA89F02860BDE8F0870000D010004045
S315080067F0181000401C100040D87F0020C64800082A
S31508006800616E616C6F6775652D76636F2E63000028
S3150800681081014FF4FE5289B20C20FDF7C3BD2DE964
S31508006820F84F904DDFF840B2AE682F6800F05BFA7B
S315080068300124B020B6B24FF0000A4FF00A09A0466C
S31508006840BFB2286313E01AF1190F0ADA4FF00A09E2
S3150800685007E004F500402860BAF11A0FF3DB6FF081
S315080068600909CA440FFA8AFA0AEB0600A860DBF897
S315080068700000010702D558EA040023D00120FEF7DC
S315080068801EFBB8F1000F13D0F81E844205DAE41C8B
S31508006890A4B204F500412960DEE707F50040286048
S315080068A00621092000F0C8F93C464FF00008D3E756
S315080068B0DBF800000107CFD5042CA6BFE41EA4B25E
S315080068C00024C6E7AE602F600820CBF800006749B1
S315080068D0086880B2BDE8F28F10B5614C644A217829
S315080068E04FF0FF3371B110B15360624803E00021E5
S315080068F0516041F2111010605F4841880088BDE878
S3150800690010408CE7002819BF53601360506011606F
S3150800691000F0E9F9BDE810400621092000F0DDB9CC
S3150800692038B50120FFF7D8FF04460020FFF7D4FF4B
S3150800693005460120FFF7D0FF4042041B04EB45043F
S3150800694020B232BD2DE9FE4F4C4C4D4DA16A444F45
S31508006950ADF802104FF000082268ADF80020D5F80F
S3150800696000A0387858B14FF6FF7200210820FDF7CD
S3150800697011FD8046C022C0210820FDF713FD4149BC
S31508006980DFF80491087818B148F26071C9F8001068
S3150800699002217888384E40F4404040F04C00C9F84F
S315080069A03C00A1620120206040F24C40FEF787FAC5
S315080069B00120E860286000223280402373803878FE
S315080069C000B12020FFF724FFFFF7AAFF40213180FE
S315080069D07F22834672807F20FFF71AFFFFF7A0FF0A
S315080069E00290584602F0A1F902990646FE20ABEB42
S315080069F0010146430191387850B1029802F095F9A1
S31508006A008346019802F091F980B206EB8B1603E0F3
S31508006A10084602F08AF980B20221B6FBF0F61FFAA0
S31508006A208AF0286000220020E8602160B6B2BDF82E
S31508006A3000002060761CBDF80210A162C9F83C204F
S31508006A40F603387828B14FF6FF7241460820FDF75D
S31508006A50A9FC40F24C40FEF732FA300CBDE8FE8F36
S31508006A600A290020C010004018A00040007000400D
S31508006A7038100040EEEEFFFF447F00206020004003
S31508006A802810004042290020D010004041003F2233
S31508006A9089B201E001463F220220FDF783BC2DE9B9
S31508006AA0F04F5849584D93B0CA6CADF808204FF6C8
S31508006AB0FF720B68ADF806300021E86AADF80400ED
S31508006AC000240120FDF766FCADF802004FF6FF72C0
S31508006AD000210B20FDF75EFCADF800004FF40040E6
S31508006AE04849086000222A616A6148F2020100F0FA
S31508006AF093F844494CF68C30C86448F2F002EA62CE
S31508006B0001204FF480521146FDF74CFC4FF6FF72F8
S31508006B1000210B20FDF746FC0621062000F0DDF8D3
S31508006B20814600F084F8064636494CF69C30C8641F
S31508006B300020FFF7ABFF0621062000F07DF8A0B283
S31508006B40FFF7A4FF0621062000F076F800F08FF87C
S31508006B5003A921F81400641C202CF0DB00F087F848
S31508006B601020FFF793FF00F062F8811BBDF82C0098
S31508006B70A0EB090001FB01FA00FB00AA102411276B
S31508006B800DF10C0800F04DF800F051F800F03EF851
S31508006B9004DB3C467F1C202F8246F3DBA0B210287C
S31508006BA00DD10F2700F03DF800F041F800F02EF85F
S31508006BB005DB3C467F1E3FB2002F8246F2D51148C0
S31508006BC0BDF80810C1644FF6FF76BDF806200260CE
S31508006BD03246BDF80400E8620120BDF80210FDF750
S31508006BE0E1FBBDF8001032460B20FDF7DBFB012068
S31508006BF02861002100F010F86000C0B213B0BDE8AB
S31508006C00F08F0000C010004018100040801B404361
S31508006C100BFB0B0050457047296040F24C40FEF7CD
S31508006C204EB938F81700A0EB090BB8B22EE70621C3
S31508006C30072000F052B8704770B504460D4604F0B8
S31508006C407BF83F4E306C20F008003064E40104F015
S31508006C5075F800F083F844F001043A4944EA05342B
S31508006C600C6008223260BDE8704000F085B82DE956
S31508006C70F041354C354D324E25E004F05DF8344987
S31508006C8004200860326C42F0080232642F682868D3
S31508006C9040084000286000F067F8D4F800802068B3
S31508006CA020F04000206000F081F9C4F800802F60D1
S31508006CB000F05AF8306C20F00800306404212548AA
S31508006CC0016004F03BF831680807D6D50821224A46
S31508006CD03160106880B2BDE8F08180B5FFF7ACFF7F
S31508006CE0BDE80140C3E71748016849084900016043
S31508006CF07047F8B50446FEF79FF805462146032077
S31508006D00FFF7EBFF064621460120FFF7E6FF074699
S31508006D10FDF73FFB21460020FFF7DFFF0446FDF79E
S31508006D2037FB0848016849084900A41B0160240488
S31508006D30BE1BB4FBF6F045436D00280CF2BD0000FF
S31508006D4018A00040047000400080004094ED00E068
S31508006D5000E100E080E200E000700040EFF31180FF
S31508006D60602181F311887047BFF35F8FBFF34F8FA0
S31508006D70BFF36F8F7047704780F31188704770476D
S31508006D8042DE704738B504460D46FDF7B0FAFFF700
S31508006D90E5FF2946204604F0D2FF2B4622467849CD
S31508006DA0012005F004F929462046BDE83440E7E706
S31508006DB0014600E0091D0846724A904203D20A6855
S31508006DC0B2F1CD3FF6D07049081A7047F8B54FF4BE
S31508006DD020646E4D6E480168A965016AE9656D49CA
S31508006DE009682966416A6966816AA966C16AE966A7
S31508006DF0016B2967806B686795F83800400701D5ED
S31508006E002E6C00E0EE6B374603F012FE6865002133
S31508006E1029653146814221D35F4A8A421ED3B06929
S31508006E206864F069A864A86DC0F30800062819D13B
S31508006E30686C0146594A914214D3594A914211D273
S31508006E4000884DF6426188420CD105F18C006968CC
S31508006E504160A968816040F2017403E00021696419
S31508006E60A9640746686D4F49884200D20846FFF76D
S31508006E709FFFE864002005F1780205E0002103463B
S31508006E80DBB242F82310401C0146C9B20629F5D3E5
S31508006E9000203C4918E0052010E05B1CDBB2062BFD
S31508006EA005D205F1780656F823609642F5D1062BE9
S31508006EB00AD10346DBB2002BEDD0401E05F178035C
S31508006EC00646F6B243F826208F4216D251F8042D0C
S31508006ED01346324EB342F7D3314EB342F4D2D307F8
S31508006EE0F2D50023DBE705EB8203DB6F46F8223099
S31508006EF0521C042AF7D9C5F88C100146481EC9B297
S31508006F00002904D0A96F002205F17806F1E7A86DDB
S31508006F10C0F30800014602290AD0032915D004291E
S31508006F2016D0052917D0062918D00C291DD01FE020
S31508006F301D480168890702D540F602141EE000685C
S31508006F40C0071BD540F2025418E040F6012415E0AC
S31508006F5040F6022412E040F603240FE02046B0F57E
S31508006F60206F0BD140F6042408E040F6052405E01E
S31508006F70002803D0242801D240F607242046F2BD73
S31508006F8068FE0208882600208826002000000020C7
S31508006F9004ED00E000E300E06826002090410008C8
S31508006FA054EA0208980000201CA0004000BF30BF29
S31508006FB000BF704762B38B0708D0521E11F8013B19
S31508006FC000F8013B00F024808B07F6D1830740F0D8
S31508006FD0208000BF103A07D330B4B1E83810103A11
S31508006FE0A0E83810F9D230BC530724BFB1E808101E
S31508006FF0A0E8081044BF51F8043B40F8043BD20708
S3150800700024BF31F8022B20F8022B44BF0B780370FB
S315080070107047121F17D35B0009D151F8043B20F8BB
S31508007020023B1B0C121F20F8023BF6D20BE051F86C
S31508007030043B00F8013B1B0A20F8023B1B0C121FFD
S3150800704000F8013BF3D238BF121D521E24BF11F8B7
S31508007050013B00F8013BF8D8704770470300002051
S3150800706013F0030F09D0521E22BF13F8010B11F8B3
S3150800707001CBB0EB0C00F3D0704711F0030F14D11D
S31508007080121F22BF53F8040B51F804CB6045F7D002
S31508007090121D0AD200BA9CFA8CFCB0EB0C0038BF61
S315080070A06FF0000088BF01207047521E22BF13F8F8
S315080070B0010B11F801CBB0EB0C00F6D0521C08BF3F
S315080070C01046704700207047002070477047704789
S315080070D02DE9F84305460E463000144603D1FEF75F
S315080070E0DCFA24184BE02F46022F0FF23C1803DB7C
S315080070F04B214046FFF746FE102C05D22846B047DE
S31508007100BDE8F143FEF7C9BADFF8109159F8270030
S3150800711018B153214046FFF735FEB4F5002F03D3C7
S3150800712054214046FFF72EFE49F827603C4F3D4E56
S3150800713095B9FFF713FE0546FEF7AFFA2418A0B275
S3150800714078600221200C386031602846FFF714FE6B
S31508007150306C40F0020011E0FFF700FE0546FEF72E
S315080071609CFA2418A0B2F8600421200CB86031609B
S315080071702846FFF701FE306C40F004003064C4F383
S315080071801300BDE8F283000070B504462646022EB9
S315080071900D4604DB5FF0770123A0FFF7F3FDFFF749
S315080071A0DDFD1E4951F82620AA4210D1002341F8D8
S315080071B02630002C1B490A6C04D122F002020A640C
S315080071C0022303E022F004020A6404230B60BDE8EC
S315080071D07040FFF7D1BD70B5124C104E2568206C73
S315080071E00540ADB2A9070AD5206C20F0020020643C
S315080071F031680A0003D000233360002088476907F6
S315080072000AD5206C20F0040020647168080003D0B9
S315080072100022726001208847256070BDDC7D002051
S315080072204020004008A0004073796D626F6C2D7491
S31508007230696D65722E630000DFF8D81600220A70A1
S315080072404A818A81C881704710B5DFF8C84604F1BB
S315080072500A0004F092FF04F10C00BDE8104004F0A7
S315080072608CBF2DE9FC41044605F013FBDFF8A46644
S31508007270F7890546204600F08FFC8046204605F033
S31508007280A8FBB0F5006F19D14046FF2814D000F0CE
S31508007290B2FAFFF763FD80460022214606F10C008C
S315080072A005F0A2FC4046FFF767FD3078F8B1308953
S315080072B02D1AADB2EF191FE02D2024E006F10A00C1
S315080072C005F079FC052810DA4046FF2805D001218B
S315080072D000910822002300F0D6FCFFF73FFD804608
S315080072E00022214606F10A00DAE71C200BE0358168
S315080072F03946304605F03FFD204605F0C1F8032122
S31508007300078181720020BDE8F68170B50446DFF872
S315080073100456002105F10A0005F05EFC04E031463A
S3150800732005F10A0005F0ACFC064630000AD005F067
S315080073306FFB014608222046FFF790FE0028EED193
S31508007340012070BD002070BD2DE9FE4F0F4638465E
S3150800735005F027FB050B384605F091FB82463846B3
S3150800736005F09EFB0646022E05F001052DDA00F013
S315080073701EFDB04229D1384605F056FBB0F5404F00
S315080073800FF2511418D1002D6CD032465146002008
S3150800739000F0CDF9060065D005F072F80546002024
S315080073A0019000940023A978324600F0C3FF002814
S315080073B058D00120E87255E0504605F0D9FD8246BE
S315080073C000F09FFBFF28814601D100204BE00120F9
S315080073D000214A4605F0D2FD0746DFF83C8508EB52
S315080073E0C6008B46D0E900233A4343EA0B03C0E9BB
S315080073F00023BDB3484600F0E3FB98B3484600F0C7
S315080074002CFC10F00C0F24D04FEA1A208DF8090036
S315080074108DF808A0324602A9012000F088F9054631
S3150800742005F02EF80646280007D1002000900C2209
S315080074300023484600F027FC14E000200190009441
S315080074400023B1782A4600F075FF58B10120F07282
S3150800745008E008EBC600D0E904233A4343EA0B03E5
S31508007460C0E904230120BDE8FE8F70B5044605F087
S31508007470B0FAB0F5006F0CBF01250025204605F0CF
S31508007480C7FA0646204605F00BFB022804461FDA13
S3150800749022463146284600F04AF9A8B9204600F0A7
S315080074A091FCA8B995B1304605F062FD00F029FBBC
S315080074B0FF281FBFDFF864140A6832F8100010F4BA
S315080074C0E26F03D000F0B4FC012070BD00F0B0FC00
S315080074D0002070BD2DE9F84F92460C469846504656
S315080074E005F077FADFF82C54DFF83464B0F5006F4E
S315080074F00CBF05F10C0905F10A0900F017FA1FE09F
S3150800750000F045F918E00022394605F10A0005F0B1
S31508007510E1FB5846FFF730FC504605F0C1FA482112
S3150800752048433044D0F804C1BCF1000F04D04346A8
S31508007530524621460020E0473946484605F0A0FB5A
S3150800754007463846F7B1BA45F6D104F099FF817A6D
S31508007550491E8172002C1EBF3F2CC9B20029CFD10B
S31508007560FFF7FCFB8346384605F033FAB0F5006FA3
S31508007570C9D10022394605F10C0005F0ABFB00F035
S3150800758006F9C6E7BDE8F18F10B505F082F9DFF810
S315080075908443014620892181081AFF2180B200F020
S315080075A030F94FF6FF71884202D10020207010BDD5
S315080075B001462046BDE8104005F0DDBB01464FF602
S315080075C0FF701EE12DE9F84F84B00026DFF8480366
S315080075D000EBC6010024D1E90023A046434508BFB5
S315080075E0A24200F09D80F0B200F0ECFB002840F0CB
S315080075F09780012400270196CA490A78F8B2904272
S3150800760080F08B800198C44A02EBC0030025D3E9B9
S315080076100001A94208BFA84200F07F80002604EABC
S31508007620000318EA010B08BFAB426FD0019BE54384
S315080076306FEA080902EBC303284001EA0901C3E916
S315080076400001019B02F1100000EBC30EDEE9000108
S31508007650CDE90201204008EA0101B14208BFB04263
S315080076600BD0DDE90201019B103202EBC302284070
S3150800767001EA0901C2E900010126F8B200F0EDFAB3
S31508007680C00743D50EB9002509E0A4480168FAB237
S3150800769031F8123003F48873102BF4D10125F8B2AF
S315080076A000F0C1FA01999E4848225143421802F156
S315080076B0D409D9F844A0BAF1000F0AD000F0B8FBF3
S315080076C00199C9B2F8B2D0470198C0B200F07AFB66
S315080076D008BB85F00100064209D001260096102253
S315080076E00023F8B200F0CFFA002000F0D2FDF8B27D
S315080076F000F08FF9D9F82C20110007D001998A4B90
S315080077001970294690478849FF2008704FEA4800B3
S3150800771040EAD47864007F1C6EE7019E00F088FB7F
S31508007720761C012E7FF752AF05B0BDE8F08F2DE924
S31508007730F8430C467749002819BF01F10C080227BF
S3150800774001F10A08082715460021404605F044FAC3
S3150800775003E04946404605F093FA81465FEA090088
S3150800776013D004F08DFE0646F07A0028F1D148467B
S3150800777005F04EF901463A462046FFF76FFC002809
S3150800778004BFB1788D42E4D14846BDE8F28338B5E6
S315080077900024E0B200F016FB30B900220C200021CC
S315080077A000F09AFA00F044FB641CE0B20228F0DB11
S315080077B0584C002104F10C0005F00EFA054617E0B6
S315080077C0284605F06DF90228FADA00F0FBFA0028D7
S315080077D0F6D1284600F0E0F9FF2801D000F00BF8B2
S315080077E0294604F10C0005F04BFA054600F020FB8B
S315080077F02800E5D131BD012100910422002300F0C3
S3150800780042BA2DE9FC4704460020424EADF8000076
S315080078100D464FF6FF7806F10A0901E006F10C0954
S31508007820FFF79CFA82460FE0FF2D04D0384605F094
S3150800783037F9A84208D10021484605F02BFA00225C
S315080078403946684605F0D0F9484605F0AFF938B923
S3150800785000F06CF8074604F013FE00898442E3D270
S3150800786006F10C01894508BFFFF791FF00F05EF8A5
S3150800787013E0FF2D03D005F013F9A84209D13846C5
S3150800788004F0FEFD0189091B018189B2414598BFB3
S3150800789088463946484605F0F3F90700E9D15046C7
S315080078A0FFF76AFA06F10C008145B7D1684605F07C
S315080078B07DF958BB0021684605F0ECF9044604F04A
S315080078C0DFFD0646204605F0EBF8F17A0029EDD1F2
S315080078D00646022EEADA00F075FA0028E6D12046B6
S315080078E000F05AF9FF280ED000F09DF948210C48FF
S315080078F04E438119D1F80461320004D00023224690
S3150800790041210020B04700F093FACFE74046BDE892
S31508007910F6870000647D0020502A0020D07C0020D5
S31508007920347B0020522900205B290020002148468C
S3150800793005F052B9F8B5002818BF0029164601D037
S31508007940412E01DB2120F2BDDFF81C552862696251
S315080079500027DFF81805067011E02A6A18237B430A
S31508007960D41800200021C4E90401D054FF22286A53
S3150800797018447F1C4180001D082103F0C3F8B74254
S31508007980EBDB686A710005F00BFB0020F2BD70B5F1
S3150800799000F05CF909B9022070BD20B9DFF8CC54B3
S315080079A02E78B44201D3212070BD18256C430C44AF
S315080079B0207820B9207CC10701D52E2070BDDDE9CD
S315080079C00401002525706280221D1D68156040F09F
S315080079D001005D685560C4E90401002070BD10B55A
S315080079E000F035F909B9022010BD00F018F901D3E5
S315080079F0212010BD1822504308440024C0E904443D
S31508007A0004704480FF220821001D05F0CDFA0020ED
S31508007A1010BD0246DFF85004016A00294FF6FF70D0
S31508007A2000D1704730B5DFF844442578AA4206D21B
S31508007A3018235A4311440A7CD30748BF488830BDE7
S31508007A4010B500F004F951B100F0E9F807D2182290
S31508007A5050430844017CCA0701D5001D10BD00200B
S31508007A6010BDF8B50446DFF80004056A002D18BFF6
S31508007A70002C13D0002600E0761CDFF8F0130B78F4
S31508007A80F0B298420AD21827784300F034F8002852
S31508007A90F2D1387CC107EFD57888F2BD4FF6FF7072
S31508007AA0F2BD2DE9F0410646DFF8BC03056A0C462F
S31508007AB0F5B1DFF8B80390F80080464528BF2120C5
S31508007AC017D2002CF0B207D1182148432844027C6B
S31508007AD0D00709D4F0B20CE01823584300F00BF88D
S31508007AE010B9387CC107F5D4761CF0B24045E8D306
S31508007AF0FF20BDE8F0812F1808222146381DFFF720
S31508007B00ADBA70B5DFF860130A6A9AB10021182673
S31508007B1000E0491CDFF854432578CBB2AB4209D2C2
S31508007B20734313445C888442F3D11B7CDC07F0D58D
S31508007B30C8B270BDFF2070BD01460020B1E710B580
S31508007B400C46FFF7DEFFFF2808D0FFF779FF28B1BC
S31508007B500168216041686160012010BD002010BDE8
S31508007B6030B500F077F852B100F00BF801D32120B8
S31508007B7030BD00F00BF802D54180002030BD022050
S31508007B8030BDDFF8E8422578A842704718235843E5
S31508007B901044027CD307704710B5044604F019FF59
S31508007BA0B0F5006F204602D104F021FF02E004F090
S31508007BB02FFF02E0BDE81040A3E7BDE81040BBE791
S31508007BC030B5A94C216AA9B1A84B1D78A8420FD295
S31508007BD0182242431144D1E90423D1070AD5646A1D
S31508007BE034F8100010F4E26F08BF12F00C0002D04F
S31508007BF0012030BD002030BD10B500F028F861B175
S31508007C0000F00DF801D3012010BD00F035F804D5B9
S31508007C100006000F00F0010010BD002010BD934BB8
S31508007C201C78A042704710B500F011F861B1FFF753
S31508007C30F6FF01D3212010BD182250430A18137CE1
S31508007C40DA0701D5085C10BDFF2010BD0C46864931
S31508007C50096A7047844A126A704710B5FFF7F7FF3A
S31508007C6009B9002010BDFFF7DAFF02D200F004F8C8
S31508007C7001D40020002110BD182250430A18D2E969
S31508007C800401C2077047F0B501467748006A08B98B
S31508007C900220F0BD754D2E78B14201D32120F0BDEA
S31508007CA018246143014401260027D1E90445BB4253
S31508007CB008BFB24203D0E00701D42D20F0BD0598D5
S31508007CC0002819BF22432B4324EA020225EA0303AC
S31508007CD0C1E904230020F0BDF8B5634B1B6A0BB954
S31508007CE00220F2BD0024614E3778E5B2BD4213D2B8
S31508007CF0182675431D44D5E9046706F0030EBEF140
S31508007D00010F07D1002A07BF86438F4306430F4357
S31508007D10C5E90467641CE6E70020F2BD2DE9F046D4
S31508007D20FFF798FFAAB1514C94F800900023182742
S31508007D309A4600E05B1CDCB24C450AD27C431444EC
S31508007D40D4E9045605400E4008BF5545F2D0012037
S31508007D5000E00020BDE8F08610B5FFF7D2FEFF2848
S31508007D6004460DD0FFF779FFC00709D52046FFF76F
S31508007D7074FF0006400E00F0010080F0010010BDFF
S31508007D80002010BD80B5FFF7BCFEFF2801D00120FA
S31508007D9002BD002002BD022807DA334B43F8301033
S31508007DA003EBC000426000207047012070472E494F
S31508007DB00A6A0B68002093421FBF01208968914216
S31508007DC0FF20704770B52A4D044695F9000010F15A
S31508007DD0010F04DA40F2122126A0FEF7D3FFFEF7C0
S31508007DE0BDFF012CDEBF95F90020511C01291BDCC3
S31508007DF01D4B53F8341000291EBF03EBC4067168E7
S31508007E00002911D0521C2A7052B203EBC2011A6A19
S31508007E100A615D6A4D6153F83410196272685A62D4
S31508007E20FEF7AAFF002070BDFEF7A6FF012070BD71
S31508007E3038B50F4C94F90000002804D54FF40E719C
S31508007E400CA0FEF79FFFFEF789FF94F90010064A7B
S31508007E5002EBC103491E1D6915625B6953622170F5
S31508007E60FEF78AFF002032BDAC7C00205229002094
S31508007E70532900206D61632D6368696C642E630065
S31508007E8038B5DFF8444904F5B27004F076F90025F0
S31508007E9005E004EBC000803004F06FF96D1C94F81F
S31508007EA0C010E8B28842F4D331BDF8B5DFF81849F6
S31508007EB0002084F87F00002504EBC50202F1800645
S31508007EC00821304605F06CF86D1C0022082D32801A
S31508007ED07260F1DB00254FF6FE76482068432718C6
S31508007EE0482107F1D40005F05BF807F1D6006D1CB0
S31508007EF04FF6FF710022022D468086810180C276E8
S31508007F00EBDB7F21204605F06DF804F1C000002167
S31508007F1000220170426081600173026104F5B2704B
S31508007F200180FF218170C1704260027202F007F978
S31508007F30DFF898180870FF220221DFF8940802F08B
S31508007F40E1FD0121002000F053FC002000F0A1F91A
S31508007F500020F2BDF0B502460020002314464FF477
S31508007F60B875DFF864186C43DEB248270D197E43EE
S31508007F70AF1997F8F11001B1401C5B1CD9B2022960
S31508007F80ECDBC0B2F0BD2DE9F04188464646022E2C
S31508007F90034615461CDA00214827DFF82C48184600
S31508007FA04FF4B8725043221807FB01F00244D4324A
S31508007FB0507F00281EBF687F0028B1420AD1491C9D
S31508007FC0C9B20229EBDB2978184600F059FE60B9D8
S31508007FD0212026E0DFF8FC070178022903DB107868
S31508007FE029788842EFD002201BE004F1D4007E43B2
S31508007FF0482229463044FEF7DDFF002000F0CBFD7D
S3150800800070B194F86C01404504BF002000F074F884
S315080080100020FFF79FFF0228A4BF002000F04AF8BF
S315080080200020BDE8F08110B50446FFF793FF02284B
S31508008030204602DB00F03EF801E000F05DF8002083
S3150800804010BD70B51646044672880D4600F0D7FD79
S31508008050B2882946204600F0DEFDB21D2946204694
S31508008060BDE8704000F0DABD38B504460D4600F0AC
S31508008070C1FD2978814203D0204600F0BDFDC0B974
S31508008080204600F0B5FD95F90110814203D020463F
S3150800809000F0ABFD68B9204600F05BFB05462046BC
S315080080A000F079FD20B12946204600F07AFD00B996
S315080080B0002032BDF8B518B9FFF74CFF022801DDDC
S315080080C00120F2BDDFF800670024482506F1D40731
S315080080D0E1B269437A18507F18B1E1B20020FFF780
S315080080E0B0FF641CE0B20228F2DB96F86C01454347
S315080080F07919BDE8F4401DE001464FF4B87210B591
S31508008100DFF8C43651435A18482192F86C414C435B
S31508008110111901F1D40418B993F86C01022801DB8E
S31508008120012010BD224600210020FFF78AFF2146C4
S31508008130BDE81040002097E710B50229104601DB7C
S31508008140212010BD4822DFF880465143631803F109
S31508008150D401FEF72FFF002010BD10B500F0C5FAB8
S3150800816053F8C40F002804BF187A002801D1080064
S3150800817001D1212010BD19605A60002000F089F84D
S31508008180002010BD4FF4B871DFF83C26484380B58F
S31508008190104400F1C801002388680B600B7118B100
S315080081A08B60002000F05CFC0020FFF73CFF0020FD
S315080081B002BD70B5DFF820260021044611700020A4
S315080081C000F0E9FC002858D04FF4B871DFF8F8251C
S315080081D04C43144404F1C0052878A8B104F180067C
S315080081E004F5B2703168016071684160002000F0E2
S315080081F0E0F82A78D20004F18801304604F0F6FE49
S315080082002878411E297070BD02F1C40001680A0071
S3150800821008D000230122036002720020884700F07C
S315080082202DF870BD94F87F00810702D404F05CFF36
S3150800823028B100F023F80020BDE870402DE094F83E
S315080082406C0102280DDA482148432218D2F80801A1
S3150800825038B194F86C0141436018D0F80811884782
S3150800826058B904F0D8FF0146287B30B9FF2918BF52
S3150800827084F86C11BDE87040D5E670BD94F87F00AF
S3150800828000F0FD0040F0010084F87F0070470020F0
S315080082908FE7DFF8440504F063BD3EB500F083F8C8
S315080082A0141894F87F00C10721D500F0FE0084F861
S315080082B07F0004F001FF054694F87F00810744BF5C
S315080082C0284604F0DFFE2946002005F09DF9002126
S315080082D00191024694F86C3148204343E018002384
S315080082E0D0F8141100910020294600F023F837BD74
S315080082F010B50446084604F0C5FE4FF4B870DFF81A
S31508008300C8144443081990F87F2042F0020280F806
S315080083107F200020BDE81040BBE74FF4B871DFF8B6
S31508008320A8244843104490F87F3003F0FC0380F8F3
S315080083307F307047F8B502290C46154601DB212027
S31508008340F2BD00F030F8161806F1C007786820B9B3
S31508008350387B002818BF022B01D00120F2BD3A78DD
S31508008360082A1EDA012B08BF4FEAC20C08D0D20031
S3150800837006F1800106F1880004F038FE4FF0000C83
S315080083800798069906EB0C0222F8805FD070947065
S3150800839051603878401C38700020FFF77AFF0020BB
S315080083A0F2BD1C20F2BD4FF4B871DFF81C24484317
S315080083B070472DE9FF4100F01BF905F5B274A67860
S315080083C0217AB14203D026720020FFF72CFE4821FD
S315080083D071436F182A4697F9D5008DF8080030467C
S315080083E0B4F80080414600F009F90246D7F8F8408B
S315080083F0012034B102A80190009600232946404680
S31508008400A04702462946002000F004FBBDE8FF818C
S3150800841070B54FF4B872DFF8B03350431C1804F542
S31508008420B2756E68300003D0EB782A880020B04712
S3150800843000232B8094F87F00810701D5FFF720FFE2
S3150800844070BD002025E72DE9F24F814688B0084621
S3150800845004F016F8040052D0BDF8200004F028F8FD
S31508008460617894F800B001F00701022908BF0120DD
S3150800847024D005A90022C0B2C1E900222044A0F1F7
S315080084800806306808607068486005AEDFF84C1367
S315080084907778087896F80380ADF8042007F00F0778
S315080084A004970028B5781EBFDFF834130B68002B35
S315080084B005D06AB2414620469847002084E0092242
S315080084C00021601C05F014FA8246ABEB0A01881EEF
S315080084D040B202900299002911D40499DFF8E8B253
S315080084E0482041430BEB010000F1F4020392936923
S315080084F03BB1BDF8200000220121984708B9212088
S3150800850062E0029901A8CBB20090621C0499C9B234
S31508008510002005F0F3FAC0B20028049053D1611C7C
S3150800852051440091BDF8040004F047FA00281EBF24
S315080085300398C269002A06D00099BDF8040090473E
S3150800854008B9022040E0BDF8040004F023FB0790B8
S31508008550BDF8040004F031FA28B1029A0099079888
S31508008560FEF728FD07E002985044C2B20123611CB9
S3150800857001A804F0C5F8BDF8040003F081FF877070
S3150800858080F8088045729DF8141081729DF81A20AB
S315080085909DF81910120242EA0142F1790A43C260B3
S315080085A04FF4B87202FB09F00BEB0002C8321079DF
S315080085B0BDF80410002812BF12680398026810005C
S315080085C01CBF08469047049809B0BDE8F08F000024
S315080085D038B500F00DF8D5F8D04024B940F21A3174
S315080085E080A0FEF7CFFB0021C5F8D010A04731BD0B
S315080085F04FF4B871744A4843151870472DE9F84383
S31508008600054689464846144604F0C9FA07464846C8
S3150800861004F0CCF9661C042821D1484604F0E7F991
S315080086204FF6FF7148F64108884218BF48F66108B8
S31508008630482065494543481900F1D605F01C2988A4
S3150800864005F030FB484604F0D2F90146701D05F0E6
S3150800865029FB6988F01D05F025FB093603E0601C37
S3150800866004F086FC80464846FEF7FFFE08B148F04F
S3150800867010084146601C05F015FB484604F08AFAC6
S3150800868000F01FF80121484603F07AFF05003E4432
S3150800869008D003F00DFFC7B2284603F0F1FE00F03C
S315080086A010F83E4449480178E170361B491C0170B0
S315080086B0761C26702046BDE8F8430922012105F0FC
S315080086C017B901463A463046FEF774BC10B500F0B5
S315080086D00CF8D3F8D00008B1022010BDC3F8D010AA
S315080086E01146BDE8104000F0B0B94FF4B873364CE7
S315080086F05843231870472DE9FC4107468846002B46
S3150800870014460CBF80250025404603F0B9FE0646F0
S31508008710404603F0CDFE4FF4B8712B4A4F43174439
S3150800872045F0080297F86C313146C0B204F00DFAEC
S31508008730010008BF01200AD0089900910022019281
S31508008740024697F86C1123460020FFF7F3FDBDE8B3
S31508008750F6814FF4B8711C4A48431118482291F81B
S315080087606C315343CA1892F8F10028B991F8CC0035
S31508008770401E8041C00F7047002070474FF4B87103
S31508008780114A4843104490F86C01704738B54FF4C5
S31508008790B8720D4950430C1804F1C005297B81B9FC
S315080087A0002000F0F8F960B10B490878002804BFEA
S315080087B094F87F00002804D12978481E8041C00F0C
S315080087C032BD002032BD0000347B0020DF7F002050
S315080087D0587F002039290020A47C0020E97A00204F
S315080087E0607A002075707065722D6D61632E630066
S315080087F00846DFF8681400220A818A720A824A82C9
S31508008800FF230B600A71FDF71FBD70B50C46402C9F
S315080088101D46DFF8486403D1717A2A20FEF754FC16
S31508008820280018BF01203071346000F08AF900F082
S3150800883084F9BDE8704005F057BA70B504468D2C2A
S315080088401CBF872C8E2C0D46164601D105F075FAED
S3150800885033462A462146BDE870400020D5E7F8B5DC
S31508008860FEF77CFADFF8F4532C68FF2C5DD2FF2163
S315080088702960FEF781FA002C287A16BF8F2C01266C
S315080088800026022803D040F22D1100F09DF88D2C09
S3150800889018BF872C03D08E2C1CBF0020A87230006E
S315080088A012D0E86800F0E1F870B1287940B105F116
S315080088B01800012129722921BDE8F44004F05BBAA9
S315080088C000F080F93F212CE0002000F07BF9402CD5
S315080088D04FF6FF770BD105F037FA687A411E6972B1
S315080088E0E0B100223946042004F03CFD12E08D2C4C
S315080088F01CBF872C8E2C11D100223946202004F06B
S3150800890031FDA87A50B1401EA872C0B210B9DFF87E
S31508008910501348700020BDE8F24059E006B1002423
S315080089202146BDE8F4400020B4E0FEF725FA287A8F
S31508008930032803D10021002000F0ACF8688A58B15A
S31508008940FEF70CFA6C8A00216982FEF715FAE2B284
S3150800895000211D2004F042FD03F0BEFE040010D0E5
S31508008960FEF7FCF9298A4A1E2A82FEF705FA2146ED
S315080089700020FFF768FD287A18B9BDE8F240FFF72E
S3150800898060BDF1BD80B50020FDF76EFDBDE8024073
S31508008990002064E710B5DFF8C442617D99B9012269
S315080089A01028627503D04FF4E07100F00DF8DFF877
S315080089B0B002002141700123E168BDE810404FF480
S315080089C080620020F9E010BD0FF2C820FEF7DAB980
S315080089D010B5012005F0D4F9A04CA2490020607515
S315080089E02120FEF771FB50B101280ED002280CD1C8
S315080089F0002300228E210020FFF707FF05E0E1682B
S31508008A0001234FF4806200F0D8F8BDE8104000203A
S31508008A1005F0B6B970B5914C207A0D46164618B1D0
S31508008A2040F20E21FFF7D0FF02208D49E560207243
S31508008A304E708D480278207D6272A0720020BDE8D3
S31508008A407040C5E70020FFF7C3BD80B50A0008BF20
S31508008A500122120185490020FEF73AFB002002BDDB
S31508008A6082490020FEF790BB704710B5441C20468B
S31508008A7004F07EFA00F00700032809D10922002134
S31508008A80204604F035FF205C042801D1012010BDE2
S31508008A90002010BD10B50C46704A00211172002046
S31508008AA0FFF7CFFC2146BDE810400020FFF7B0BC19
S31508008AB0F8B50D466F1F0446FFB21646E05DFDF792
S31508008AC078F82178FDF77DF8E055FDF712FC60B1DE
S31508008AD03EB12046FFF7C9FF18B1607840F0200084
S31508008AE002E0607800F0DF00607001222946204627
S31508008AF003F0D0FD01001FD003F0DFFD574C5C4D9D
S31508008B00208A401C20822888218A884208D2608AC6
S31508008B10401C608204E003F0DFFD208A411E2182AA
S31508008B202888218A8842F6D300F00BF800F005F869
S31508008B30BDE8F14005F0D8B8F1BD4E48007804F01C
S31508008B40F8B94D48007804F0F4B910B5434C207ACA
S31508008B50012806D100212176002000F033F80321F0
S31508008B60217210BD38B53D4D002028760024FEF749
S31508008B70F5F8297A012902D1032101242972FEF781
S31508008B80FBF83CB1002000F01DF8BDE834403F2159
S31508008B9000207FE731BD3148017A481E8041C00F69
S31508008BA070470846FDF750BB80B52C49088A10B9AE
S31508008BB003F0A0FD2BE0012002BD084611461A4627
S31508008BC005F09EB880B50020FFF7C3FD012803D144
S31508008BD0BDE80140FDF727BB01BD2048017A012900
S31508008BE001D101207047002070470846FBF7E2BD17
S31508008BF0FBF7DCBDFBF7D7BD0846FBF7CCBD104637
S31508008C00FDF7ACBBFDF736BB80B5FDF709FB401E8B
S31508008C108041C00F02BD1046FDF79BBBFDF76CBB3C
S31508008C20FBF77FBDFCF739BD0C49087A002800D050
S31508008C30704780B5FCF764FE18B1BDE8014005F041
S31508008C40A5B801BD80B5FFF7EFFFBDE804404FF4B6
S31508008C50A0510A4804F08FB800000000647A00208A
S31508008C60D0270020958900084A290020458A00084F
S31508008C7002290020E77F0020C37F0020287A0020F1
S31508008C8080B50846FBF754FDFF2801D0012002BD38
S31508008C90002002BD6C6F7765722D6D61632D656D61
S31508008CA06265722D7068792E6300000002681749A4
S31508008CB012BACA60426812BA8A60826812BA4A60F0
S31508008CC0C06800BA08607047704730B510498022FE
S31508008CD00A6006230F4A136007240C601568AB0761
S31508008CE0FCD5002350F823405B1C24BA042B8C6265
S31508008CF0F8D313685C07FCD500220B6B1BBA40F847
S31508008D002230521C042AF8D330BD00003830004007
S31508008D100030004010A0004010B504460846FFF792
S31508008D20C5FF2046BDE81040CFE7002848BF4042AF
S31508008D30704770472DE9F84304462B251F4EFF223E
S31508008D402946304604F030F91D4FFF22E421384603
S31508008D5004F02AF94FF000081EE01A4810F8082017
S31508008D60521C5210184810F80890184810F80800B5
S31508008D70002800D01932D21C02FB09F2144830F838
S31508008D801810144805F04CF8B9F1010F02D027F86D
S31508008D9018504D4408F10108B8F12B0FDDDB2B23E1
S31508008DA04FF4805240F22D510B4805F039F8314600
S31508008DB02046BDE8F44300F013BB00BF1479002039
S31508008DC030780020EC24030818250308C02403087B
S31508008DD068240308E42303080024030830B5DFF8F1
S31508008DE0445ADFF8444A2B882468C01A04EB400426
S31508008DF0002004E034F8103021F81030401C90426E
S31508008E00F8DB002030BDDFF81C3ADFF81C1A1A8898
S31508008E100968801A01EB4001022005F019B8F8B577
S31508008E2004460F461646DFF8005AF0B208B34FF666
S31508008E30FF70ADF80000002017F8011BC3B2401CF4
S31508008E400DF80310761EC1B2022902DAF1B2002922
S31508008E50F2D1DFF8D0E92868BEF800301FFA84FCA2
S31508008E60ACEB030300F014FF641C0100DDD000F036
S31508008E70E6BB0120F2BDF8B504460D461646F0B22B
S31508008E8088B1012200F010F8641C0020C2B2401C10
S31508008E901DF80230761EC7B2022F05F8013BEEDA3E
S31508008EA0F1B20029F2D1F1BD6946A0B296E70146B2
S31508008EB0DFF87809DFF87829405C525CDFF8B43BC4
S31508008EC0595C09B102F5997240EAC21080B270473E
S31508008ED010B5DFF85839DFF8A02B1C5C012C02D13D
S31508008EE002EB400010BD32F81000091802EB4100F1
S31508008EF010BD70B590B005460C464FF6FF7604E0F7
S31508008F00A8B2FFF780FF203D2035A9B28C420FD3C7
S31508008F1020226946A8B2FFF761FF002082B23DF819
S31508008F201230B342ECD1401C81B22029F6DBEBE7C4
S31508008F3010B070BD38B5044661882088FFF7D9FFA0
S31508008F400121DFF8383BA171DFF8901C22881878D8
S31508008F500D88821802EB4502921DA28031BD10B51C
S31508008F60DFF81C4B2046FFF7E5FF04F10800FFF782
S31508008F70E1FF04F11000FFF7DDFFDFF8640C04F1F0
S31508008F800801446004F110028160C26010BD2DE939
S31508008F90F0430446DFF8E40A0778B946B9F1060F44
S31508008FA085B003DD4FF4377100F001FB0021A17194
S31508008FB07A1C208892B201A9FFF710FFBDF80410A9
S31508008FC04FF6FF76B14218BF002910D00DF10408FC
S31508008FD0711A38F81900884209D101254D454DDA2C
S31508008FE038F8150048B1BDF80410884215D0204657
S31508008FF0FFF7A0FF05B0BDE8F083DFF8881C0A88F4
S31508009000208805FB02214118711805FB020089B268
S3150800901080B2FFF76EFF0220A0716D1CDEE7208884
S315080090203818C01C00F02EF8BDF80200000B4845A1
S31508009030DDD120883818401D00F024F8BDF802104C
S31508009040BDF80200711A000A01F0FF018842CED16C
S315080090500320A071012220883F187F1C6946B8B2F8
S31508009060FFF7BCFEBDF80000FF2802D10421A1715C
S31508009070C0E7B042BED00028B9D1BBE7A079022824
S31508009080CDD1B7E701220DF1020180B2A6E6F8B507
S31508009090DFF8EC69DFF8485B002006F1080106F105
S315080090A01002B071B073B075A960EA606E603046A0
S315080090B0FFF76DFF06F10800FFF769FF06F11000DC
S315080090C0FFF765FFB179B07BDFF85C47042908D163
S315080090D000220428ADF800204CD1FFF740FF0120FC
S315080090E0F2BDB17D04282ED100200429ADF8000078
S315080090F0F3D03046FFF71EFF06F11000FFF71AFF00
S315080091002068DFF87839378900F081F8040047D1FC
S315080091100320B073B079032851D1B07B032802D15C
S31508009120B07D01286AD0B079012851D1B07B0328D7
S315080091305BD1B07D012818BF0328CED106F10800FF
S3150800914006F110015EE0042932D10020ADF80000D6
S315080091503046FFF7EFFE06F10800FFF7EBFE206842
S31508009160DFF81839378A00F052F8040018D10320BE
S31508009170B0751DE0B07D0428AFD006F10800FFF7F2
S31508009180D9FE06F11000FFF7D5FE2068DFF8EC38A7
S31508009190378800F03CF8040002D10320B0710AE0D9
S315080091A0204604F0F5FD1CB14FF4747100F0FFF988
S315080091B0B0790328AED1B07B0128AED1B0E702283A
S315080091C0B1D1B07B032804BFB07D012885D1B5E7AE
S315080091D0032804BFB07B0128F8D1B07D03280BD142
S315080091E006F11000314608360CE0022812BF0128A5
S315080091F0B07D0328EAD1F3E70228E7D1304606F125
S31508009200080110366860EE60A9600020F2BD1C787F
S31508009210E719DFF8104623887F1CFF1A01226946E2
S3150800922000EB470004F04EBE2DE9FE4F0646DFF878
S315080092304C08DFF8548ADFF8549A0F460178ADF8DF
S315080092400810012234880C19641DFFF72DFEDFF87B
S315080092508C19BDF80000B1F800A0641C000AADF82E
S31508009260000050451CBF0121397000251AE0401C3A
S31508009270C1B2514514D25FFA80FB39F81B10BDF80C
S3150800928006209142F3D1C0B2FFF711FEBDF80430B3
S315080092904FF6807210401340984208BF08F80B50EA
S315080092A06D1CADB2BDF80000854206DA022201A99E
S315080092B0FFF7FBFDA41C0020DAE70020D14601E0F9
S315080092C0401C80B2484517DA18F800108142F7D0DA
S315080092D00120387010E021F815A00DE00128DFF80C
S315080092E09817F8D0BBF17F0F31F8150008BF4FF07B
S315080092F0000B834421F81BA0A1B27088C01E8842C7
S315080093004FF6FF7A28DB00F066F8BDF80200FF2565
S31508009310504521D0601C00F0B9FDBDF80200BDF82B
S315080093200610AAEB0002914213D104F1030A040ABB
S3150800933000F07F0BBDF8000084420ADA002000E046
S31508009340401C484518DA18F80010A142F8D1C5B2F1
S3150800935012E0012038700DE0B4807088A1B288420E
S3150800936008D300F038F8BDF80200641C5045F4D064
S3150800937001213970BDE8F78F3088BDF80830181814
S3150800938000EB4400801D012201A980B2FFF726FDEB
S31508009390BDF80400C0F3C710401C00EBD0700AEB00
S315080093A060047088A1B28842D3D3FF2DA4D0DFF819
S315080093B07C04405DBBF17F0F14BF594600218142F2
S315080093C086DABDF80210DFF8AC26535D0906C90F28
S315080093D0994283D07CE701220DF10201A0B2FDE497
S315080093E0F8B58DF80000DFF8281BDFF83804DFF839
S315080093F0EC470288DFF8880602800B884380DFF88E
S315080094007C361D782188DFF89C3BDFF89C4BAA1830
S3150800941002EB4102921D8280002282711A88028123
S31508009420AA1802EB41022388DFF8804B4381921D7C
S31508009430828100228273DFF8783B1A880282AA1892
S3150800944002EB4101891D2388DFF894478182438214
S315080094500021817504F078FD002851D12070FFF7AE
S3150800946016FE9DF80010084318BF01208DF800006D
S31508009470012260680388ED18AD1CA11CA8B2FFF78D
S31508009480ADFC9DF8000000283DD16068DFF8E8656E
S315080094906946FFF7C9FEDFF8940B0588A06881794D
S315080094A0032922D16946FFF7BFFE6168DFF87C23EE
S315080094B0002010E0DFF824371F88B84202DA135C70
S315080094C0012B07D136F810300F88BB4224BF4F88CE
S315080094D09F420AD2401CA842ECDB02208871A16890
S315080094E06068E2686160A260E06000204FF6FF7283
S315080094F000E0401CA84206DA36F810109142F8D16E
S3150800950001208DF80000607828B1012100208DF82F
S315080095100010607002E09DF80000B8B14D2004F01C
S3150800952037FC6088401C6080E068FFF703FD9DF803
S31508009530000000F051F838B100F085F820B19DF828
S31508009540000000F09FFA08B90120F2BD0020F2BD24
S31508009550F8B50D46DFF8841617467F2F0A8808BF28
