:020000040800F2
:1000000000040020D3130008B5100008B510000844
:10001000A70B0901000000000102005300200008A6
:1000200004030000CF0B0008AD0E000860030008B9
:10003000E1050008EF0600082F0700082906000860
:100040004706000845080008570600087A01000026
:100050000000000010B50446002000F059F824BB51
:10006000002000F02AF950B9012000F026F930B93B
:10007000052000F04DF840F2012000F075F9042051
:1000800000F046F8012000F043F8BDE8104040F2CF
:10009000032000F069B90FF2340000F0B1F900F06C
:1000A000A4F940F2022000F05FF900F099F8040092
:1000B000F1D00FF2200000F0A3F9204600F0ABF9D8
:1000C00001A000F09DF9F0E70D0A00000D0A4F6B4A
:1000D0000D0A00000D0A4552522000000020704712
:1000E00080B500F0E6F90121062000F0EDF90620C8
:1000F00000F01CFA0121072000F0E6F9072000F0CB
:1001000009FA1748016821F01001016001BD0000E3
:10011000052800D9704710B5DFE800F01721030F5C
:100120001C17104C2088411E2180C0B9072000F008
:1001300009FA42F21070208010BD072000F0F6F995
:100140000620BDE8104000F0FDB9BDE810400620D3
:1001500000F0E0B9BDE81040062000F0E7B910BD9E
:1001600000BC0040B80C00200078704700210160FE
:100170008180C18001817047F8B504460D4616465E
:10018000002710E02068803020600020E080802080
:100190002081A088401CA080E088411CE1800019DB
:1001A000807A78557F1CBFB2B7420CD2E088218993
:1001B0008842F1D3802204F10A01206800F097FA06
:1001C0000028DFD0F2BD0020F2BD0020704710B53E
:1001D000044600F075F92046BDE8104000F00AB969
:1001E0002DE9F043A5B000F0EBF800F069F900F05C
:1001F00041F9012100A800F08BFB404C04F180057F
:1002000000206860A86000F01EFA00280FBFE860B8
:100210008168E9604088A4F8800000A800F03CFCF8
:10022000070046D1BDF80420BDF8060000A940181B
:1002300000F20A065FFA82F894F8800080070FD572
:10024000E96869B1686808EB00024B1E22EA0307FF
:1002500010B1A868B84203D2384600F0F3FAAF6094
:1002600042463146686800F062FA07000FD1424604
:100270002146686800F03BFA002000E0401C404541
:1002800005DA015D825D9142F8D0832706E0686857
:1002900040446860002FC0D01B2FBED00420FFF761
:1002A00037FF0121384600F07FFB384625B0BDE816
:1002B000F083172FF0D10020F8E770B5DAB00446CC
:1002C00036A8FFF753FF012000904FF402630C4A59
:1002D00036A901A800F07BFC0FF284050FF274062A
:1002E00000F0EEF8002C14BF3246002201A9284687
:1002F00000F0DCFD5028F3D05AB070BD280C00206F
:100300000804002080B500F0ACFEFFF7E9FE00F025
:1003100067F918B14FF4017000F026F800F0D0F83A
:1003200000F0CDFE40F2011188421CBF40F21111D5
:10033000884207D040F2052188421CBF40F20321C9
:10034000884201D1012000E00020FFF783FE002059
:1003500002BD00000D1400084914000869010008DE
:1003600079010008CB0100080D4930220A600D49CF
:100370000A600D490A600D4910220A60010A08BF8F
:1003800000020B4908804FF20F004880BFF35F8FD7
:100390000848002101604160074808490160704732
:1003A0003020004030C8004030C0004010D0004035
:1003B000000000201C4000400CED00E00400FA05A5
:1003C00080B54FF4E131012000F037FF26480221CB
:1003D0008160012101600920092100F075F8BDE864
:1003E000044004210A2000F06FB82048006840064D
:1003F000FBD570471E49CA685207FCD50860704794
:1004000010B5044603E014F8010BFFF7F3FF207862
:100410000028F8D110BD10B5044620090A28ACBF49
:1004200037303030C0B2FFF7E5FF04F00F000A2884
:10043000ACBF37303030BDE81040C0B2DAE70B480F
:100440000068800701D5012070470020704710B573
:100450000446FFF7F4FF20B1054800682070002033
:1004600010BD012010BD000054C8004048C8004025
:100470003CC8004080B500A8FFF7E9FF0028FAD08B
:1004800001BD000019480068C00702D442F6E060D0
:10049000704745F6C050704780B5FFF7F3FF144929
:1004A000096801B9400802BD80B5FFF7EBFF4008BD
:1004B00002BD1048012181604EF6BE21416000E07E
:1004C0000D4801210160704710B50FF2300382081A
:1004D00053F82220136800F0030080000F248440AA
:1004E000A34301FA00F01843106010BD1C40004007
:1004F00020400040006000400860004000B0004024
:1005000004B0004000B4004004B4004000B8004013
:1005100004B80040C108032907DA8902114A0123FF
:1005200000F0070003FA00F050507047C10803299B
:1005300007DA89020C4A012300F0070003FA00F0F1
:1005400050507047C10803290ADA084A02EB81219A
:1005500001230A6800F0070003FA00F05040086029
:100560007047000014B0004010B000400CB00040D4
:10057000B0494A685207FCD508607047AD484168E9
:100580008907FCD50068C0B2704710B5044601E089
:10059000FFF7F4FF2046441EC0B20028F8D110BD7A
:1005A00010B504462002000EFFF7E2FF2004000E03
:1005B000FFF7DEFFE0B2BDE81040D9E780B501E00B
:1005C00080B5FF20FFF7D4FFBDE80140D6E710B5A6
:1005D00000F056F80620FFF7F1FF0820206010BD5C
:1005E00010B5954C41F64910206000219348C16038
:1005F0000161416010214160022101600720012159
:10060000FFF762FF8020206142F2107000F0FAFDD7
:1006100008206061AB20FFF7D1FF082020611E2079
:1006200000F0F0FD002010BD10B500F014F8002817
:10063000FBD100F025F8B920FFF7C0FF08202060AB
:100640008020606010BD80B500F005F80028FBD167
:100650000FF2A42002BD10B500F012F80520FFF73C
:1006600087FFFF20FFF784FFFFF788FFFFF786FF74
:1006700008212160C00701D5012010BD002010BD58
:100680006F4C08206060704710B50446FFF7E3FF29
:100690000028FBD17CB1207810B9032020700AE03B
:1006A000401E0B2813D8DFE800F0060C060C0F0FD5
:1006B000090C06090C0F4FF4802010BD4FF40020E8
:1006C00010BD4FF4801010BD4FF4001010BD00207D
:1006D00010BD10B50C18B4F5802F04D91046FFF7E3
:1006E000D3FFA04201D3012010BD002010BDF8B5FA
:1006F0000D4600F07DF808B98520F2BDFFF7ABFF8D
:100700000028FBD100F079F82046FFF749FF00F000
:100710006DF803E0FFF754FF05F8010B3046461E65
:1007200080B20028F6D1082038600020F2BD2DE903
:10073000F84F894600F05CF808B985202BE0B046F8
:10074000FFF789FF0028FBD100F057F82046FFF79C
:1007500027FF00F04BF84046A0F1010880B228B115
:10076000FFF72EFFFF28F6D0872014E0082038601E
:100770004FF48078200608D0200A000200F580702F
:100780003119814204D3051B03E0B6F5807F04DCF8
:1007900035461EB90020BDE8F28F4546AB46CA4635
:1007A000FFF759FF0028FBD1FFF711FF0820786001
:1007B0000220FFF7DDFE2046FFF7F2FE00F016F8FC
:1007C00003E01AF8010BFFF7F9FE5846A0F1010B00
:1007D00080B20028F5D108203860761BA8B2B6B2E6
:1007E00004448144B6F5807FD7DCD1E70420CCE611
:1007F00016460446002231466BE7114F0820786008
:100800000320B5E670B504460D46FFF724FF002827
:10081000FBD1FFF7DCFE0A4E082070602046FFF790
:10082000A7FE2846FFF7BCFEFFF7E0FF0820306078
:1008300070BD00003CC0004000B0004054C000400B
:1008400010B00040F8B5044600208DF800000D46B9
:1008500040F6FF7600A8FFF717FF07469DF8000057
:100860000938042838BF4FF6FF76354201D0822080
:10087000F2BD344201D08120F2BD00AAA9B22046C7
:10088000FFF727FF08B98520F2BDBCB9BD4215D1DD
:10089000FFF7E1FE0028FBD1FFF799FEFFF7F0FE1E
:1008A000C720FFF78BFE0820206022E02146202091
:1008B000FFF7A8FF04F58054A5F58055CDB12004BD
:1008C000F4D1B5F5803F12D32146D820FFF79AFF27
:1008D00005F17F4504F5803405F57F05F1E72146F4
:1008E0002020FFF78FFF04F58054A5F58055002DDB
:1008F000F5D10020F2BD0000020103009A01340F7F
:10090000001000000000040098140008010000001E
:10091000017001224270827001290CBF80214021A8
:1009200081800021C18001811D4801600E2181620A
:10093000016821F0100101600021416341627047AC
:10094000F8B504460D46164616484FF0FF310160D3
:10095000134FFE6200207862386840F00100386072
:10096000FFF7AEFD012C19D16DB9FFF768FD78B91D
:10097000786AB042F4D3002EF2D0386840084000C4
:1009800038601620F2BD2846FFF761FD0028EFD140
:1009900038684008400038600020F2BD0120F2BDF8
:1009A00000E0004000A8004038B504460D4600F0C5
:1009B00009F800F007F82A4621461820BDE838401B
:1009C000FFF705BC2A4621461820FFF700BC30B5CA
:1009D00083B00446002020814AF6B43200A9207872
:1009E000FFF7AEFF08B11C203EBD9DF800000328B4
:1009F00018BF182801D118203EBD042801D11720A6
:100A00003EBD012801D021203EBD002500E06D1C27
:100A1000EDB2A188091D8D420BDA40F2DD222819C2
:100A200000F10A012078FFF78BFF0028EFD0262085
:100A30003EBD0025002006E00146EDB22819007BEE
:100A400000F03AFC6D1CA188EAB28A42F4D3A27A83
:100A5000E37A9B18FF2B01D022203EBD0B191D7B92
:100A6000B5EB102F01D023203EBD5B7BC0B283428B
:100A700001D024203EBDA078824207D0401EC0B2E3
:100A8000824201D127203EBD25203EBD881C208109
:100A90000220E08000203EBD38B504466078012881
:100AA00004D023D3032855D018D31FE02078012881
:100AB00011D13B254320FFF79DFC40F2DD220021B0
:100AC0002078FFF73DFF30B12846451EC0B2002810
:100AD000F0D11B2032BD0220607010E0FFF7CAFC8D
:100AE00000F03AF8A078401CA07008E0182032BD51
:100AF0002278A078411EC9B20620FFF768FB204685
:100B0000FFF765FF050018BFFFF7B4FC272DEFD0F6
:100B1000A8060BD52278A1781520FFF758FB002DE9
:100B2000EDD10320FFF7F4FA002032BD680603D4AC
:100B3000182D18BF1C2D07D121782846FFF734FF48
:100B400004206070284632BD172DE8D100F004F86B
:100B500003206070172032BD2278A1780620FFF7AD
:100B600036BB0000F8B504460D4616461F4607E0A2
:100B70003046A047294600F0B1FB05467F1E761C93
:100B8000BFB2002FF4D12846F2BD38B50C46154649
:100B900005E0014614F8010B00F0A0FB6D1EADB29C
:100BA000002DF6D132BDF8B504460D4616461F4657
:100BB0003A463146286823689847040005D13A46EA
:100BC0003146E868FFF7E1FFE8602046F2BD10B566
:100BD000029C84720381426001604FF0FF31C1606A
:100BE0000021017410BD2DE9F84F04468B461E46C6
:100BF0009BF81B70802F28BF8027D068A6498842A9
:100C000050D1002E4CD0B06800904FF0FF384FF01C
:100C100000090BEB490A9AF848500FE0FF2D16D057
:100C2000FFF74EFC4FF40063E80240F000624146DB
:100C30000098FFF797FF8046681CC5B29AF84900F4
:100C4000A842EBDA09F10109B9F1060FE1DBDBF8A3
:100C500044006FEA0801884224D1A06800BA7A08EB
:100C6000594673689847C8B9E06805BAA06802BADF
:100C70003B464FF0FF31B068FFF774FFC043854239
:100C80000CD140F6A720ABF81000A06800BA0122F2
:100C90000BF1100110307368984708B1422002E050
:100CA000172000E04320BDE8F28F2DE9F84F804681
:100CB0000D469146D5F804A02889ADF8000005F14D
:100CC000140606F11007042352464046FFF76BFF57
:100CD000002824D1BAF8000040BA1FFA80FBBAF805
:100CE000020040BA84B2E00748BF462075D4B4F58C
:100CF000026FC8BF4E2070DC002C6DD05FEA0B0085
:100D00000AD04FF60441BBEB010000F0AD80FF3884
:100D100065D0FE3863D0BDE0287C08B151205CE08E
:100D20008D2C28BF4F2058D22346321D00F0BBF82F
:100D3000002852D1FA7E802A28BF802202F10C00BE
:100D4000844201BFB08840BA00F47F40B0F5007F14
:100D50003ED1F08840BA4EF25031884202BF388A04
:100D600040F6A721884202BF788A00F47F40B0F5A0
:100D7000807F2DD1B06800BA4849C969884227D11F
:100D80004648008B40F2032188420BD1788AB0F5A7
:100D9000847F1DD3F86D41051AD14149081AB0F579
:100DA000283F15D84FF6FF70388206F110014FF03A
:100DB000FF30FFF7EAFEF16809BAC943884204BF71
:100DC000387E042804D1787E032818BF062801D075
:100DD000452002E0012028740020BDE8F28F287C25
:100DE000002843D0042300F05DF80028F5D1DAF89C
:100DF000000006BA201F84B22848C069864238BF66
:100E00004820EAD3A019796D884228BF4920E4D24E
:100E10004FF6035083450DD1B9F1000F0AD031468A
:100E20000220D9F80020904720B14A20D5E7E01BE6
:100E300084B2BE19002CCFD0BDF800008442B4BFEC
:100E4000274607463B4600F02DF80028C5D1B9F1EA
:100E5000000FECD07A0851463046D9F80430984754
:100E60000028E4D04B20B8E7287C08B94120B4E73B
:100E7000042C18BF4C20B0D104236A6800F013F88A
:100E80000028AAD14B462A463946304601B0BDE873
:100E9000F04FA8E64420A0E7E320BBDE00000008F6
:100EA00000E002085246294640467CE670B50446FA
:100EB0000D4616462889C10701D4802803DA4F2041
:100EC00070BDA87A78B9324629462046FFF7EDFE74
:100ED0000028F6D0172807D12868616888471728A6
:100EE00002D1002070BD502070BD00002AE038B54E
:100EF0000546FFF7D1FAFA2190FBF1F44FF4F070B8
:100F0000B0FBF4F02D1A2DB21E2DBCBF4FF40170B2
:100F1000FFF72AFA5F4807210160002141608160E4
:100F20005D494FF000720A6005FB04F1C91C890895
:100F3000491E416031BD5A48016841F0010101601C
:100F400001214160574851210160704700207047DE
:100F50002DE9F843804640F2DC594C464F48B0F941
:100F600000704C48514D504E012F1ADA0221B180C9
:100F700029600068C00348BF00F075F8A86900F058
:100F8000030003285DD0002F03D5A86940F00200BC
:100F9000A8614046FFF7DAFF04001AD1002F50D5B0
:100FA0004DE04FF6FF77B188B9421CD102237F2272
:100FB0003F480188301D00F0A1F9B088B84204BF55
:100FC0000220B080A869800703D4A86940F002001D
:100FD000A86101207070B088286020B2FFF787FFF9
:100FE0002046BDE8F283A9698907EED50068C003F1
:100FF00048BF00F038F8707808B14846F1E7A868B3
:1010000010F00100A968B28803D10F2A08D2521C3F
:1010100006E0890704D5F17811B1032A28BF521ED2
:10102000F07092B2022A38BF0222B2802868B188DA
:101030008842CED1A86900F00300032801D0FFF751
:101040007AFF0020CDE710B5044604E000F0DAF89E
:101050000620FFF77BFF2046FFF77AFF0028F5D137
:1010600010BD0220EFE70B4800214160816001685C
:1010700021F00201016008484FF0007101600A4848
:10108000417801B9704780B5002141700620FFF713
:101090005DFF01BD10E000E004ED00E0A6140008D3
:1010A0001C4000400080004000040020044000403C
:1010B000A414000806E000005FEA000D70474448F1
:1010C000008870474FF40170FFF74EB938B54FF202
:1010D0000F04404DFFF702F828B140F205202880A8
:1010E0006C80012032BD3C480068C00613D568887A
:1010F000A0421CD1288840F2022188421CBF40F245
:101100000621884213D040F2011188421CBF40F2F0
:10111000111188420BD0314C208A40F6A721884219
:1011200005D12068FFF7C8FF6068804700BF002036
:1011300032BD000038B50446294872B60168490836
:1011400049000160FFF7D2FE23480068000910F053
:1011500001000CBF2349244902E0CD2201F8012BF4
:10116000224A9142F9D32249224A234B03E011F843
:10117000015B02F8015B9A42F9D32049204A00231F
:1011800001E001F8013B9142FBD3124A53884FF230
:101190000F0540F20521AB420AD113888B4205D0DE
:1011A00030B1180A012818BF022801D1194601E000
:1011B00004B90021064801804CF23C305080FFF712
:1011C000A1F84FF40170BDE83240FFF7CDB8000040
:1011D000BA0C0020000000202C0000400020000875
:1011E000FCED00E00000002098000020000400203A
:1011F000A8140008000400200804002008040020AF
:10120000BD0C002070B50646274C2568FFF74CF949
:10121000FA2190FBF1F070432F303021B0FBF1F058
:10122000032809D3616D41F0010161652168491B03
:101230000903090B8142F9D370BD38B50C4620B1C2
:10124000012818D003282BD02CE0184D8CB1184859
:1012500084421CBF4FF40170FFF786F8FFF724F9B2
:101260004FF47A714843B0FBF4F0401EB0F5005FD4
:101270000ED2286014E05CB1FFF716F94FF4FA6162
:10128000620801FB0020B0FBF4F0B0F5003F01D391
:10129000202032BD074900F001024A604008086082
:1012A000002032BD212032BD38200040100004E073
:1012B00020A1070068C800400A0242EA1121484004
:1012C000C0F30311484080EA003041010206C9B270
:1012D000D20E41EA0221484080B270470A0A4840D3
:1012E000C0B208214308C00746BF0348584018460B
:1012F000491EF7D1504070472083B8ED30B5044601
:10130000104683B07F2808BF0020B1F5004F1AD1E6
:1013100008237F2240F6120100A8FFF7EFFF082202
:101320000FF2380100A800F036F830B908237F2208
:1013300040F2A27100A8FFF7E1FF082200A92046B1
:1013400000F010F837BD044D294300FB03111A4685
:10135000204600F007F837BD00000408FFFFFFFF3C
:10136000FFFFFFFF814212D210185118401E491E84
:1013700092B2002A1EBF11F8013900F80139521E3D
:10138000F6D1704711F8013B00F8013B521E92B2B2
:10139000002AF7D1704710B500E0521E92B232B168
:1013A00010F8013B11F8014BA342F6D001E00020F8
:1013B00010BD181B40B210BD09480068202100EA8A
:1013C000010028B10748016842685FEA010D104733
:1013D0007047FFF7F1FFFFF779FEFFF7ABFE000064
:1013E0002C000040002000082848018A40F6A7721F
:1013F000914202BF418A4FF47F40014204D1022949
:101400008041C043C00F704700207047F8B50446C4
:101410000D461D4E01203070FFF7E6FF18B94FF45E
:101420000170FEF7A1FF1948876A294644F48070CD
:10143000B847002131700FF2580618B9294644F414
:101440000070B847805DF2BD2DE9F0410446884642
:101450005600FFF7C9FF18B94FF40170FEF784FF7B
:101460000A48476A0023324641462046B8470FF2F1
:10147000200520B93346002241462046B847405D4A
:10148000BDE8F08100000000BC0C00200000040852
:10149000000202024B4B46474D5832354C32303039
:1014A00036450000EE08C05D00000001FFFF0000AF
:1014B000FFFFFFFFFFFFFFFFFFFFFFFFFFFFFFFF3C
:1014C000FFFFFFFFFFFFFFFFFFFFFFFFFFFFFFFF2C
:1014D000FFFFFFFFFFFFFFFFFFFFFFFFFFFFFFFF1C
:1014E000FFFFFFFFFFFFFFFFFFFFFFFFFFFFFFFF0C
:1020000018200020A5E6010821E6010823E60108C2
:10201000A70A080100210008040303AC00537A0159
:10202000D023F45900000000000000000000000070
:1020300000000000000000000000000000000000A0
:10204000000000006B5ED2DD043EFFFFFFFFFFFFDC
:10205000FFFFFFFF00E002082E000000000000006C
:102060005E4A33CA1AA155ECFFFFFFFFFFFFFFFFD7
:10207000FFFFFFFFFFFFFFFFFFFFFFFFFFFFFFFF70
:10208000F02F002000000000E92F0020E92F0020A1
:1020900018200020A4F60108D8E80108B81600208E
:1020A000680D00200000030800300020FFFFFFFF44
:1020B000FFFFFFFFFFFFFFFFFFFFFFFFFFFFFFFF30
:1020C000FFFFFFFFFFFFFFFFFFFFFFFFFFFFFFFF20
:1020D000FFFFFFFFFFFFFFFFFFFFFFFFFFFFFFFF10
:1020E000FFFFFFFFFFFFFFFFFFFFFFFFFFFFFFFF00
:1020F000FFFFFFFFFFFFFFFFFFFFFFFFFFFFFFFFF0
:1021000018200020A5E6010821E6010823E60108C1
:1021100027E6010825E6010829E60108A0E60108EE
:10212000A0E60108A0E60108A0E60108A0E6010873
:102130002BE60108A0E6010889E80108774B0008B2
:1021400089E50108A0E60108C55E0008A0E60108CF
:10215000BBBF0008FD7E0008A0E60108A0E601085C
:10216000C57400082D420008BB3C000891210008FE
:1021700005800008A0E601084D800008DB4E00083D
:10218000E7880008A0E60108A0E60108A1E601082A
:1021900070B5A148A14942780B685B0725D5032A91
:1021A00023DA838800EB4204A3810123847803FAB5
:1021B00002F2224382709A4C0278002A12D0002543
:1021C00022FA05F6F60708D5AB4045705A40027072
:1021D00010EB4500808A206007E06D1CEDB2032DF6
:1021E000EEDB02E02260032242704FF6FF700860CF
:1021F000BFF35F8F70BD38B500F01EF986490A78CD
:10220000FAB1874B1C68E4071BD4002422FA04F5BA
:10221000ED0711D50125A5404C706A400A7001EB0D
:1022200044017E4A898A19604FF6FF7111604FF4AC
:1022300000617C4A116005E0641CE4B2032CE5DB1C
:1022400000E0032400F0FEF8204632BD7248002171
:1022500001700022032141700021C170052101811C
:1022600000218170001D6E490A604A604FF40042EF
:102270008A601022CA604861012088610320C8601A
:102280000421664801644FF6FF7101604FF400605D
:102290006449086000F015B970B52A29044601D0D8
:1022A000012070BD5C4D2989D00040EA43300843CD
:1022B00005EB44018882012000FA04F628783042B8
:1022C0000FD100F0B9F8297831432970A978B143CA
:1022D000A97000F0B7F8FFF78EFFA04201D181206E
:1022E00070BD822070BD2DE9F843044688464E4FEC
:1022F0004C4D00F085FB48B92868000506D53868C4
:10230000800800F0010080F0010600E0012600F0E6
:1023100093F881463EB12868000504D53868400727
:1023200048BFFFF735FF3C498A780120A04022FAD8
:1023300004F3DB0708D501EB440350409B89A8F860
:1023400000308870802409E00A78024218BF822495
:1023500004D14878A0420CBF81248424484600F070
:1023600071F82046BDE8F28338B504460D4629468B
:102370002046FFF7B8FF842818BF8028F7D132BD68
:1023800038B50446072389222A21FFF785FF224D0D
:1023900005F11C012046FFF7E7FF802809D107233C
:1023A000B9222A212046FFF777FFA91D2046FFF713
:1023B000DBFF802805D1E988AA8B891AE9800121F1
:1023C00001E000210120E97032BD38B5124D04460C
:1023D000E87808B9FFF7D4FFE878D0B1B5F906007E
:1023E00020B9FE210FF2480000F014FBB5F90600F9
:1023F000B5F91C1000EBD072611A521002EB0141CA
:1024000091FBF0F401F0CFF8604300EB8000001482
:1024100032BD064832BD00000024002010A8004054
:1024200004D0004000E100E050A800400080FFFF21
:102430006164632E63000000EFF31180602181F37B
:102440001188704780F3118870470000DFF8D4349A
:1024500033F810001040C840704730B5DFF8C8347A
:102460000FF2745434F810409C60DFF8B84434F82C
:102470001050954311402943D96002221A6000226E
:102480001A6024F8101058680028FCD130BDDFF81D
:102490009C04DFF89C148A780AB149780FE08956C9
:1024A0006FF008029142B8BF302108DBC16D39B12D
:1024B00040F24A31C26DB1FBF2F189B2C91E01602E
:1024C0007047E0B50A237F22DFF8680400F062F865
:1024D0004FF6FF72BDF806100D20FFF7BEFF07BDD7
:1024E000F8B50546DFF84844B5F5004F19D1022389
:1024F0007F22DFF8440400F04DF8BDF80000000A28
:10250000FF2814BF002818206070BDF800000006E6
:10251000C00E10281CBF001D00F091F9BDF800008E
:10252000C543E07808B1002005E0A089ADB268405D
:10253000C00701D50120E070A58105F00106C5F3B3
:102540004007DFF8F803016841F4004101604FF4EF
:1025500040520FF2A84000EB46004078010389B2D8
:102560000220FFF77AFF304601F0DEF84022B90181
:1025700000F0FCF92D06A80E00F001003843A07011
:10258000FFF785FFE07818B1FFF79BFF0020E070B0
:102590000020F2BD018800A801F03CB92DE9F04F00
:1025A00087B0DFF89C53287804900B38C0B20390B2
:1025B0000423039A0B2100A801F0AEF99DF8000056
:1025C0008DF80A009DF801008DF809009DF80200C1
:1025D0008DF808009DF803008DF80500D94E30787D
:1025E000012804D16878471EBF41FF0F00E0012792
:1025F00001F032FC80469DF90200A8F10A0408F1BE
:102600000A0A5045B6BF84424FF0010B4FF0000B51
:10261000012003998840ADF806009DF801000006EE
:1026200004D4A888BDF80610084201D04FF0010B71
:1026300001F0A8FC9DF8030000060AD4E888BDF864
:102640000610084205D19DF900005045B8BF8442EC
:1026500002DB4FF0010901E04FF000094BEA0700EF
:1026600059EA000000F09B80B748006800F00200C3
:102670008DF80400DFF8D4A2DAF8000000F4E0607E
:102680000590B3484FF4E0610160002002F068F863
:1026900002F0B0FAAF4CA7B1687850B1AA48006810
:1026A00040084000A84908600120307000F0BDFFDC
:1026B00007E0206840F400502060206820F480503B
:1026C0002060307801280CD102F0A9FB9E480068F8
:1026D00040F001009C49086000203070642000F048
:1026E000A4FF2FB1687818B90498C0B202F035FC85
:1026F000687838B1206820F480502060206840F469
:1027000000502060BDF80600C643BBF1000F08D0A2
:1027100002F010FD8DF801008DF80280A88830408D
:10272000A880B9F1000F08D002F0ABFD8DF80300CE
:102730008DF80080E8883040E8809DF900009DF920
:102740000A10884202BF9DF801009DF809108842D6
:102750000BD19DF902009DF90810884202BF9DF837
:1027600003009DF80510884206D0042300AA0399AF
:10277000C9B20B2001F0F7F80598CAF8000001F083
:102780002BF99DF8040001F0EBFF02F09EFE687843
:1027900028B148F260702060642000F046FF9DF888
:1027A000010002F031FC9DF8030002F065FD07B066
:1027B000BDE8F08F80B501F04BFBBDE80140EDE6D0
:1027C00001F046BB70B50646A6F10B0401F02BFFE5
:1027D0000546A6F10B00C0B2102801D38A2070BDB7
:1027E0005D488168090702D40068C00701D58C20C4
:1027F00070BD5348067059490A680C2A0ED0A4B21D
:102800000FF26C1232F8242090F908008018C86189
:10281000FFF7C4FE012D08BF01F099FE002070BD36
:1028200010B5044601F014FB2046BDE81040C9E78E
:102830004348007870473E4890F9000070472DE902
:10284000F04186B006466FF02A00864246DB14232C
:102850007F224348FFF79EFEBDF810004FF6FF7140
:10286000884203D0400448BF012506D43F220021FE
:102870001020FFF7EBFD044600252D48394906F1ED
:102880002B02D2B22F2A1AD213220FF2241300E005
:10289000521ED2B213F91270BE42F9DB03EB4206AC
:1028A00076780E6013F81210017000200026804622
:1028B0000327ADB14FF6BF72BDF8101029E0092E05
:1028C0000CDA325C0A60067014237F222648FFF778
:1028D00061FE03200126B0462827EAE78B201DE091
:1028E0004FF46052C10200F041F84FF4E06231024F
:1028F00000F03CF880224FEAC81100F037F884F06D
:1029000020003C18A4B2402C28BF3F243F2284F072
:10291000200100F02BF8FFF7BAFD002006B0BDE85B
:10292000F08100005C2C0020E810004064100040A2
:10293000AC22002098F20108A2F201081C1000400D
:10294000A2220020812300208020004000E100E03E
:1029500080E100E0D010004060200040AC1000405A
:1029600094F20108C010004096F201080B2074E5B3
:10297000AA2129005523290000252800AA2627007E
:1029800055282700002A2600AA2B2600552D2500B1
:10299000002F2400AA3024005532230000342200E6
:1029A000AA3522005537210000392000AA3A20001C
:1029B000D500E601EC02EF03F204F405F506F70793
:1029C000F808F909FA0AFB0BFC0DFD0FFE11FF13C5
:1029D00000160119021C031F100011002000300016
:1029E0004000410050006000700080009000A00096
:1029F000B000C000D000E000F000000000000103C3
:102A0000EFF3118060288041C043C00F7047000081
:102A100042DE704738B504460D4602F0AFFDFFF7C1
:102A20000BFD2946204602F019FE2B4622460FF2E6
:102A30006451012003F0DDF929462046BDE8344009
:102A4000E6E72DE9F84FDFF82805DFF8285501689B
:102A50002E1D4FF4206B7165016AB165DFF8181502
:102A60000968F165416A3166816A7166C16AB16659
:102A7000016BF166806B306796F8340040074CBFFD
:102A8000F76BB76BB84603F09FFADFF8F044DFF856
:102A9000F094DFF8F0A43065874224BFA4F120034E
:102AA000BB421DD357F8182F326457F8042F7264B5
:102AB000726DD205D20D062A16D1326C524513D34F
:102AC0004A4511D212884DF642639A420CD105F163
:102AD0008C026B68536040F2017B7368936003E083
:102AE0000022326472648046DFF89C24904202D255
:102AF000104600E0001DA04203D20368B3F1CD3FB1
:102B0000F8D0201AB06418210020F06405F1780094
:102B100003F086FA002003E0C0B205EB8002916763
:102B2000A04523D254F8041D5145F9D34945F7D2A5
:102B3000CA07F5D5002205EB82039B6F8B4203D0B9
:102B4000521CD2B2062AF6DB062AE9D1002814BFAD
:102B5000401E0520E0E7716F002205EB8203521C46
:102B6000DF6F9F67052AF8DBC5F88C100146481E09
:102B7000C9B20029EFD1706DC005C00D02280AD07E
:102B8000032816D0042817D0052818D0062819D0F5
:102B90000C281DD01FE0DFF8F4030168890748BF47
:102BA00040F6021B1CD40068C00719D540F2025B36
:102BB00016E040F6012B13E040F6022B10E040F641
:102BC000032B0DE0BBF5206F0AD140F6042B07E084
:102BD00040F6052B04E018B1242838BF40F6072B37
:102BE0005846BDE8F28F2DE9F04FDFF88853804654
:102BF000A86B410785B007D5296C2F6D0FF2A83659
:102C000003910024A14607E0E96B0FF2A436EF6CB4
:102C1000DFF8689303916C6D00074CBF0FF2983298
:102C20000FF29C32B9EB040A07D064204FEA5A0134
:102C300000FB0710B0FBFAFB01E04FF0000B03981C
:102C40000FF284310290CDF8049000943346404650
:102C500003F067F81FFA8AF0019000961FFA8BF3D1
:102C6000BAB20FF29431404603F05BF895F83800A1
:102C700040070CD4AAF19800874208D1686DC24978
:102C8000884204D20FF2AC31404603F04AF8039870
:102C9000814528BFA04205D232460FF2C4314046DA
:102CA00003F03FF8404603F093F8286EE8B10FF2C6
:102CB000D031404603F02DF80026A8A70FF2747417
:102CC000286EF040C00707D554F82620107818B1B8
:102CD0003946404603F01DF8761C112EF0DB4046C5
:102CE00005B0BDE8F04F03F000B8404605B0BDE8C0
:102CF000F04F0FF2BC3103F014B82DE9F0479D4FAF
:102D00000FF2B0590FF2C8560FF2B0680FF2284A0E
:102D1000044607F1440503F0BFF940F20151401A9F
:102D200016D0401E17D040F2FF11401A35D04FF494
:102D30004071401A39D0401E53D0401E73D0401EFF
:102D400000F0B080401E00F0C880401E06D0C2E0F7
:102D50000FF2743142E00FF2B031C0E0E86C0128AC
:102D600006D0032807D0042807D0052808D00AE099
:102D70000FF2E03608E07AA606E00FF2E03603E054
:102D80000FF2E03600E077A60FF2E03100F0B5F880
:102D90002B6D0FF20041324603E02B6DEA6C0FF20F
:102DA0000C41204602F0BDFF90E00FF21C4100F004
:102DB000A4F8686AC0F3400018B10FF2244100F093
:102DC0009CF8686AC0F3807018B10FF2504100F0AF
:102DD00094F8686AC00F79D00FF2744100F08DF852
:102DE00074E00FF2A84100F088F895F8200010F088
:102DF000030F01D000F07CF8286AC0F3C01018B1AE
:102E0000EA6A494600F076F80027286AF840C007C9
:102E100005D500F069F810B1314600F06BF87F1C61
:102E2000082FF2DB52E00FF2B04100F066F800F03C
:102E30005FF8286AC0F3802018B10FF2B44100F0A7
:102E40005CF8286AC0F3C03018B1EA6A494600F05D
:102E500051F80827286AF840C00705D500F044F863
:102E600010B1314600F046F87F1C102FF2DB95F8C8
:102E70002000000603D10FF2C04100F03EF8012708
:102E80000FF2E4460FF29C58286BF840C00705D5B6
:102E900000F02AF810B1314600F02CF87F1C042F06
:102EA000F2DB13E00FF2C84100F027F800F020F841
:102EB0001027286AF840C00705D500F015F810B1B2
:102EC000314600F017F87F1C1A2FF2DB2046BDE8D0
:102ED000F04702F07DBFBDE8F0870FF2B04100F08F
:102EE0000CF800F005F8F1E758F827201078704743
:102EF0007A6C5146204602F014BF204602F011BF02
:102F00002DE9F0478046DFF888A00FF26C560FF2EB
:102F1000A049002514A715A406E0404602F0F9FEDA
:102F2000404602F055FF6D1C3078A8B15AF8043BBA
:102F300032464946404602F0ECFE16F8010B0028E6
:102F4000FBD1307800281EBFEDB205F00300032846
:102F500014BF21463946E0E7BDE8F0872025700020
:102F6000414443003F3F00000D0A00002C200000B8
:102F700004ED00E00000002000E300E01820002045
:102F8000D8E8010890210008980000201CA000400B
:102F9000040000200D0A5B4153534552543A2570FA
:102FA0003A25645D0D0A000070726F6365737300EB
:102FB0006D61696E00000000546872656164000014
:102FC00048616E646C6572002570206D6F646520C9
:102FD0007573696E6720257020737461636B202898
:102FE00025347820746F20253478292C20535020E4
:102FF0003D202534780000002575206279746573C2
:1030000020757365642028257525252920696E2083
:10301000257020737461636B20286F7574206F6650
:1030200020257520627974657320746F74616C2932
:1030300000000000537461636B205F6D61795F2055
:1030400068617665207573656420757020746F20E3
:103050003130302525206F6620746F74616C2E002E
:103060005350206973206F757473696465202570EF
:1030700020737461636B2072616E676521000000CC
:10308000496E7465727275707473206163746976C9
:103090006520286F72207072652D656D707465648F
:1030A00020616E6420737461636B6564293A00006B
:1030B0004E6F20696E7465727275707473206163EF
:1030C0007469766500000000526573657420636161
:1030D0007573653A205761746368646F672065781B
:1030E00070697265642C206E6F2072656C69616214
:1030F0006C6520657874726120696E666F726D61AF
:1031000074696F6E0000000052657365742063611E
:103110007573653A205761746368646F67206361F3
:1031200075676874207769746820656E68616E637E
:10313000656420696E666F00496E7374727563749E
:10314000696F6E20616464726573733A2025347808
:103150000000000053433120527800004D414320CD
:103160005278000053433220527800005265736554
:10317000742063617573653A20444D412070726F0D
:1031800074656374696F6E2076696F6C6174696FC2
:103190006E000000444D413A2025702C206164648B
:1031A000726573733A2025347800000052657365A8
:1031B000742063617573653A20417373657274207E
:1031C00025703A25640000005265736574206361C0
:1031D0007573653A2048617264204661756C7400AD
:1031E000484653522E5645435454424C3A20657239
:1031F000726F722072656164696E672076656374B0
:103200006F72207461626C6520666F7220616E203F
:10321000657863657074696F6E00000048465352AC
:103220002E464F524345443A20636F6E6669677578
:103230007261626C65206661756C7420636F756C79
:1032400064206E6F74206163746976617465000038
:10325000484653522E44454255474556543A2066F7
:1032600061756C742072656C6174656420746F2084
:103270006465627567202D20652E672E2C20657889
:1032800065637574656420424B50540052657365E4
:10329000742063617573653A204D656D6F72792096
:1032A0004D616E6167656D656E74204661756C7405
:1032B00000000000496C6C6567616C2061636365A8
:1032C000737320616464726573733A2025347800E7
:1032D000434653522E257000526573657420636116
:1032E0007573653A20427573204661756C740000F1
:1032F00041646472657373206973206F6620616E28
:1033000020696E737472756374696F6E2061667480
:10331000657220627573206661756C74206F6363DB
:1033200075727265642C206E6F74207468652063FA
:10333000617573652E000000434653522E286E6F50
:103340006E6529206C6F6164206F722073746F72D8
:103350006520617420616E20696C6C6567616C200A
:103360006164647265737300414653522E25700088
:1033700052657365742063617573653A2055736196
:103380006765204661756C740000000052657365C6
:10339000742063617573653A204465627567204DDA
:1033A0006F6E69746F72204661756C740000000066
:1033B0002570203D202534780000000080E90108B8
:1033C000C0E90108F8E90108FCE9010840EA010840
:1033D000F8E90108F8E901087CEA0108ACEA01080B
:1033E000DCEA010800EB010828EB010868EB0108A2
:1033F000F8E90108F8E90108A4EB0108D4EB010899
:103400000CEC010848EC010878EC0108F8E9010827
:10341000F8E90108F8E90108F8E90108B0EC010849
:10342000E0EC0108F8E9010820ED010864ED01086D
:10343000A4ED0108E0ED0108E8ED0108F0ED010858
:10344000FCED010808EE010814EE010818EE010871
:103450001CEE010828EE010834EE01083CEE0108DC
:1034600044EE010848EE010850EE010858EE01084C
:1034700060EE010868EE010852300052310052320D
:103480000052330052340052350052360052370099
:10349000523800523900523130005231310052312D
:1034A0003200523133284C5229004D5350005053B2
:1034B000500050430078505352004D5350207573C4
:1034C0006564005053502075736564004353544144
:1034D000434B20626F74746F6D0049435352005325
:1034E0004843535200494E545F41435449564500A6
:1034F0004346535200484653520044465352004DEF
:103500004D41522F424641520041465352005265AE
:103510007430005265743100526574320052657423
:103520003300526574340052657435004461743060
:10353000004461743100000010B56D4C002001F0B2
:10354000CAFF40F68C218842206834BF40F0080052
:1035500020F00800206010BD10B582B0044600F0D5
:103560005FF800A800F056F99DF801009DF80010E2
:10357000FF2902BFFF280420002104B1801CC0B233
:10358000082828BF0720082928BF0721594A13689F
:1035900023F4607343EAC01010601068C00851EA59
:1035A000C000106013BD00B583B002237F225248D3
:1035B000018800A800F02EF9BDF800004FF6FF7159
:1035C00088420EBF4FF4E1600A2190FBF1F0ADF8A4
:1035D000000000F026FFC0071FD500F021F801A869
:1035E00000F018F99DF80500FF2808BF0420811C91
:1035F000C9B20829A8BF0721C1F12F02BDF80030C8
:10360000C0F12F0002EBD272521000FB0320C1F177
:103610002F01B0FBF1F0ADF80000BDF800000EBDC9
:1036200002237F2235480188704770B50646344C26
:10363000256801F093FFFA2190FBF1F070432F30E1
:103640003021B0FBF1F0032809D3616D41F0010195
:1036500061652168491B0903090B8142F9D370BDDB
:1036600010B5040004D110BD4FF47A70FFF7DDFFF0
:103670002046441E80B20028F6D110BD704738B5F0
:103680000C4620B1012819D003282CD02DE01D4D67
:1036900094B11D48844204D0CA210FF27400FFF790
:1036A000B9F901F05BFF4FF47A714843B0FBF4F0D5
:1036B000401EB0F5005F0ED2286014E05CB101F04E
:1036C0004DFF4FF4FA61620801FB0020B0FBF4F0FB
:1036D000B0F5003F01D3202032BD0C4900F00102BB
:1036E0004A6040080860002032BD212032BD000041
:1036F00000BC0040180000409CF201089AF201084A
:1037000038200040100004E020A1070068C80040F5
:103710006D6963726F2D636F6D6D6F6E2D696E7461
:1037200065726E616C2E6300F0B589B004460020AE
:10373000FFF712FF0A237F222548018800A800F026
:1037400069F84FF6FF75BDF80200A84204D1DC21EC
:103750000FF29400FFF75EF900260FF2A40701E0D4
:103760002A4616B94FF47C4203E0022E08BF4EF2FF
:103770003F0200A800F032F8761C052EF0D3012C91
:1037800003D114237F22134802E014237F2212481E
:10379000018803A800F03EF800260FF26C072A46C5
:1037A00008E02A46012E08BF4FF6C07202D0082E4C
:1037B00008BF002203A800F011F8761C0A2EF0D3EF
:1037C000012C04BF0120FFF7C7FE09B0F0BD0000C7
:1037D00098F2010896F2010894F2010830F81610E8
:1037E000F05DFEF73ABE0000616E616C6F67756553
:1037F0002D63656C6C2D626961732E63000000009F
:1038000000100C0D0E000000010203040708090A55
:103810000B0F000030B5044610467F2808BF00207B
:10382000B1F5004F83B01AD108237F2240F6120170
:1038300000A8FFF7EFFF08220FF2380100A802F0FE
:1038400087FC30B908237F2240F2A27100A8FFF75D
:10385000E1FF082200A9204602F030FC37BD044DEC
:10386000294300FB03111A46204602F027FC37BD0E
:1038700000000408FFFFFFFFFFFFFFFF30B50FF25E
:103880005411DFF83C510A6883B001A8002402609B
:1038900001202870002002F07BFC30B1002002F0F3
:1038A00077FC10B12C7049203EBDDFF8180101886B
:1038B00002237F220DF1020000F02EF802237F2266
:1038C000002100A800F028F8204601A9BDF8022038
:1038D00031F81010914208BF0124401C0228F4D393
:1038E000BDF8000024B1B0F57F7F09D100203EBDB6
:1038F000B0F57F7F14BF04200620002129703EBD53
:10390000012002F045FC002002F042FC0028EDD02E
:10391000002028704A203EBD10B5FF2908DCDFF8E2
:10392000A040247844B1BDE81040C9B202F056BFAF
:10393000BDE81040FFF76EBF10BD10B5FF2908DCD1
:10394000DFF87C4024786CB1BDE81040C9B202F0C9
:1039500081BF7F2A08BF0022DFF86C40214302FBB1
:103960000311016010BD2DE9F0410546FF2D0E4603
:10397000174698460FF2540013DCDFF844402178D4
:10398000A1B1617811B1C221FFF744F80120607044
:10399000434632463946E8B203F08EF800206070A4
:1039A00004E0BDE8F041CD21FFF734B8BDE8F08177
:1039B00003490978002918BF03F08DB9704700004A
:1039C000C62F0020A0F2010800000408746F6B6588
:1039D0006E2E6300FE01FD0210B5DFF84445102095
:1039E0002063FEF729FDDFF83C150A6842F001026A
:1039F0000A60FEF727FDDFF830056060206061682F
:103A000089316160012121638A30E060A060E06853
:103A10008930E06002202063DFF810054FF6FF7167
:103A2000016010BDDFF8080545F26401C1601E2188
:103A3000416250210162C821C1618165F021C165E7
:103A400045F690014166882181660621C16644F2EF
:103A5000066101604FF6FF714160DFF8D80400781D
:103A600038B1DFF8D40448F2607101604FF4C151FD
:103A70004160DFF8C804016841F004010160DFF82B
:103A8000C0040021417070472DE9F84F0446DFF86B
:103A9000B4148A2202FB0012121D0092521C5378A9
:103AA000127802EB03221FFA82FB0BF440424FF024
:103AB00000094FF0010A0BF440630425B3F5006FD1
:103AC00008BF082503D0B3F5406F08BF0E251300CB
:103AD00004D05FEA4B635CBFAB1CDDB2DFF8683437
:103AE0001B784B705FEA8B6374D5DFF86064736E8C
:103AF0001B066FD54718009828184FF40068B2F5D8
:103B0000404F07D103F099F95FEA000927D005F18A
:103B100008000EE0B2F5004F21D140780099695CB1
:103B200001EB002080B203F093F9FF280CD1CA46C4
:103B3000A81CC0B241080BF00702032A0FD1002CC9
:103B400014BF7268326815E0DFF80414096831F8B0
:103B500010004FF4FE61084218BFD146E8D10020A2
:103B6000B870F06DC00635D5B06C002C08BF4FF4AE
:103B7000806828E08A42F2D3002C14BF7268326851
:103B80004B1C9A42F8D30099405C0428E7D1BAF163
:103B9000000F02D10020B87004E00020B870B9F125
:103BA000000FDED0F06DC0060AD4B06C0CB94FF433
:103BB000806810EA080F03D0706C40F00100706458
:103BC0000120B87006E010EA080F03D0706C4008BE
:103BD00040007064BDE8F18F2DE9FC4E0446DFF82B
:103BE00064B38A2000FB04B0071DDFF86053002C8B
:103BF0000CBF286868684600C0B2052805D24FF49B
:103C0000F6710FF27830FEF705FF5FFA86F909EBDF
:103C10000700A0F108063078717801EB00201FFA48
:103C200080FA9BF80100307003F0D8F97070C94E2B
:103C3000F06B20F48050F063686ED4B930684005B2
:103C40001CD41AF4E45F0FD100F087FD10B15FEAD5
:103C50004A4009D53878802806D204EB0B008278D8
:103C60004946384603F018FA002C0CBF0120022008
:103C700020E0012CE5D130680005E2D5B648017896
:103C800081B100210170B54801681AF4E45F02D0E7
:103C90000022402004E07878000900F001028F2023
:103CA00003F075FB002C0CBF4FF480604FF40060F4
:103CB0003060D9E72861BDE8F38E2DE9F84F9B4CC1
:103CC0002068216C01EA0005A04EDFF894A2DFF81D
:103CD0008882DFF87092A34F1AE040B14878C0069E
:103CE00005D400229D4801688F2003F050FB280670
:103CF00005D503F0A7FB25F0800580202060E805AE
:103D000006D503F09FFB25F480754FF4807020608A
:103D1000002D68D0280706D50020FFF7B5FE25F056
:103D2000080508202060E80606D50120FFF7ACFE54
:103D300025F010051020206005F06000602803D1F8
:103D4000B06CC0050AD401E0A80605D525F0200511
:103D500020202060002006E0680606D525F04005FA
:103D6000402020600120FFF737FFE80410D525F43C
:103D700080554FF480502060D7F800B0082038609C
:103D80007868000548BF00F033F91FFA8BF03860FF
:103D9000E807ACD56D086D000120206099F800009F
:103DA0000028A4D000F051FC0128A0D198F8000010
:103DB00000289CD09AF80000042898D1F0684008A8
:103DC00000F001008A2101FB0091091D002814BFA9
:103DD0007268326812B92268D204F7D5002814BF7D
:103DE0007068306879E700202060BDE8F18F5E4898
:103DF00000687047F0B589B004460D4600210320E5
:103E000001F00CFB04AE1BE0002701F022FB26F8BA
:103E1000170001F01EFB00A921F817007F1C082FD6
:103E2000F3DB04A803F0C8FB00202080218836F8CB
:103E3000102051402180401C0828F7DB6D1EA41C77
:103E4000EDB2002DE0D101F040FB012009B0F0BD42
:103E50000321022001F0E2BAF8B529244FF6FF75DC
:103E600001F0F7FA281A90FBF4F000F13A063F4F00
:103E70003878B8B90321032001F0D0FA02237F2259
:103E80003B48018800A8FFF7C5FC01F0E2FABDF845
:103E90000010401880B2281A90FBF4F0253078709A
:103EA0000120387001F011FB7878301A40B2F2BD71
:103EB00080B50321022001F0B1FABDE80140CBE753
:103EC00070B500242B48007890B9FFF7F1FF054644
:103ED0001B4E707848B13078401B40B203F07DFB38
:103EE0000B2805DB3570012402E03570012070706D
:103EF000204670BD80B540B11F48002101600948CF
:103F0000016821F08001016001BD00F05BFC00F060
:103F100033FC00F0E5FBBDE8024000F0C9BB000047
:103F20000020004084200040D82C002000A0004049
:103F30004C100040A3220020D01000408020004000
:103F4000DA2F0020D42C0020A222002020200040C4
:103F50009C20002004A00040742300208C2300201B
:103F60007F230020B820004038200040D82F0020B8
:103F70009EF2010881230020541000407068792EC1
:103F80006300000010B584B00A237F220B4801882B
:103F900000A8FFF73FFC4FF6FF74BDF80000A042F9
:103FA00004D14E210FF21800FEF734FD2246BDF871
:103FB00000100020FEF751FA1FBD000098F2010822
:103FC000616E616C6F6775652D66696C7465722EC4
:103FD00063000000DFF8F407417A39B1017A012962
:103FE00004BFC07A042801D1012070470020704727
:103FF000DFF8DC07016821F480510160DFF8CC07AD
:10400000017881B100210170DFF8C8170A685208F1
:1040100052000A600A6842F001020A6000228169C7
:10402000402003F0B4B970470FF63C01405C704784
:10403000010603D54FF67F710840C000704780012C
:10404000B0FBF1F080B2FF2888BFFF20C0F1FF0075
:10405000C0B2704738B5DFF87407817A012901D101
:10406000002032BDDFF87447617871B1E178807B60
:104070004518ADB22079854228BF054603F0C6FA3F
:104080000121A940491E084000E00020617908187C
:10409000C0B232BD2DE9F0470446C00703D540F257
:1040A0006D1100F050FADFF83857286DC00748BF8F
:1040B0008C2000F19180DFF814670020307330709D
:1040C000DFF818773878A0B12078122818BF0C28AC
:1040D0000BD1617801F00701032902BF001910F824
:1040E000020C042804BF01203073A86F40F00100C7
:1040F00002E0A86F40084000A867707BDFF8E48604
:10410000DFF8E496797899B10021B173296D41F017
:1041100004012965012807D14FF6FF70C9F8000096
:104120004FF40070C8F80000FFF794FF82460CE0DF
:10413000296D21F0040129654FF0000A012804D1FE
:1041400000F042FA6420FFF770FAA86F20F0080030
:10415000A8671420E864C5F848A0787830B1707B6F
:10416000002801BFA86C00280120A864B8790028A5
:10417000286D14BF40F0080020F008002865FFF704
:1041800029FF28B1D9F8400040F00800C9F84000E4
:10419000202028626C602C6068687F306860042092
:1041A00028624FF4E064DFF84406046006E0FEF79E
:1041B00027FC18B103F03AFAFEF73EF9DFF83006B3
:1041C000006800F003000328F1D0C8F80040286D13
:1041D00040F0010028650020BDE8F08710B50446D6
:1041E000FFF705FE201A0003000B3338DFF8041632
:1041F00088421AD2DFF8000602210160DFF8FC15C0
:10420000A2B24A60220C02F00F020A60016C41F077
:1042100002010164DFF8E8450020207002E001207F
:1042200003F008FA20780028F9D010BD2DE9F84FE6
:10423000DFF8D0657068716C08401FFA80F8C6F826
:104240000480DFF89C75DFF884556878002840F01A
:10425000D180DFF8B445DFF884955FEAC8704CD5AB
:10426000D7F800A0386C796C41EA0041A96199F84F
:10427000000000283DD09AF80100800639D50120C1
:1042800028704FF480503060306C40F480503064BF
:10429000FFF7A0FE88B31920FFF7C7F9DFF86CB568
:1042A0004FF44040CBF82800DBF800000090E06EAF
:1042B00040F40050E066E06E40F48050E066A8698B
:1042C0009AF800104901B8310818FFF787FFE06E2F
:1042D00080098001E066E06E00A909880843E06675
:1042E0000020CBF8280048F26070E066A88A2060C1
:1042F00003E00022002003F04AF85FEA08600CD5D2
:10430000287830B1002028700022A969402003F0ED
:104310003EF8306C20F4805030645FEA486008D585
:10432000687830B9FFF763FD00220146892003F069
:104330002EF85FEAC8604FD5287ADFF8A8A40128D4
:1043400004BF697B01291ED100F069FD386F40F080
:104350000100386700206873FFF73EFB0A20FFF773
:1043600064F94FF000084FF6FF7070604FF4E060A2
:10437000CAF800000920B8660120B864B86F40F0A0
:104380000800B86718E0A97B491CA97399F80220B6
:10439000C9B2914215D2012808BF00F0D8F8B86F11
:1043A00020F00800B8671420B866FFF753FEB86421
:1043B0004FF40070CAF80000386D40F00100386515
:1043C0000AE0012808BF00F0C2F8FFF710FD002244
:1043D00001468D2002F0DBFF5FEA08700AD5FFF787
:1043E000F9FD38B12068A88201202060706C20F0AF
:1043F000080070645FEA88600AD520203862687817
:1044000030B9FFF7F4FC00220146882002F0BFFF1C
:10441000687820B118F4407F04BF0120A870BDE87F
:10442000F18FDFF8F0030088704770B582B0044662
:10443000FEF7C6F9DFF8E00300210160DFF89453CE
:104440001521E960092101651F21416001210166F3
:10445000DFF8C0030088FEF743F8FFF7E3FA03F044
:1044600019FC00F040F9DFF86463308A00F068F965
:10447000708A00F06DF9FDF7DFFF696841F04001D7
:104480006960FDF7DFFF707900F002F9B07900F0A4
:104490000FF9307900F03EF9DFF8800390F9000061
:1044A000FEF7CDF9F07800F05BF996F9070000F01F
:1044B00063F902237F22DFF86803018800A8FFF771
:1044C000A9F9BDF80000C0054CBF0020BDF80000F0
:1044D000DFF850130870DFF850030078FEF772F928
:1044E00018B140F2963100F02EF8012C05D1286861
:1044F000C00711D500F02BF80EE06CB92868C00792
:104500000AD400F08CFC286840F001002860C82024
:10451000FFF78BF800207073DFF8CC42F1202064A5
:1045200040F2F910E063FFF757FA2868C00707D593
:104530004FF6FF702060DFF8AC024FF4E0610160DD
:1045400000F058FB73BD0FF21030FEF763BA70B580
:10455000DFF8D8522E68DFF87442607B012832D031
:10456000FDF76AFF48F2D00129606A68520509D553
:1045700048F222022A606A68D205F5D529606A6885
:104580005207F1D4B6B22E60DFF860124FF4E06249
:104590000A60DFF87C120A6A520852000A620A684E
:1045A000520852000A600A6842F002020A604A6A2F
:1045B00042F001024A6201216173FDF743FFBDE849
:1045C000704000F0FDBB70BD70B5804C607B48B39F
:1045D00000F025FCFDF730FF0546DFF8540201210D
:1045E00001607D4E306D40F0010030650020607349
:1045F000FFF7F2F920203060306B40F002003063AA
:10460000F06D40F00800F0652846FDF71BFF0A201A
:10461000FFF70BF874484FF6FF71016071484FF4D3
:10462000E061016070BD6948407B704710B5674C20
:10463000607B18B140F28741FFF785FF207A18B1FF
:10464000FFF785FF207A607310BD6048007A7047DD
:1046500080B5022801D3012002BD5C490872487B65
:10466000012804D1087A20B9FFF7AEFF01E0FFF777
:10467000DDFF002002BD6F480068800200149A38F8
:104680006FF07F0201B29142B8BF104640B270474E
:1046900010B50446FDF7D0FE6749002C0A6814BF28
:1046A00042F0120222F012020A6048494C7140E0C6
:1046B00038B50446FDF7C0FE054600F008FC40B9D9
:1046C0005D48002C016814BF41F0800121F0800199
:1046D00001603E4884712846BDE83240FDF7B2BE15
:1046E0003A4880797047554855494A780B7813EB1A
:1046F00002220260CA788B7813EB022242604A7968
:104700000B7913EB02228260CA79897911EB0221BD
:10471000C160704710B50446FDF78EFE4649002C77
:104720000A6814BF42F0200222F020020A602749E2
:104730000C71BDE81040FDF785BE2448008A704723
:10474000224908823F49086070472048408A7047E4
:104750001E4948823C49086070473C4800787047D1
:104760001C4900280A6814BF42F0020222F002022B
:104770000A601649C870704738B504467F2C0ED1C0
:1047800002237F223248018800A8FFF743F8BDF8D2
:104790000000C00554BFBDF800406FF04A04FDF7AB
:1047A0004BFE054600F093FB30B964B204F19A0069
:1047B0008005000C274908600448C4712846FDF7AD
:1047C00041FE31BD014890F9070070477423002075
:1047D00040A0004080200040302000400023002006
:1047E0001020004000E100E004A0004080E100E073
:1047F000A8200040CDFF070008A000404020004056
:10480000E22F002000A0004064100040E4100040AF
:1048100060200040B82200205C100040AC22002044
:10482000A6F20108AA220020A22200201C100040AB
:10483000281000400C1000408420004098200040C8
:10484000B02C0020942000409020004090230020B5
:10485000A8F20108541000407068792D636F6D6DE7
:104860006F6E2E6300000000FEFEF7F7C8C801005F
:10487000DFF8F8035121016070472DE9F04105464A
:1048800000F064FEFA2190FBF1F64FF4F070B0FBFB
:10489000F6F73FB21E2D01DBE81B04D5A8B2BDE838
:1048A000F041FEF7C2BEFDF7C7FD804603F0FEF9FA
:1048B000DFF8BC0307210160002141608160DFF85F
:1048C000B4134FF000720A60E91B09B27143C91CAE
:1048D0008908491E416000F0AEF8DFF890733C682B
:1048E000386820F04000386003F0E2F93C602E6048
:1048F00003F0E2F903F0E8F94046BDE8F041FDF7C6
:10490000A1BD38B5054600F021FEFA2190FBF1F477
:104910004FF4F070B0FBF4F02D1A2DB21E2D04DA16
:104920008A210FF29430FEF775F8DFF8440307216F
:104930000160002141608160DFF838134FF00072A0
:104940000A6005FB04F1C91C8908491E416031BD9C
:10495000DFF82403B0F9000000B970472DE9F041F9
:104960000024DFF818532C60DFF8146334604FF430
:10497000A040706041F29A084046FFF77EFF6F68E2
:1049800000F0ECFD00010A21B0FBF1F000F5C87069
:10499000C01B00B24FF4487190FBF1F000F303002C
:1049A00030604046FFF769FF08274046FFF765FF84
:1049B000686804197F1EF8D100F0D0FD4FF4FA4169
:1049C0004843211DC908B0FBF1F080B27060BDE81A
:1049D000F081DFF8A402B0F9000000B9704738B5E3
:1049E0006FF00F04DFF89C520120A8602C6080203B
:1049F000FFF743FFE868FF2802D8641C102CF5DBA2
:104A000031BD70B5DFF88002016841F0010101603D
:104A100001214160FDF710FD044600F00CF8DFF8BD
:104A20004C02512101602E6003F046F92046BDE89A
:104A30007040FDF707BDDFF854522E682868400823
:104A40004000286003F038B900207047F8B50146EF
:104A500040F2DC500446884AB2F900708D4D8C4E0D
:104A6000012F15DA022030812860A86900F00300C8
:104A7000032857D0002F03D5A86940F00200A86191
:104A80000846FFF7E1FF04001BD1002F4AD547E09D
:104A900031894FF6FF77B9421CD102237F227E482D
:104AA000018806F10800FEF7B5FE3089B84204BF60
:104AB00002203081A869800703D4A86940F0020071
:104AC000A861012070703089286020B2FFF719FFBB
:104AD0002046F2BDAA699207EFD57278002AF8D174
:104AE000A86810F00100AA6803D10F2909D2491C57
:104AF00006E0920705D532791AB1032901D3491E80
:104B000031813071308902283CBF02203081286811
:104B100031898842D5D1A86900F00300032801D06B
:104B2000FFF76FFF0020F2BD2DE9F047804600241B
:104B30004E4D564EFDF780FC814603F0B7F84046D7
:104B4000FFF784FF08B901240AE000F04CF8D5F81B
:104B500000A000F0ABF8C5F800A0376003F0ACF897
:104B600003F0B2F84846FDF76DFC002CE2D0BDE83A
:104B7000F0870220D8E710B53D48002141608160F0
:104B8000016821F0020101603A484FF000710160B4
:104B90003F4C607848B1002060700620FFF754FF5A
:104BA0003548B0F9000001281CDBA078012814D199
:104BB0003A48012101603A490968C90748BF032002
:104BC0000FD40221A170016C41F00101016435484C
:104BD000042101603448016010BDA078042801D18F
:104BE0000520A07010BD3768306840084000306074
:104BF00003F062B82DE9F843254C2078002830D026
:104C0000E07800282DD11C48B0F90000012820DAF6
:104C100040F2CD310FF2A000FDF7FCFE19E0FDF7E8
:104C20000BFC804603F042F8A07805280CD0174E04
:104C3000FFF7D9FF0D4DD5F8009000F037F8C5F813
:104C40000090376003F038F803F03EF84046FDF777
:104C5000F9FBA0780528E2D1002060700520FFF75D
:104C600063FF00202070BDE8F18300000080004059
:104C700010E000E004ED00E0ACF20108104000405C
:104C80000C000040084000401C40004094ED00E053
:104C90004823002004400040A4F2010818A000406E
:104CA0000C40004080E200E000E100E0286820F0D5
:104CB0004000286002F0FCBF636C6F636B732E636F
:104CC0000000000038B50120FFF7C0FE0020FEF70D
:104CD00043FCDFF83042206840F00800206000F01C
:104CE00044FCFEF729FC00F020F88D78DFF818323C
:104CF000DD608D890560CD89456000F01EF8206873
:104D000020F010002060FDF7A1FA03F0F6F803F0A0
:104D100033F9FFF72EFF00F026FCBDE8314000F02C
:104D200042BC40F2016001F0ADB8784978480A7899
:104D3000C2604B78774AD3607047088A1060488A0F
:104D40005060888A1860C88A586039E0F0B50B68EE
:104D50006E4C0F25646A960005FA06F6344212D0AE
:104D6000002606EB820724FA07F7FF0708D5B700ED
:104D700005FA07F730F812C0BB4307EA0C073B43BC
:104D8000761C042EEDDB0B60F0BDF0B50B685F4CBC
:104D9000FF25646AD600B5402C420FD0002505EBF4
:104DA000C20624FA06F6F60705D50126AE40175CC2
:104DB000B3433E4033436D1C082DF0DB0B60F0BD68
:104DC00010B5524C606A002825D000225249201D9F
:104DD000FFF7DBFF01225149201DFFF7D6FF02221A
:104DE0004F49201DFFF7D1FF0022494900F014F878
:104DF00001224C4900F010F80222464900F00CF85C
:104E00000322494900F008F804223F4900F004F861
:104E100004F1180032E010BD04F1180096E710B557
:104E20003A4C606A002825D000223B492046FFF713
:104E3000ACFF012239492046FFF7A7FF022238497B
:104E40002046FFF7A2FF0022314900F014F80122AA
:104E5000344900F010F802222E4900F00CF8032229
:104E6000314900F008F80422274900F004F804F161
:104E70000C0003E010BD04F10C0067E7BDE8104032
:104E800005222A4962E70320FEF792BD10B501F022
:104E9000FFF8044601F000F9C0B208B9012C07D1AF
:104EA000072C11D8DFE804F004100608080A0C0EDD
:104EB000002010BD092010BD022010BD032010BD30
:104EC0000B2010BD062010BD44F0800010BD0F481F
:104ED000007A70470D48807A704716484FF40041B9
:104EE000C160082101600949887A50B11048006802
:104EF0000B7A400900F0010083421CBF0872FEF7E4
:104F0000F9BF704700BC004000B8004004210020F9
:104F100000B0004000B400400CB000400CB40040B1
:104F20000CB8004004B0004004B4004004B8004095
:104F300008B8004014A800402A490A689209920162
:104F40000A600A681043086027484FF40041016076
:104F5000002101606420FEF768BB2DE9F047804620
:104F6000224DD5F80090286840F4004028601D4F7D
:104F7000386820F4805038601D4C207868B11D4896
:104F8000A178627800EB820212F82A2C891A00EBD1
:104F9000880010F82A0C461802E020260120207014
:104FA000B0B2FFF7C9FF0FF2500A02E0B0B2FFF74C
:104FB000C3FF386B042805D0386B400754BF761EFA
:104FC000761CF3E7F86A38B184F80180A6701FFAFE
:104FD00089F02860BDE8F08740F221115046FDF7C6
:104FE00019FDE6E7D0100040181000401C100040EA
:104FF000DF2F002070290008616E616C6F67756596
:105000002D76636F2E6300004FF4FE52810189B24A
:105010000C20FDF722BA2DE9F84F8A4CA568ADB2F5
:1050200000264FF00A080127B94620681FFA80FAC7
:1050300000F04BFAB0202063DFF80CB2DBF8000080
:105040000120FEF7F2FAB9F1000F11D0AAF1030026
:10505000874202DAF81C87B213E057460AF500408F
:1050600020600621092000F0D9F94FF000090BE07B
:10507000DBF80000000707D5042FA6BFF81E87B293
:10508000002707F5004020601A2EA8BF6FF009081E
:1050900004DA16F1190FB8BF4FF00A08464436B2C9
:1050A0007019A060DBF800000007C9D5012FC7DA2E
:1050B000B9F1000FC4D1A560C4F800A00820CBF856
:1050C00000006248006880B2BDE8F28F10B5604908
:1050D0004FF0FF325A4B1C7864B1002819BF4A6068
:1050E0005C48486041F211100860D9889888BDE892
:1050F000104090E7002819BF4A600A6048600860C5
:1051000000F0E3F906210920BDE8104000F0D7B90E
:1051100038B50120FFF7DAFF04460020FFF7D6FF7D
:1051200005460120FFF7D2FF4042001B00EB45007F
:1051300000B232BD2DE9F04F83B0474CA06AADF804
:1051400004002068ADF80200444D2868ADF8000066
:105150003B4E307858B14FF6FF7200210820FDF722
:1051600075F98046C022C0210820FDF776F93C4F32
:105170003C48007810B148F260703860708840F4A4
:10518000404040F04C00F8630220A0620120206003
:1051900040F24C40FEF749FA0120E8602860002008
:1051A000B0804020F080307800B12020FFF72CFF45
:1051B000FFF7AEFF83464020B0807F20F080FFF7EE
:1051C00023FFFFF7A5FF00F04FF8FE2101FB00FAD7
:1051D000ABEB090B307850B1484602F0FEF900F015
:1051E00043F880B20AEB8911B1FBF0F004E000F063
:1051F0003CF880B2BAFBF0F080B2401C4FEAC039F4
:10520000BDF8000028600020E86002202060BDF8A2
:1052100002002060BDF80400A0620020F86330782E
:1052200030B14FF6FF721FFA88F10820FDF715F92B
:1052300040F24C40FEF7F9F94FEA1940BDE8FE8F05
:105240006A230020C010004018A0004000700040F9
:1052500038100040EEEEFFFF6020004028100040B4
:10526000D0100040A32200208146584602F0B5B974
:105270003F22410089B201E03F2201460220FDF7B2
:10528000ECB82DE9F04F93B0564CE06CADF8080047
:105290002068ADF80600544DE86AADF804004FF6FA
:1052A000FF7200210120FDF7D1F8ADF802004FF6A2
:1052B000FF7200210B20FDF7C9F8ADF800004FF494
:1052C0000040206000202861686148F2020000F080
:1052D0008DF84CF68C30E06448F2F000E8624FF450
:1052E000805211460120FDF7B8F84FF6FF720021F9
:1052F0000B20FDF7B2F80621062000F0E0F880460A
:1053000000F087F883464CF69C30E0640020FFF7FD
:10531000AFFF0621084600F081F80026B0B2FFF783
:10532000A7FF0621062000F079F800F092F803A903
:1053300021F81600761C202EF0DB00F08AF81020F1
:10534000FFF796FF00F065F8A0EB0B00BDF82C10FE
:10535000A1EB0801404301FB01094FF0100A11279E
:1053600000F050F800F055F800F045F805DB8146F4
:105370001FFA87FA7F1C202FF2DB504610280ED12F
:105380000F2700F03FF800F044F800F034F806DB97
:1053900081461FFA87FA781E07B2002FF1D5BDF8B3
:1053A0000800E064BDF806002060BDF80400E86273
:1053B0004FF6FF72BDF802100120FDF74EF84FF6D0
:1053C000FF72BDF800100B20FDF747F8012028619F
:1053D000002000F00BF84FEA4A00C0B213B0BDE85D
:1053E000F08F0000C010004018100040286040F20C
:1053F0004C40FEF71AB9A0EB0B00404306FB060039
:105400004845704703A830F81700A0EB0806B8B26B
:105410002EE70621072000F052B8000070B50546BF
:105420000E4602F043FC3D4C206C20F00800206446
:1054300002F04AFCFDF700F8310341EAC51141F0E2
:105440000101374A116008212160BDE87040FCF776
:10545000F9BF2DE9F041334C334D304E25E002F0D9
:1054600025FC324804210160306C40F008003064B3
:105470002F68286840084000286002F01DFCD4F81E
:105480000080206820F04000206002F011FCC4F889
:1054900000802F6002F010FC306C20F008003064B7
:1054A00023480421016002F00FFC30680007D6D5C4
:1054B000082030601F48006880B2BDE8F08180B5E8
:1054C000FFF7ACFFBDE80140C3E715480168490894
:1054D000490001607047F8B50746FEF764F80446D6
:1054E00039460320FFF7EBFF054639460120FFF759
:1054F000E6FF064639460020FFF7E1FF08490A6843
:10550000520852000A60401B0004711BB0FBF1F00E
:1055100060434000000CF2BD0000000018A00040F5
:10552000047000400080004094ED00E000E100E0E5
:1055300080E200E0007000402E480068C00702D4FE
:1055400042F6E060704745F6C050704780B5FFF7FF
:10555000F3FF2949096801B9400802BD80B5FFF78A
:10556000EBFF400802BDFFF734BA244801218160F7
:105570004EF6BE21416001210160704720490120A3
:1055800008607047A52805D11C484DF6AD61416003
:1055900002210160704719480068C00701D5012049
:1055A00070470020704780B51649174A10200860E0
:1055B00016491748007858B103280CBF0020012075
:1055C000106040F6510008600020FEF749F806E040
:1055D000022010604FF400600860FFF7B9F907215E
:1055E0000C4801600021016410200B490860002074
:1055F00002BD00001C400040204000400060004010
:105600000860004080E100E0080000400C600040BD
:10561000BF2F002014A0004000E100E070B5DFF8CB
:105620009C0303F06CF80446FF2C16D0DFF89003BF
:105630000068205C851EE9B2204602F0F5FF0646B0
:10564000E9B2204602F0FAFE2146304600F055F954
:105650002046BDE8704002F0A2BD70BD03460A4678
:10566000A2A10420FFE70CB480B502AA00F083F8E1
:1056700001BC5DF80CFB00B587B0FFF707FC00210B
:105680000591049153210391002102910191DFF8CA
:1056900034130091002302460FF244310120FFF73A
:1056A000E2FFC94881790391018802914179019112
:1056B00001790091C37882780FF230314220FFF7F0
:1056C000D2FF07B000BD2DE9F041044615468E0912
:1056D000B6010FF228370FF21C3802E0FFF7C3FFC4
:1056E0004036B54208D3312C3346324607BF4146D7
:1056F000312039462046F1E7BDE8F081B349087012
:1057000070470EB430B50446B048007820B303F0BB
:1057100062F808B300F092FB012002F0D4FC0546C9
:10572000FF2D19D002F0C4FC022103F05AF8014603
:10573000284602F0C3FC03AB22462946A44800F0E9
:105740007CF930B1284603F0C5F810B1042000F010
:105750000BF8284602F023FD30BC5DF810FB0C224C
:1057600000219C4800F0EDBC9A4931F81020521CF1
:1057700021F8102070472DE9F04F85B005460C4602
:10578000904600269148007890B9002D18BF012D51
:105790000ED0042D18BF052D0AD0312D18BF332D82
:1057A00006D0372D1EBF3B2D4FF6FF7085421FD10F
:1057B00003F011F8E0B1012002F085FC8246BAF155
:1057C000FF0F15D0002102F079FC294601A803F053
:1057D00008F805469CB900F08BF830B9504603F044
:1057E00079F810B10420FFF7BFFF504602F0D7FC54
:1057F00005B0BDE8F08F8DF804200125641C2078E9
:105800000028E8D0A0F13001C9B20A2905D20A2146
:1058100001FB0600A0F13006F0E700F069F800286F
:10582000E3D10025227801A8422A0ED0442A1AD0BA
:10583000462A25D0572A0DD0622A3AD0662A2AD085
:105840006C2A25D0702A26D0D5E758F8040B8DF89D
:105850000400D2E758F8041B8DF804100904090E5F
:1058600041700225CAE758F8041B8DF804100A0A93
:1058700042700A0C8270080E8DF807000425BDE7FF
:1058800058F8041B504602F099FD0028B6D0ACE74A
:1058900058F8046BB2E7012358F8041B662A08BFC6
:1058A0000223F2B2504602F069FD002808BF00262C
:1058B000ECE7434800681AF8009058F8041BCFB290
:1058C000FF2F9BD017F800B00BEB0901C9B250466F
:1058D00002F0B4FD002888D1CDF800B000233A468C
:1058E0004946504602F0C4FE88E7000057460000D3
:1058F0002A4601A9504602F05FBDF0B585B00546C5
:105900000C4612280AD0302818BF362841D03A2831
:105910001AD04FF6FE71884235D04DE02848006815
:10592000255C2D4E08E0204602F0C2FB394602F00D
:105930005CFA203D3068245CFF2C3DD0EDB2212D77
:105940002CBF20272F46EEE703F09FF80446FEF712
:10595000FCFE0546FCF76FFF0646FCF769FF0746AD
:10596000FEF7EBFE02460494164803901B480068BD
:1059700040880290019500963B460FF288013B203B
:10598000FFF771FE18E0204605B0BDE8F04003F0D7
:10599000F0B80221204602F047FE064600212046CC
:1059A00002F042FE0146302D0CBF31203720324636
:1059B00005B0BDE8F04086E605B0F0BD102300203C
:1059C00080200020B02C002078F20108D62F002083
:1059D000B9830008C02C002088200020902C0020D3
:1059E00042423870424242425742420042424242A0
:1059F00057420000573634660000000057363470B6
:105A00000000000057424257573870420000000023
:105A100070B51346101802E0A4192C705B1EDBB29F
:105A20004BB101F00F060909451E0A2E2846B4BFE6
:105A300030243724F0E7101870BD2DE9F04F87B0FF
:105A4000804601A8894614469B4601AD00278DF883
:105A500000001BE05BF804AB04224FEA1A41284621
:105A6000FFF7D6FF04221FFA8AF1FFF7D1FF0546A0
:105A700005A8854209D39DF800002E1A00F096F87B
:105A8000002831D1F719FFB201AD641C9DF8000068
:105A90002E1A2078002807D0252802D005F8010BFF
:105AA000E6E714F8010F002876D02528F6D0322832
:105AB00018BF34285FD0582857D063280CD06428EA
:105AC00018BF6C2825D0702818BF732807D07528F8
:105AD0001FD0782849D0CBE75BF8040BDEE75BF8F2
:105AE00004AB00F063F800285CD1F719FFB201ADF8
:105AF000002600E0761CF6B216F80A000028F9D15C
:105B0000324651464846C04700284BD1F719FFB2EC
:105B1000AEE75BF8040B0021002803D52D21297086
:105B200040420121002300220FF2343656F8226051
:105B30004FF0000C02E0801B0CF1010CB042FAD2D5
:105B400043EA0C06F6B2002E05D0C9B20CF13003C0
:105B50004B55491C0123521C092AE5DBC9B23030E0
:105B60004855481CC0B2451982E75BF8041B022265
:105B7000C9B2284679E714F8010F78281CBF5828C5
:105B8000641EF1D114F8010C32287FF463AF5BF886
:105B9000041B042289B2ECE700F008F810B9F019F0
:105BA000C0B200E0002007B0BDE8F08FF2B201A95A
:105BB000484640472DE9F04E040018BF022C8946A4
:105BC00092469B462BD0032C18BF042C27D0042CC4
:105BD00025DA0FF27420205C012820D1DFF854521E
:105BE00005EB8406F768FCF727FC0021B9803980B3
:105BF0007980FCF727FCF669FCF71EFC0021B180D8
:105C0000318071806155FCF71DFC02F076F95B462E
:105C1000524649462046BDE8F04E02F065B82120C4
:105C2000BDE8F08E10B5044602F049F9DFF8040231
:105C300000EB8400C069808810BD2DE9F0418846E2
:105C40000446DFF8F05105EB8401CE690FF2F8113C
:105C5000615C09B9012034E0615D05EB440761B185
:105C6000B9887288914208D1FCF7E6FB665D002195
:105C70006155FCF7E7FB304623E002F020F9B088DD
:105C8000F0B1FCF7D9FB71880FF2C8128919897934
:105C900088F800104FF6FF78718832F8142000F071
:105CA0001EF87180B1884144B180FCF7CBFB605D88
:105CB00020B1B888404504BF3088B880002000E09B
:105CC0002620BDE8F08180880FF2741333F811109C
:105CD000891A884201DA0120704700207047491C68
:105CE00091FBF2F302FB1311704751A111E010B5C3
:105CF0000FF25413C35C0024012B08D113460A464B
:105D000001460FF23D00FFF798FE00B9012420463E
:105D100010BD0CB480B502AAFFF7E9FF02BC5DF824
:105D20000CFB0CB438B5044604AAFFF7E0FF0546A7
:105D30002046FFF7DAFF284632BC5DF80CFB000076
:105D40002DE9F84F804647460FF2FC00385C0128E9
:105D50008B46164639D137480FF200190FF2EC0A7C
:105D600000EB87000025C46814E0FCF765FBA18800
:105D700001B9012522881BF8011B12199171218894
:105D80003AF81720FFF7ABFF2180A188491CA180BA
:105D9000FCF758FB3046461EC0B288B1002241468F
:105DA0002046FFF790FF0028DFD11DB1404601F0EB
:105DB000D8FF002517F809000028EFD1222005E0C0
:105DC000404601F0CEFF002000E00120BDE8F28F48
:105DD00080B50FF27402825C012A06D1154A02EBEB
:105DE0008001C9688A88002AFCD101F0F3FF0020F5
:105DF00002BD0CB438B504460D4601F0CBFF04AB30
:105E00002A4621460C48FFF718FE0FF23C01615C60
:105E1000012908D1074901EB8400C068808810B1CE
:105E2000204601F09EFF32BC00205DF80CFB000014
:105E30000D0A0000C4210020A57D00087047000065
:105E40000000800000000000000100000000800051
:105E500000000000000080000000000000010000C1
:105E600000CA9A3B00E1F5058096980040420F0079
:105E7000A086010010270000E80300006400000075
:105E80000A00000010B50446FCF7D6FA504830214D
:105E90000160504801605048016050481021016085
:105EA000200A08BF24024E4804804FF20F014180AF
:105EB000BFF35F8F4B480021016041604A484B4966
:105EC000016010BD10B54A4C2068C0060BD544488F
:105ED00048490A68C0F894204968C0F8901040F614
:105EE0000620FFF7CFFF2068C00708D542480321EE
:105EF0000170206C40084000206401202060206870
:105F0000000703D5206C20F00800206410BD80B588
:105F1000002000F009F830B9F5210FF2F000BDE8DB
:105F20000440FCF777BD01BD2DE9FC44334C4142F0
:105F300022688D1815F01F0108D0002802D44842AD
:105F4000451903E04842401900F12005A5F120065B
:105F50002B48A84224BF2B48864203D3EFF3088086
:105F6000854201D300202DE0FCF766FA82462648E0
:105F7000006810F0010718BF02F066FE20680146B5
:105F80008D4206D2A84224BFCD2100F80119F9D2D2
:105F900006E02038002201E000F8012B8842FBD304
:105FA0002560304602F055FEE22001E006F8010BC4
:105FB000AE42FBD30FB102F02FFE5046FCF742FA7F
:105FC00020682038BDE8F6840C480068704700005F
:105FD0003020004030C8004030C0004010D00040A9
:105FE000000000201C4000400CED00E00400FA0519
:105FF00018A00040305000404A2300200C2300200D
:10600000B8160020680D002094ED00E06D69637201
:106010006F2D696E7465726E616C2E6300000000F6
:10602000002202F033BE000030B51D480168002098
:10603000002201249440CBB2234213D00FF26C0013
:10604000184C30F8120006284CF23C324FF20F0385
:1060500012D1608898420BD12188080A0B2807DAF0
:10606000084607E0521C082AE3D30F49088030BDD8
:106070004FF4C0606280F8E740F20725A84201BFF4
:10608000618899422188A942EFD162800846ECE7F5
:1060900005480088000A70470348008870470000E0
:1060A0002C000040000000201E24002001040204F7
:1060B000010301050600070203090109814233D2E9
:1060C00010185118401E491E10E011F8013900F84F
:1060D0000139121F11F8013900F8013911F801399D
:1060E00000F8013911F8013900F8013992B2042A97
:1060F000EBDA92B2002A1EBF11F8013900F801391B
:10610000521EF6D1704711F8013B00F8013B121FF7
:1061100011F8013B00F8013B11F8013B00F8013B8D
:1061200011F8013B00F8013B92B2042AEBDA92B27B
:10613000002A1EBF11F8013B00F8013B521EF6D1A8
:106140007047130003D00A46194602F0B9BD7047E4
:1061500010B500E0521E92B21AB100F00FF8F9D05B
:1061600012E0002010BD10B500E0521E92B21AB12C
:1061700000F004F8F9D007E0002010BD10F8013B52
:1061800011F8014BA3427047181B40B210BD00002C
:106190002DE9F9478CB02622FF2101A8FFF7D1FF96
:1061A000DFF8C490C822FF214846FFF7CAFF4C25FC
:1061B0004FF0260A00270FF2C4082C48385C411C17
:1061C00001EBD1714C102A497E5CFF2803D16F216D
:1061D0004046FCF71FFC7F2E03DB70214046FCF796
:1061E00019FC2448385C00B11934601C00FB06F42B
:1061F000214830F817100FF29400A2B2FFF781FA8D
:106200006519012E1CBF29F817A0B2447F1C262F48
:10621000D3DB40F21C44A54234BF12A30FF2C003EB
:10622000262000902246A9B20FF27C00FFF769FAFF
:10623000A5420ED3FFF7A2F9FCF7FEF823462A4643
:106240000FF2A8010120FFF7D4FD9B214046FCF787
:10625000E1FB9DF8300001A900F025F90EB0BDE882
:10626000F08700006F6B00001C2B002038EF010846
:1062700060EF010810EF0108C4EE010873696D2D8D
:10628000656570726F6D2E6300000000437265617A
:10629000746F723A2030782532582C20576F726410
:1062A000733A2025640A000053696D4545206461F6
:1062B00074613A20256420776F726473206F6620C2
:1062C0002564206D617820282570292C20746F6B3F
:1062D000656E436F756E743A2025640A00000000F5
:1062E000544F4F204C415247450000000D0A455283
:1062F000524F523A2053696D4545206461746120C4
:10630000746F6F206C617267652E2020436F6D7013
:10631000696C696E67207769746820256420776FDF
:1063200072647320636F6E73756D65642E20204DEB
:10633000617820616C6C6F776564206973202564D7
:106340002E0D0A0010B5DFF8843ADFF8844A24885D
:10635000001B03EB4000002304E030F8134021F859
:1063600013405B1C9342F8DB002010BD2DE9F04187
:1063700082B004460D4616460027DFF8508A01E039
:10638000B81CC7B2B7421ADA78194078795D01EBC8
:106390000020ADF80000012200A907EBD77004EB44
:1063A0006000DFF82C3A1B88C01A08EB400002F0AE
:1063B00006FD0028E4D002F0EAFB002000E0012006
:1063C000BDE8F681F8B504460E46154600270DE0F7
:1063D00000F019F8761C04EB4700BDF80010090A1C
:1063E0004170BDF8000004F817007F1CB7EB550F93
:1063F000EEDBE80706D500F006F82819BDF8001016
:1064000000F8011CF1BD012200A9B0B29AE7DFF843
:10641000BC19DFF8BC291288801A01EB4001022068
:1064200002F094BCDFF8AC19415CDFF8AC29825C67
:10643000DFF8A839C05C10B102F5997292B241EA56
:10644000C21080B2704710B5DFF8943903EB4002F8
:10645000DFF88049005D012801D1104610BD108889
:10646000081803EB400010BD38B50C46DFF874196E
:106470000D782A462146FFF765FF208800281CBFBB
:106480004FF6FF7188420AD0012000E0401CC0B2E4
:10649000A84206D234F8101022889142F6D000208B
:1064A00032BD012032BD2DE9F04F9DB08946044632
:1064B000DFF83479002038707880DFF83009008800
:1064C000ADF8000008A9FFF7CFFF824601207870E1
:1064D000DFF81C090588DFF81C09B0F80080BDF85A
:1064E0000060DFF8EC080088ADF8040083460AA9D4
:1064F000FFF7BAFFD0B1BAF1000F43D04FF6FE70EC
:10650000BDF82010814204D1BDF82800012806D131
:106510000FE0012904BFBDF82810814232D0BDF838
:106520002000BDF8281088422CD202E0BAF1000FFA
:1065300027D0002078703046CDF808B00795CDF808
:106540001480DFF8A01809788DF806100818ADF847
:10655000100000F06EFABDF81000FFF7F3FEDFF850
:10656000980800880690BDF80200000B4FF6FF78EF
:106570009DF80610884218BF0F2800D114B30025DB
:1065800015E0012478780128D5D158460296CDF837
:106590001C800595D5E7069805FB00F4BDF80400BE
:1065A00000F038FCBDF8000000F034FC6D1C9DF8D4
:1065B00006008542EFDB012038704D2002F0E7FA3B
:1065C0000025FBE0BDF8105000F033FA2846FFF735
:1065D000B9FE6E1CBDF80200C043C0B2ADF80200A7
:1065E000DFF818080588BDF80200A84218BF01248A
