S0120000656D333535352D726762772E7333375F
S31508004000106D0020E9520208495102084951020878
S31508004010A70A0A0100410008041F03AC1068100132
S315080040200000000000000000000000000000000082
S315080040300000000000000000000000000000000072
S315080040400000000000000000FFFFFFFFFFFFFFFF6A
S31508004050FFFFFFFF007007080000000000000000D7
S31508004060FFFFFFFFFFFFFFFFFF000000000000004B
S315080040700000000000000000000000000000000032
S31508004080F07F002000000000EC7F0020EC7F00207D
S31508004090106D0020C7770208FC530208B0630020A1
S311080040A0E0100020000008080080002046
S31508004100106D0020E95202088D5302088D530208EB
S315080041108D5302088D5302088D53020800000000D3
S315080041200000000000000000000000009153020893
S315080041308D530208000000009153020853600008DE
S3150800414091530208915302089553020891530208A5
S31508004150995302089D530208915302089153020885
S31508004160A1530208A5530208A9530208AD53020831
S3150800417091530208B1530208B55302089153020835
S31508004180B953020891530208915302089153020841
S31508004190F8B5304C304D207829684A0729D50328C8
S315080041A027D22E4B2E4A198822F8101001212D4AA3
S315080041B0137801FA00F0184310702B4A2B4B10782D
S315080041C0002811D0002620FA06F7FF0703D4761C2C
S315080041D0032EF8D30DE0B1402670414011702448F3
S315080041E030F81610196004E01860C046C04603216E
S315080041F021704FF6FF702860BFF35F8FF1BD1A4933
S31508004200144B0020087003221B491A7008700522F7
S315080042100F4B14491A8008700022144802600023C4
S3150800422043604FF4004181601022C26001220B49AD
S31508004230416182610321C1600422074802644FF686
S31508004240FF7101604FF400600A4A106000F054B82C
S315080042503E7B00207D7F002010A800402A7B00209E
S31508004260F07000207E7F00207C7F002004E0004064
S31508004270F870002000E100E07F7F0020DFF80035BD
S3150800428033F81000024022FA01F07047F0B50FF239
S31508004290B054DFF8F03434F81050DFF8E4449D6089
S315080042A0114034F8105095432943D96002261E6000
S315080042B000271F6024F8101058680028FCD1F0BDAC
S315080042C0DFF8C434DFF8C4141878DFF8C42408B15A
S315080042D050780FE0125612F1090F02DA30230B60FC
S315080042E07047C86D38B1C86D40F24A32B2FBF0F07B
S315080042F080B2C01E08607047E0B5DFF898040188F0
S315080043000A2300F068F8BDF806104FF6FF720D2074
S31508004310FFF7BCFF07BDF8B5B0F5004F0546DFF857
S3150800432070641AD1DFF870442188022300F053F82C
S31508004330BDF80000000AFF2801D0010000D11820AE
S315080043407070BDF800000006C00E10281CBF001DC6
S3150800435000F0A4F9BDF80050ED43DFF82C4460786E
S3150800436010B10021617006E0B189A8B24140CA07C0
S3150800437044BF01206070A8B2C0F34007DFF81C04F0
S31508004380B58105F00106016841F400410160314636
S315080043900FF2D14010F8111009074FF44052090CDA
S315080043A00220FFF773FF304600F05EFA2D06402222
S315080043B0B9010B20AD0EFFF769FF05F001053D4376
S315080043C02570FFF77DFF607818B1FFF795FF00208D
S315080043D060700020F2BD7F22684600F0C7BA00F080
S315080043E0B9BE2DE9F84FDFF8BC53287886B0A0F19E
S315080043F00B0104900391CAB204230E21684600F00B
S315080044006FFF9DF90000DFF8A0130A788DF8080001
S31508004410012A9DF801008DF807009DF902008DF824
S3150800442006009DF803008DF8050004D16878441E3F
S31508004430A441E40F00E0012400F090FE80469DF9B7
S315080044400200039EDFF8589308F10A07A8F10A0B41
S31508004450B842B6BF83454FF0010A4FF0000A012063
S3150800446000FA06F69DF80100010603D4B9F8022001
S31508004470324201D04FF0010A00F09AFF9DF803007E
S31508004480010609D4B9F80420324205D19DF9000085
S31508004490B842B8BF834502DB4FF0010B01E04FF08D
S315080044A0000B4AEA04005BEA000000F09F80BF4860
S315080044B0BF4F0168BF48490801F001018DF8041093
S315080044C0016801F4E06105914FF4E060BA490860BB
S315080044D0002001F085FB01F0C4FD9CB1687848B165
S315080044E000F08FF84908490001600120107001F0BA
S315080044F0A0FE07E0386840F400503860396821F4B7
S3150800450080513960A848017801290FD1002C1ABFBB
S315080045106878002801F0BEFF00F073F841F0010149
S31508004520016000201070642001F083FE2CB16878C9
S3150800453018B9049880B202F03AF8687838B1396840
S3150800454021F480513960386840F400503860F643E9
S31508004550BAF1000F0AD002F019F9B9F802108DF86D
S31508004560010031408DF80280A9F80210BBF1000F56
S315080045700AD002F0B8F9B9F804108DF803000E4015
S315080045808DF80080A9F804609DF900009DF90810CF
S31508004590884202BF9DF801009DF8071088420BD19A
S315080045A09DF902009DF90610884202BF9DF8030096
S315080045B09DF80510884206D0039904236A46C9B2B5
S315080045C00E2000F0B9FE05987A49086000F0F4F963
S315080045D09DF8040001F004FB02F0E7FA687828B1B8
S315080045E048F260713960642001F023FE9DF80100ED
S315080045F002F032F89DF8030002F070F907B0BDE842
S31508004600F08F6A48684A0168704780B5FFF7E7FE89
S31508004610BDE80140E5E6E2E6A0F10B01102928BF56
S31508004620FF20704770B50546A0F10B0601F032FA77
S315080046300446A5F10B00102801D38A2070BD5F48F7
S3150800464081680A0702D40068C10701D58C2070BDAD
S3150800465054485B4905700A680C2A0ED05EA0594B6F
S31508004660B6B230F8262093F900008218CA61FFF71F
S31508004670B8FE012C08BF01F0AFF9002070BD10B5D7
S315080046800446FFF7ACFE2046BDE81040CAE7454899
S31508004690007870473E4890F9000070472DE9F841C8
S315080046A00646202516F12B0F85B049DB464C218896
S315080046B01423FFF790FEBDF810004FF6FF718842ED
S315080046C003D0400448BF012407D43F22002110200C
S315080046D0FFF7D4FD002480F0200506F12B022F2ACF
S315080046E02B483A491AD213224BA300E0521E5FFA0E
S315080046F082F813F91870BE42F8DB03EB4802032769
S3150800470056780E60002613F81810017000218846A6
S31508004710C4B1BDF810104FF6BF7229E0092E0FDAA2
S31508004720825D0A600670142329480188FFF753FE44
S315080047304FF4C0514FF480764FF080082827E7E7FA
S315080047408B201AE04FF4605200F044F84FF4E06210
S31508004750314600F03FF88022414600F03BF87919CF
S3150800476088B24028A8BF3F2181F020013F2289B2A4
S3150800477000F030F8FFF7A4FD002006B0BDE8F08190
S31508004780A8790020E8100040BB7F00206410004094
S31508004790406E0020427502084C7502081C10004045
S315080047A0447E0020C56F00209A6F002080200040BC
S315080047B0D010004000E100E080E100E06020004009
S315080047C0AC100040BA7F00203E750208C0100040B9
S315080047D0407502080B2059E5AA212900552329000E
S315080047E000252800AA26270055282700002A260083
S315080047F0AA2B2600552D2500002F2400AA302400B8
S315080048005532230000342200AA35220055372100EC
S3150800481000392000AA3A2000D500E601EC02EF0391
S31508004820F204F405F506F707F808F909FA0AFB0B86
S31508004830FC0DFD0FFE11FF1300160119021C031FC4
S3150800484010001100200030004000410050006000B8
S31508004850700080009000A000B000C000D000E0000A
S31508004860F000000000000103F8B5054688B00020F6
S3150800487001F073FC284801880A237F22684600F065
S3150800488075F8BDF802004FF6FF76B04240F0058095
S315080048904FF4837123A002F0C5F9002427A70EE080
S315080048A0022C08BF4EF23F023DF81410385DFFF7A0
S315080048B0EDFC641C052C05D2002C3246F0D14FF4D1
S315080048C07C42F1E7012D03D114237F22134802E02D
S315080048D014237F22124801881AA703A800F046F875
S315080048E00024324602E0082C08BF002203A830F84C
S315080048F01410385DFFF7CAFC641C0A2C05D2012C7B
S315080049003246F0D14FF6C072F0E7012D04BF012000
S3150800491001F023FC09B0F0BD427502084075020893
S315080049203E750208616E616C6F6775652D63656C0F
S315080049306C2D626961732E630000000000100C0D77
S315080049400E000000010203040708090A0B0F000005
S3150800495038B515467F2A08BF0025154C21431A4647
S3150800496005FB0311BDE8384002F060BA70B51E00B9
S31508004970044615461AD04BF23462914210D1092EDC
S3150800498028BF082633467F2240F61201FFF7E0FFCC
S3150800499032460849204602F055FA38B940F2A27163
S315080049A033462A462046BDE87040D1E770BD000070
S315080049B000000808886F020810B5DFF83C48102088
S315080049C0206302F04FFADFF834180A6842F0010251
S315080049D00A6080F31188DFF82808606020600122E9
S315080049E061688931616022638A30E060A0600221D3
S315080049F0E068DFF810288930E06021634FF6FF7021
S31508004A00106010BDDFF8000845F26401C1601E227F
S31508004A10426250210162C822C261826545F6900150
S31508004A20F022C2654166882282660621C16644F282
S31508004A30066202604FF6FF73DFF8D0174360087806
S31508004A4038B1DFF8CC0748F2607101604FF4C15203
S31508004A504260DFF8C007DFF8C027016841F00401AB
S31508004A600160002050707047DFF89807016811F060
S31508004A70190F03D10021022002F0FAB970472DE977
S31508004A80F84F8046DFF89417DFF89457012002F0B4
S31508004A904DFA00F0B7F803200020C0468A22DFF856
S31508004AA0601702FB08F28E18711CDFF878274B781E
S31508004AB00878DFF8741700EB032013781FFA80FADA
S31508004AC001EB08090B7000205FEA8A6289F8020088
S31508004AD001D5686E010640F1938000240AF0070BA1
S31508004AE0BBF1030F64D10AF440610AF44040B1F502
S31508004AF0806F1CBFB0F5804F002859D00422B1F54D
S31508004B00006F08BF082203D0B1F5406F08BF0E2218
S31508004B105FEA4A615CBF921CD2B2B0F5004F03D17E
S31508004B20931CDBB2009303E002F10801C9B20091BD
S31508004B30009F7F1C07EBD777FF053F0E5FEA08014A
S31508004B4014BF69682968B94232D3B118B0F5404F25
S31508004B5016D1084602F0ABFA040029D05FEA0A70BB
S31508004B6026D45FEA08000CBF28686868791C884262
S31508004B7019D2E8685FEA080214BF0221012110E091
S31508004B804978B05C00EB012080B202F08CFEFF2869
S31508004B9002D002F0E7FEDFE7BBF1030F08D10124DC
S31508004BA0DCE70842DDD10098315C042918BF0024EF
S31508004BB0E86D000900F00100844289F802001FD060
S31508004BC0002CAA6C4FF400604FF480610BD0B8F14A
S31508004BD0000F08BF0846024212D0686C40F0010078
S31508004BE0686401210AE0B8F1000F08BF08460242CE
S31508004BF006D0686C400840006864002189F80210F5
S31508004C00BDE8F18FA96C490801F0010170472DE94B
S31508004C10FE4F0446DFF80856DFF80C6620000CBF86
S31508004C2028686868C1B2042905DC00F0B7F870681E
S31508004C30401C7060B0E041008DF800108A22DFF851
S31508004C40C0859DF80010624308EB02094944A1F1AA
S31508004C50080701923878797801EB0020B97866312F
S31508004C601FFA80FBB970307818B9DFF8B8150878DC
S31508004C703070002132783A703170002003F050FC11
S31508004C807870DFF88075386C20F48050386420001E
S31508004C90686E23D17868410525D41BF4E45F73D187
S31508004CA000F09BFF10B15FEA4B406DD5019918F8EB
S31508004CB00100802868DA386C99F801108A062644BB
S31508004CC044D5696E0A063BD4A96CCA0638D4396835
S31508004CD023000CBF80224FF480722EE0012CDCD119
S31508004CE078680105D9D5DFF844150878C0B10022DF
S31508004CF01BF4E45F0A70DFF8386502D0316840209B
S31508004D000BE099F80100000900F0010A5146292034
S31508004D100020C046316852468F2003F060FC04E04C
S31508004D20FFF770FF09200020C04620000CBF4FF493
S31508004D3080604FF40060786028E00840104205D093
S31508004D40FFF760FF05200020C04614E000F0EDFEE6
S31508004D5050B199F80100810606D500F004FF18B194
S31508004D60FFF750FF062002E0FFF74CFF092000205E
S31508004D70C0460020B070B2789DF80010484603F08F
S31508004D8069FD0020B07001E000F008F8002C07BFAC
S31508004D900120286102212961BDE8F78FA96C49081D
S31508004DA001F00101042002F063B82DE9F84FDFF89D
S31508004DB05464DFF86C743568306CDFF87884DFF893
S31508004DC06C94DFF874A4DFF854B405403AE071B186
S31508004DD08A21DFF82C24484310444378D80606D4A1
S31508004DE0DFF84C34196800228F2003F0F8FB2806F8
S31508004DF008D50CB900F0A4F803F079FD802025F059
S31508004E0080053060E90509D50CB900F099F803F07A
S31508004E106EFD4FF4807025F480753060690407D5FF
S31508004E200CB900F086F84FF4804025F480453060D0
S31508004E30290407D50CB900F07CF84FF4004025F496
S31508004E4000453060002D70D00024280706D50020C4
S31508004E50FFF715FE082025F008053060E90606D597
S31508004E600120FFF70CFE102025F01005306005F034
S31508004E706001602903D1B86CC1050AD401E0A8060F
S31508004E8005D5202125F020053160002006E06806BA
S31508004E9006D5402125F0400531600120FFF7B7FE11
S31508004EA0E80404D54FF4805125F480553160E807AD
S31508004EB09DD5012131606D080020C0466D0060B1A6
S31508004EC04FF448725946012001F0D4FFB96CFFF738
S31508004ED09AFE01200020C04601249AF8010008B174
S31508004EE0C046C0469AF80000002806D000F0E3FD48
S31508004EF0012807D199F8000000283FF478AF98F800
S31508004F00001004297FF473AFF868400800F0010028
S31508004F10002814BF7968396811B93168CA04F7D509
S31508004F20002814BF7968396851E700203060BDE869
S31508004F30F18FB96C490801F00101072001F098BF0B
S31508004F40B96C490801F00101082001F091BFDFF8AA
S31508004F50EC02006870470021DFF8E422101D30F8E3
S31508004F6011305B1C20F81130491C02EB41035888AC
S31508004F7008B90829F2D3704738B50446FFF7EBFF9E
S31508004F80DFF8BC521022291D204601F04FFF05F11B
S31508004F901401204603F092FDFFF7DDFF05F1140129
S31508004FA0281D03F08BFD214605F11400BDE83840A5
S31508004FB0102201F03BBFF8B5DFF88862377805465E
S31508004FC001203070380008D10021032001F096FD39
S31508004FD00F2401F0AEFD641EFBD105B12F703078A9
S31508004FE0F2BD002800D0704710B5DFF85842207887
S31508004FF018B101F0DAFD0020207010BDF8B5FFF7F2
S31508005000BBFF0025DFF8386200270F2401F091FD69
S31508005010641EFBD1311DC0F3801031F81520B8404D
S315080050204240301D7F1C20F815200F2FEDD96D1C2E
S315080050300F2DE9D9F1BD10B5044603F053FD2046FE
S31508005040FFF7DCFF03F04EFD7D4801210170416A40
S315080050501029BCBF491C4162012010BD38B584B077
S3150800506000F011F80446764D05E06846FFF7E3FFC1
S31508005070044018BF0124696A1029F6DB00F005F818
S31508005080204605B030BD002095E70020A9E72DE9A8
S31508005090F8436B4F8846397884B004469146012513
S315080050A051B9FFF7F0FF060018BF01266846FFF75B
S315080050B0C2FF064208BF0025002621E016F00700B9
S315080050C017D15FEA090007D0FFF7DDFF054018BFD3
S315080050D001256846FFF792FFFFF73DFF381D90E868
S315080050E00C506946684681E80C5007F1140103F034
S315080050F0E5FC06F007013DF8112024F81620761C79
S315080051004645DBDB6846FFF737FFFFF7BEFF284655
S3150800511005B0BDE8F08370B5044649480D46416AB6
S315080051201029164602DAFFF799FF28B132462946B2
S315080051302046BDE87040AAE770BD0022EBE780B5BF
S315080051400022FFF7A4FF3E494A6A102ABCBF002383
S315080051504B6202BD0321022001F0D0BC7CB501F0F0
S31508005160E8FC4FF6FF76384D301A292190FBF1F40A
S3150800517028783A34C0B90321032001F0BFFC33482C
S31508005180018802237F226846FFF7F0FB01F0D1FC75
S31508005190BDF80010401880B2361A292096FBF0F0A8
S315080051A0253001216870297001F0FFFC6878241AFF
S315080051B060B276BD70B5264908780024B0B90321D7
S315080051C0022001F09BFCFFF7C9FF134E05467078D5
S315080051D048B13078401B40B203F0D4FC0B2805DBFD
S315080051E03570012402E0012035707070204670BDCC
S315080051F018480078704700000020004084200040CE
S31508005200527E002000A000404C100040C66F0020CF
S31508005210D010004080200040D37F0020694A000853
S3150800522020200040C56F0020E07A0020107B002077
S31508005230187B0020996F0020CF7F0020382000407F
S31508005240E87A0020D57F0020D17F00204875020823
S315080052509A6F0020D67F00203EB5DFF83C11DFF8B4
S315080052603C510A6801A8012302602B70002003F054
S315080052708DFC002430B1002003F088FC10B12C709E
S3150800528049203EBDDFF81801018802237F226846BF
S3150800529000F026F802237F2200210DF1020000F01B
S315080052A01FF8002001AA32F81010BDF8002091421C
S315080052B008BF0124401C0128F4D9002CBDF80200BF
S315080052C004D0B0F57F7F07D100203EBDB0F57F7FC3
S315080052D00CBF0620042000E00720002129703EBDEF
S315080052E038B5B1F5807F09DADFF8B0502C7854B1BB
S315080052F001B0BDE83040C9B204F052B801B0BDE80B
S315080053003040FFF733BB31BD38B5B1F5807F09DAD8
S31508005310DFF888502C7874B101B0BDE83040C9B2C6
S3150800532004F071B87F2A08BF0022DFF878402143CD
S3150800533002FB0311016031BD2DE9F0410446B4F5C5
S31508005340807F0D4616469846DFF85C0015DADFF8CA
S315080053504C201178B1B1DFF854703A7812B1CA21ED
S3150800536001F060FC01223A7043462A463146E0B213
S3150800537004F0BCFB0020387004E0BDE8F041D521FC
S3150800538001F050BCBDE8F081DFF810201178002943
S3150800539018BF04F0E7BC7047D4740208B07F002039
S315080053A04A75020800000808D8740208B17F002070
S315080053B01FB50C4C21880A237F226846FFF7D6FAC8
S315080053C0BDF800004FF6FF74A04204D15FF0530108
S315080053D005A001F027FCBDF8001022460020FEF7C4
S315080053E055FF1FBD42750208616E616C6F67756572
S315080053F02D66696C7465722E63000000DFF84C1820
S31508005400087848B1DFF848080179012904BF4079CE
S31508005410042801D101207047002070470FF6D001FB
S315080054204008085C7047010604D502464FF6F83076
S3150800543000EAC2007047491C800189B2B0FBF1F04E
S3150800544080B2B0F5807F2CBF0020C0F1FF00C0B24B
S31508005450704738B5DFF80018C878012801D1002050
S3150800546032BDDFF80048607868B1E57808794519F3
S3150800547020798542A8BF054604F086FD012202FA76
S3150800548005F5691E084061790818C0B232BD2DE9D4
S31508005490F047C207044605D54FF4D8710FF6400009
S315080054A001F0C0FBDFF8C057286DC10748BF8C2044
S315080054B000F19480DFF8A027DFF8A867517800206C
S315080054C0107049B9307838B16078A96F400900F092
S315080054D0010041F0010103E0A96F490800204900D5
S315080054E0A9675071DFF868777078B979DFF87C8733
S315080054F0DFF87C9798B1002313710129286D40F0D5
S315080055000400286507D14FF6FF70C9F800004FF46C
S315080055100071C8F80010FFF79CFF82460CE0286D62
S3150800552020F00400012928654FF0000A04D100F094
S3150800553080FA642000F07DFEA86F20F00800A867B6
S315080055401421E964C5F848A0707830B1B879002804
S3150800555001BFA86C00280121A964B0790028286D2C
S3150800556014BF40F0080020F008002865FFF746FF42
S3150800557028B1D9F8400040F00800C9F840002020BA
S3150800558028626C602C60042168687F306860296234
S315080055904FF4E064DFF8DC06046006E004F006FD7C
S315080055A018B104F00BFD01F05DFCDFF8CC060168CC
S315080055B001F003010329F1D0C8F80040286D40F036
S315080055C001002865707810B90021252003E0B87914
S315080055D018B9002123200020C0460020BDE8F08726
S315080055E0DFF89806DFF89826DFF89836002141603C
S315080055F08160016821F0020101604FF000701060BF
S31508005600012119707047332800D2704710B5B0F5DC
S31508005610002F0CD2DFF86C460021217000F0B6FB93
S3150800562002E0012004F07CFF20780028F9D010BDA4
S315080056302DE9F84FDFF83886DFF81C76D8F8001021
S31508005640D8F84000DFF8206608401FFA80FAC8F844
S3150800565000A07878002840F001815FEACA70DFF878
S315080056602846DFF8009651D53568306C716C41EAEA
S315080056700041B96099F8000000283ED06878820693
S315080056803BD501233B70002128200020C046FFF7A8
S31508005690B5FE00283AD0192000F0CBFDDFF8ECB5AE
S315080056A04FF44040CBF82800DBF800100091E06E7C
S315080056B040F40050E066E06E40F48050E0662978D9
S315080056C0B8684901B8310D18FFF741FC2D1AC5F322
S315080056D01300FFF798FFE06E80098001E066E16E2F
S315080056E0BDF800000143E16648F260700021CBF87E
S315080056F02810E066F988216008E000212B200020A8
S31508005700C046B9680022002002F069FF5FEA0A6114
S315080057100ED5387830B1002139700022B96840209A
S3150800572002F05DFFD8F83C0020F48050C8F83C0031
S315080057305FEA4A610CD5787850B979792720002034
S31508005740C046FFF704FC01460022892002F047FF05
S315080057505FEACA606BD5DFF8F8542879012804BFD8
S31508005760A879012828D10021232001F081FB00F027
S3150800577091FE306F40F0010030670021A9714FF0AB
S31508005780000AFFF719F90A2000F053FD4FF6FF70DB
S31508005790DFF8D824C8F800004FF4E0611160092347
S315080057A0B3660120B064B16F41F00801B167306D8E
S315080057B040F0010030653AE03879401C3871C0B2D3
S315080057C099F80210884225D2FFF743FE8346BBF1BB
S315080057D001018941C90F24200020C04628790128E3
S315080057E002D100F0F9F803E0002123200020C0468A
S315080057F0B06F20F00800B0671421B166C6F848B04B
S315080058004FF40070DFF864140860326D42F001024C
S3150800581032650CE0787850B9797926200020C046A0
S31508005820FFF795FB014600228D2002F0D8FE5FEABD
S315080058300A7013D5FFF7E2FD48B12068F880012108
S315080058402160D8F8400020F00800C8F8400099F810
S31508005850010018B1002125200020C0465FEA8A60B1
S315080058600ED520213162787850B979792720002021
S31508005870C046FFF76CFB01460022882002F0AFFE07
S31508005880787840B11AF4407F05D100212B200020FA
S31508005890C0460120B870BDE8F18FDFF8B81320B113
S315080058A0086840F44040086070470A6822F440429D
S315080058B00A6070477CB50546FEF7ADFEDFF8D803EB
S315080058C0DFF89843DFF88863002101601522E2605B
S315080058D0092101651F22426001210166DFF8B40330
S315080058E00088FEF718FDFFF78DF804F075FE00F046
S315080058F03DF9308960617189216101F0B3FA616807
S3150800590041F04001616080F31188707800F0F9F881
S31508005910B07800F00DF9DFF88403007800F03DF95F
S31508005920DFF87C0390F90000FEF7B8FE307800F047
S3150800593057F996F9030000F062F9DFF86803018861
S3150800594000F07EF9BDF80000C105DFF85C1348BF1A
S3150800595000200870DFF854030078FEF763FE28B1CC
S3150800596040F226410FF2783001F05CF9012D09D199
S315080059702068C10715D500F02FF800212C2000203B
S31508005980C0460EE06DB92068C1070AD400F082FD52
S31508005990206840F001002060C82000F04AFC002082
S315080059A0B071F120DFF8C852286440F2F911E963B2
S315080059B00020C046FFF771FFFEF7FEFF2068C1070B
S315080059C007D54FF6FF70DFF8A41228604FF4E0629F
S315080059D00A6000F046FB73BD70B5DFF8D452DFF8F5
S315080059E070422E68A079012822D001F03BFAB6B29F
S315080059F0DFF880222E604FF4E0611160DFF8901224
S31508005A000B6A5B085B000B620A68520852000A6060
S31508005A100B6843F002030B604A6A42F001024A62CD
S31508005A200121A17180F31188BDE8704000F00EBD18
S31508005A3070BD70B5DFF81852A87950B300F02AFD8A
S31508005A4001F010FA0446DFF86C12DFF81462012040
S31508005A5008600021306D40F001003065A971FEF73D
S31508005A60ABFF20203060316B41F002013163F06DED
S31508005A7040F00800F065204680F311880A2000F0FF
S31508005A80D8FB7B49794B4FF6FF7008604FF4E0620C
S31508005A901A6070BD6E48807970476D480179012992
S31508005AA000D0704780B5FFF797FFBDE80440002196
S31508005AB02C2001F0DDB966480079704780B50228C8
S31508005AC001DB012002BD624908718979884209D043
S31508005AD010B9FFF7AEFF05E0FFF77EFF00212C2087
S31508005AE00020C046002002BD7348006880020014EA
S31508005AF09A3801B211F1800FB8BF6FF07F0040B23B
S31508005B00704710B5044601F0ADF96C490A68002CD7
S31508005B1004D042F012020A60012103E022F01202C8
S31508005B200A6000214A4A517049E04948407870475E
S31508005B3038B5044601F096F90546FFF759FB58B9FA
S31508005B4021005E4804D0026842F08002026003E049
S31508005B50016821F0800101603D4884702846BDE84F
S31508005B60324004F045BD3A4880787047544A537825
S31508005B701078544900EB03230B609078D37800EB38
S31508005B8003234B601079537900EB03238B609079DC
S31508005B90D37900EB0323CB60704710B5044601F0B8
S31508005BA061F92200454904D00B6843F020030B60D5
S31508005BB003E00A6822F020020A6038490C70BDE842
S31508005BC0104004F015BD22493F4A0881106070470D
S31508005BD01F493E4A4881106070473D480078704723
S31508005BE002001E4904D00B6843F002030B6003E071
S31508005BF00A6822F002020A6015490870704738B52B
S31508005C007F2804460AD1334C218800F019F8BDF8DC
S31508005C100000C10554BF04466FF04A0401F022F99A
S31508005C200546FFF7E5FA28B960B29A3080052A4991
S31508005C30000C08600648C470284680F3118831BDF8
S31508005C4002237F226846FEF791BE0000DB7F002014
S31508005C50946F002040A00040107B00208020004068
S31508005C6030200040586E00201020004000E100E07F
S31508005C7004A0004080E100E0A820004010E000E019
S31508005C8004ED00E0DC7F002064100040E4100040D2
S31508005C90602000404C6E00205C100040DA7F002037
S31508005CA0406E002052750208BA7F0020C56F00209A
S31508005CB01C100040281000400C10004084200040B2
S31508005CC0587A0020982000409420004090200040F8
S31508005CD0D16F002054750208541000407047000028
S31508005CE07068792D636F6D6D6F6E2E63000000000E
S31508005CF0FEF7C8012DE9F041DFF8C8630546F078DC
S31508005D000328D4BF302760274FF4F070B0FBF7F4B0
S31508005D101E2D24B201DB281B04D5A8B2BDE8F0412C
S31508005D2000F087BA01F09EF800F053F97070072268
S31508005D30DFF89403002102602D1B41602DB28160BB
S31508005D407D43DFF88823DFF87873ED1C4FF0007188
S31508005D50AD0811606D1E4560DFF8745300F00FF84A
S31508005D603C6800F03BF93C602E6004F045FC0020DE
S31508005D7080F310884046BDE8F04104F039BC2E682F
S31508005D80286840084000286004F036BC38B5044648
S31508005D90DFF83003C1780329D4BF302560254FF4D6
S31508005DA0F070B0FBF5F0241A1E2C04DAAB210FF2C2
S31508005DB0783000F037FFDFF8100307210160002272
S31508005DC0426082606C43DFF80423E41C4FF00071E4
S31508005DD0A4081160641E446031BDDFF8E822012181
S31508005DE05170D3E72DE9F041DFF8E862DFF8E87291
S31508005DF0002535603D604FF4A0427A6041F29A086A
S31508005E004046FFF777FF706844F69041081A00B2DB
S31508005E104FF4487290FBF2F001B20829A8BF072098
S31508005E2004DA11F1080FB8BF6FF0070000B2386046
S31508005E3008244046FFF75EFF4046FFF75BFF7068A1
S31508005E404519641EF8D12D1DED0808BF0125DFF898
S31508005E508C02B0FBF5F080B27860BDE8F08138B509
S31508005E60DFF87C5201216FF00F04A9602C608020B6
S31508005E70FFF740FFE868B0F5807F02D2641C102C5B
S31508005E80F4DB31BD70B5DFF85C02DFF84452016817
S31508005E9041F0010101600122426000F0E3FF2E6833
S31508005EA00446FFF76DFF8649512008602E6004F00E
S31508005EB0A3FB2046BDE8704004F09ABB2DE9F041EB
S31508005EC08A4C894EA1887F4F4FF6FF78414540F2AC
S31508005ED0DC551CD18648018802237F22201DFEF747
S31508005EE045FDA088404504BF0221A180B06981070D
S31508005EF003D4B06940F00200B0610120B8702846AA
S31508005F00A1883160FFF769FF2846BDE8F081B069CE
S31508005F108207EED5B8780028F6D1B268B06812F0D4
S31508005F20010204D10F290AD2491CA18007E0830780
S31508005F3005D5207818B10229C4BF481EA080A088BC
S31508005F4022700228BCBF0221A1803068A18888423D
S31508005F50D3D1B06900F00300032818BFFFF792FFFA
S31508005F600020D2E72DE9F0476249814608780024E7
S31508005F7068B9C878072818BF09280DD0032818BF9C
S31508005F80112809D013281CBF15280B2804D05A48F5
S31508005F90016841F48071016000F064FF00F019F8AF
S31508005FA04846FFF78BFF08B901240CE0484D444FDB
S31508005FB0FFF7E5FED7F800A000F010F8C7F800A034
S31508005FC02E6004F019FB00F0A8F8002CE4D0BDE818
S31508005FD0F0878046012080F310887047386820F0E3
S31508005FE04000386004F010BB0220BBE710B5364805
S31508005FF0364B0021416000228260016821F00201CF
S31508006000016030494A704FF000721A60887808B10A
S3150800601000228A70C878012815D13848384B0122E1
S3150800602002601C68E20702D50320C87010BD022270
S31508006030CA70016C334B41F00101016404203249F6
S315080060400860186010BDC878042804BF0522CA7005
S3150800605010BD1C494878002818BFFFF7C7BFFFF7CF
S31508006060BFBA2DE9F843174D287808B12879E0B169
S315080060700021297022E000F0F5FEFFF7AAFFE97873
S31508006080052910D0124E0E4C00F040F8D4F80090B6
S31508006090206820F04000206004F0B6FAC4F80090AA
S315080060A0376004F0A9FA00F038F8E8780528E2D154
S315080060B00021A970FFF756FF00202870BDE8F1837C
S315080060C000800040C87F002010E000E004ED00E0FA
S315080060D094ED00E0104000400C0000400060E3161C
S315080060E0084000401C400040044000408A6F0020E1
S315080060F050750208960708083840004018A0004066
S315080061000C40004000E100E080E200E037683068BB
S3150800611040084000306004F06FBA002080F3108811
S31508006120404604F065BA0000636C6F636B732E63B8
S3150800613000000000002010B500F03DFD40F68C215F
S3150800614088426A4C04DA206840F00800206010BDD6
S31508006150216821F00801216010BD38B5644D2988F1
S31508006160044600F061F89DF800109DF80100FF292B
S3150800617002BFFF2804200021220018BF801CC2B2DB
S31508006180082A5C4A136823F46073A8BF0720C0B2C4
S3150800619043EAC013136008291068A8BF0721C0087E
S315080061A041EAC001116054490C7031BD80B55348AD
S315080061B0018800F039F8BDF800004FF6FF718842F3
S315080061C004D14FF4E162ADF8002004E00A2190FB07
S315080061D0F1F1ADF80010484A107810B34448018828
S315080061E002237F220DF10200FEF7C0FB9DF8030093
S315080061F0BDF80030FF2808BF0420811CC9B2082951
S31508006200A8BF0721C1F12F0202EBD272C0F12F00FD
S31508006210521000FB0320C1F12F01B0FBF1F0ADF8DD
S315080062200000BDF8000002BD02237F226846FEF783
S315080062309DBB33490A68032809D34B6D43F0010314
S315080062404B650B689B1AC3F313038342F9D3704754
S3150800625010B5040004D110BD4FF47A70FFF7E9FFBA
S315080062602046441E80B20028F6D110BD254908787C
S3150800627068B9C878072818BF092814D0032818BF92
S31508006280112810D013281CBF15280B280BD01E4820
S31508006290016841F480720260C80504D45FF03801D1
S315080062A01DA000F0BFBC704720B1012809D0032803
S315080062B018D019E0154800291ABF17220260016094
S315080062C010E039B1124800EB5100B0FBF1F0B0F123
S315080062D0011F01D3202070470E4900F001024A60D1
S315080062E040080860002070472120704700BC004025
S315080062F04475020818000040BD7F00204675020854
S31508006300382000409607080838400040100004E08E
S3150800631000366E0168C800407573625F6572726FF9
S31508006320722E630070B504F073F9EFF30880001F4E
S3150800633086494FF0CD3201E040F804298842FBD265
S3150800634004F0F0F904F076FA81498248824C89B261
S3150800635004F0AAFA0120FFF7B1FD0020FFF7FDFEC1
S31508006360206840F00800206002F0B4FBFFF7E2FE68
S3150800637000F01EF81D8805605E88466098880860EB
S31508006380DD884D60188910605989516000F05EF803
S31508006390206820F010002060FDF731FF04F088FA2D
S315080063A0FFF722FE02F094FBBDE8704002F0AEBB98
S315080063B06F4B6B481978C1605A786A49CA606A4A4D
S315080063C09B78D3606B4B7047F0B50F259E0005FA96
S315080063D006F61468304217D00026F7B207EB830C8E
S315080063E020FA0CF7FF070BD5B70005FA07F724EADA
S315080063F0070C1C4631F814E007EA0E0444EA0C04BC
S31508006400761CF7B2042FE8D31460F0BDF0B5FF266A
S31508006410DC00A6401568304216D000240126E7B2F3
S3150800642007EBC30C20FA0CF7FF0709D506FA04F7A1
S3150800643011F803E025EA070C07EA0E0545EA0C05FC
S31508006440641CE7B2082FEAD31560F0BD2DE9F843BE
S3150800645000210A200020C046C046C046464C206897
S31508006460B0B100253D4FDFF8F89000F037F86D1C05
S31508006470E8B20328F9D3DFF8F4800027002500F0F6
S315080064803CF800F034F86D1C7F1CE8B20328F6D3FC
S31508006490BDE8F1832DE9F84300210B200020C04612
S315080064A0C046C046344C2068B0B10025304FDFF8EE
S315080064B0B09000F013F86D1CE8B20328F9D3DFF8A2
S315080064C0B4800027002500F018F800F010F86D1CBD
S315080064D07F1CE8B20328F6D3BDE8F183280609EB4A
S315080064E0D03000F10C022068EBB239468EE77F1CEB
S315080064F02068FBB2321D414666E7280609EBD0360E
S315080065002068FBB2324641465EE70320FEF73CBFF1
S3150800651080B504F0BDF8014618480B2938BF00EBD2
S31508006520810002BD10B504F0B7F8010A0B29C0B204
S3150800653009D2134A535C984205DA124C54F82110D2
S3150800654001EB800010BD104810BD0000B0630020AC
S31508006550481000009800002000BC0040BC6D0020D8
S3150800656000B0004000B2004000B40040B06D00200A
S31508006570AC6D0020A06D002048750020906F0208C1
S31508006580D4700208A8700208BC6F020829490A6874
S31508006590920992010A6000220B68184308604FF4BA
S315080065A000412548016002606420FFF742BE2DE9DC
S315080065B0F047224D1F4FD5F80090214C8046286899
S315080065C040F400402860396821F480513960207809
S315080065D050B11C486278A17810F822608E1B41469B
S315080065E010F82100861902E0012120262170B0B298
S315080065F0FFF7CCFF0FF2500A02E0B0B2FFF7C6FF72
S31508006600386B042805D0386B410754BF761E761CB4
S31508006610F3E7F86A28B94FF49271504600F002FB86
S31508006620EEE784F80180A6701FFA89F02860BDE8B5
S31508006630F0870000D0100040181000401C100040E1
S31508006640D77F0020AE470008616E616C6F6775657D
S315080066502D76636F2E63000081014FF4FE5289B2D6
S315080066600C20FDF713BE2DE9F84F904DDFF840B228
S31508006670AE682F6800F099FA0124B020B6B24FF040
S31508006680000A4FF00A09A046BFB2286313E01AF1C0
S31508006690190F0ADA4FF00A0907E004F500402860E6
S315080066A0BAF11A0FF3DB6FF00909CA440FFA8AFA2E
S315080066B00AEB0600A860DBF80000010702D558EAD5
S315080066C0040023D00120FFF7B4FDB8F1000F13D062
S315080066D0F81E844205DAE41CA4B204F500412960D8
S315080066E0DEE707F5004028600621092000F006FAD3
S315080066F03C464FF00008D3E7DBF800000107CFD58A
S31508006700042CA6BFE41EA4B20024C6E7AE602F6020
S315080067100820CBF800006749086880B2BDE8F28F08
S3150800672010B5614C644A21784FF0FF3371B110B14E
S315080067305360624803E00021516041F21110106075
S315080067405F4841880088BDE810408CE7002819BFDB
S31508006750536013605060116000F027FABDE81040DE
S315080067600621092000F01BBA38B50120FFF7D8FF2B
S3150800677004460020FFF7D4FF05460120FFF7D0FFA7
S315080067804042041B04EB450420B232BD2DE9FE4FFE
S315080067904C4C4D4DA16A444FADF802104FF000081D
S315080067A02268ADF80020D5F800A0387858B14FF621
S315080067B0FF7200210820FDF761FD8046C022C02136
S315080067C00820FDF763FD4149DFF80491087818B100
S315080067D048F26071C9F8001002217888384E40F4F2
S315080067E0404040F04C00C9F83C00A16201202060FE
S315080067F040F24C40FFF71DFD0120E86028600022AA
S31508006800328040237380387800B12020FFF724FFB8
S31508006810FFF7AAFF402131807F22834672807F20BE
S31508006820FFF71AFFFFF7A0FF0290584602F0AAF9F1
S3150800683002990646FE20ABEB0101464301913878E2
S3150800684050B1029802F09EF98346019802F09AF92F
S3150800685080B206EB8B1603E0084602F093F980B285
S315080068600221B6FBF0F61FFA8AF028600022002003
S31508006870E8602160B6B2BDF800002060761CBDF85D
S315080068800210A162C9F83C20F603387828B14FF601
S31508006890FF7241460820FDF7F9FC40F24C40FFF72D
S315080068A0C8FC300CBDE8FE8F906F0020C010004079
S315080068B018A000400070004038100040EEEEFFFFC0
S315080068C0667F00206020004028100040C66F002028
S315080068D0D010004041003F2289B201E001463F2224
S315080068E00220FDF7D3BC2DE9F04F5849584D93B017
S315080068F0CA6CADF808204FF6FF720B68ADF8063083
S315080069000021E86AADF8040000240120FDF7B6FC72
S31508006910ADF802004FF6FF7200210B20FDF7AEFC22
S31508006920ADF800004FF400404849086000222A618B
S315080069306A6148F2020100F093F844494CF68C303B
S31508006940C86448F2F002EA6201204FF48052114608
S31508006950FDF79CFC4FF6FF7200210B20FDF796FC15
S315080069600621062000F01BF9814600F084F8064649
S3150800697036494CF69C30C8640020FFF7ABFF062169
S31508006980062000F0BBF8A0B2FFF7A4FF06210620F8
S3150800699000F0B4F800F0CDF803A921F81400641C3F
S315080069A0202CF0DB00F0C5F81020FFF793FF00F06D
S315080069B062F8811BBDF82C00A0EB090001FB01FA67
S315080069C000FB00AA102411270DF10C0800F04DF861
S315080069D000F051F800F03EF804DB3C467F1C202FFF
S315080069E08246F3DBA0B210280DD10F2700F03DF840
S315080069F000F041F800F02EF805DB3C467F1E3FB25A
S31508006A00002F8246F2D51148BDF80810C1644FF62A
S31508006A10FF76BDF8062002603246BDF80400E8623B
S31508006A200120BDF80210FDF731FCBDF80010324612
S31508006A300B20FDF72BFC01202861002100F010F83F
S31508006A406000C0B213B0BDE8F08F0000C01000406F
S31508006A5018100040801B40430BFB0B005045704745
S31508006A60296040F24C40FFF7E4BB38F81700A0EB6A
S31508006A70090BB8B22EE70621072000F090B8F0B44B
S31508006A800246106895681318506803EB5004C0074F
S31508006A9048BF4D44A3422DD013F8016B16F00300EE
S31508006AA004BF13F8010BC01C31090F2907D113F8CD
S31508006AB0011B0F3103E013F8017B05F8017B401E2B
S31508006AC0F9D10029E6D013F8010BC6F38106032E87
S31508006AD008BF13F8016B00EB062040422818002671
S31508006AE0B71E8F421EBF10F8017B05F8017B761C86
S31508006AF0F6D1CFE7F0BC02F10C00704770B504463A
S31508006B000D4672B6C0463F4E306C20F00800306421
S31508006B10E40162B6C04600F0A5F944F001043A491A
S31508006B2044EA05340C6008223260BDE8704003F080
S31508006B305FBD2DE9F041354C354D324E25E003F069
S31508006B403FFF344904200860326C42F00802326480
S31508006B502F68286840084000286003F04DFDD4F8E7
S31508006B600080206820F04000206003F04DFDC4F846
S31508006B7000802F6003F040FD306C20F00800306480
S31508006B8004212548016062B6C04631680807D6D593
S31508006B900821224A3160106880B2BDE8F08180B5CC
S31508006BA0FFF7ACFFBDE80140C3E71748016849088D
S31508006BB0490001607047F8B50446FFF7F7FA05463D
S31508006BC021460320FFF7EBFF064621460120FFF783
S31508006BD0E6FF0746C046C04621460020FFF7DFFF0E
S31508006BE00446C046C0460848016849084900A41B2F
S31508006BF001602404BE1BB4FBF6F045436D00280C67
S31508006C00F2BD000018A0004004700040008000405B
S31508006C1094ED00E000E100E080E200E00070004052
S31508006C2042DE704738B504460D4601F05BFF00F0BA
S31508006C3019F92946204603F044FF2B462246714996
S31508006C40012003F0F8FF29462046BDE83440E7E76F
S31508006C506D482DE9F8436D4E0168B1654FF420681B
S31508006C60026A6B49F2650B683366416A7166826A25
S31508006C70B266C16AF166026B3267806B96F83810A5
S31508006C80706748074CBF346CF46B03F0A9FD00210C
S31508006C903165A146706506F18C015E4A5E4BDFF8E8
S31508006CA07CE1844224BFAEF12005A54219D3A06930
S31508006CB07064B06DE469B464C0F30800062814D1A2
S31508006CC0706C984211D390420FD200884DF64264F8
S31508006CD0A0420AD17068B46848608C6040F20178B6
S31508006CE003E000247464B4648146706D4C4CA04281
S31508006CF002D2204600E0001D0446744503D2066809
S31508006D00B6F1CD3FF7D04148464E341BC464002641
S31508006D10002400F1780CE5B2641CE7B24CF8256053
S31508006D20062FF8D30024F1452FD25EF8046D9E4253
S31508006D30F9D39642F7D2F507F5D54FF0000C00F1D6
S31508006D40780555F82C70B74204D00CF1010CBCF14B
S31508006D50060FF6D3BCF1060FE5D1E5B2002D0CBF40
S31508006D600524641E00F17807E5B247F82560DAE7DE
S31508006D70826F002300F1780500EB8307FE6F45F864
S31508006D8023605B1C042BF7D90A602246541ED2B234
S31508006D90002AEDD1806DC0F3080002280AD0032826
S31508006DA015D0042816D0052817D0062818D00C2880
S31508006DB01CD01EE01C480268910748BF40F602181E
S31508006DC01CD40068C10719D540F2025816E040F6EF
S31508006DD0012813E040F6022810E040F603280DE0EB
S31508006DE0B8F5206F0AD140F6042807E040F60528D2
S31508006DF004E018B1242838BF40F607284046BDE805
S31508006E00F2830000B861020804ED00E000000020EB
S31508006E1000E300E0FC53020890410008106D0020D2
S31508006E2098000020106D00201CA000404AB1000008
S31508006E3011F8013B521E00F8013B1CBF11F8013B3B
S31508006E40F8E7704703000020521E22BF13F8010B13
S31508006E5011F801CBB0EB0C00F6D0521C08BF104657
S31508006E6070470000EFF31180602181F311887047A5
S31508006E70002070472DE9F84305460E4630001446B3
S31508006E8003D1FEF764F824184BE02F46022F0FF2C1
S31508006E903C1803DB4B214046FFF7C4FE102C05D2F5
S31508006EA02846B047BDE8F143FEF751B8DFF8109120
S31508006EB059F8270018B153214046FFF7B3FEB4F539
S31508006EC0002F03D354214046FFF7ACFE49F827604C
S31508006ED03C4F3D4E95B9FFF7C5FF0546FEF737F817
S31508006EE02418A0B278600221200C38603160284648
S31508006EF080F31188306C40F0020011E0FFF7B2FF12
S31508006F000546FEF724F82418A0B2F8600421200CE0
S31508006F10B8603160284680F31188306C40F0040070
S31508006F203064C4F31300BDE8F283000070B504466C
S31508006F302646022E0D4604DB5FF0770123A0FFF7F5
S31508006F4071FEFFF78FFF1E4951F82620AA4210D17D
S31508006F50002341F82630002C1B490A6C04D122F084
S31508006F6002020A64022303E022F004020A640423EC
S31508006F700B60BDE8704003F03BBB70B5124C104E79
S31508006F802568206C0540ADB2A9070AD5206C20F00B
S31508006F900200206431680A0003D000233360002011
S31508006FA0884769070AD5206C20F0040020647168B8
S31508006FB0080003D00022726001208847256070BD52
S31508006FC0047E00204020004008A0004073796D62CE
S31508006FD06F6C2D74696D65722E630000DFF8D81624
S31508006FE000220A704A818A81C881704710B5DFF885
S31508006FF0C84604F10A0003F004FF04F10C00BDE8DA
S31508007000104003F0FEBE2DE9FC41044604F085FA63
S31508007010DFF8A466F7890546204600F08FFC80460F
S31508007020204604F019FBB0F5006F19D14046FF2839
S3150800703014D000F0B2FAFFF715FF80460022214669
S3150800704006F10C0004F012FC404680F311883078F3
S31508007050F8B130892D1AADB2EF191FE02D2024E0C2
S3150800706006F10A0004F0E9FB052810DA4046FF2875
S3150800707005D0012100910822002300F0D6FCFFF775
S31508007080F1FE80460022214606F10A00DAE71C20B6
S315080070900BE035813946304604F0AFFC204604F053
S315080070A033F80321078181720020BDE8F68170B5A7
S315080070B00446DFF80456002105F10A0004F0CEFB69
S315080070C004E0314605F10A0004F01CFC06463000CF
S315080070D00AD004F0E0FA014608222046FFF7B2FE7D
S315080070E00028EED1012070BD002070BD2DE9FE4FAD
S315080070F00F46384604F098FA050B384604F002FBAA
S315080071008246384604F00FFB0646022E05F00105B6
S315080071102DDA00F01EFDB04229D1384604F0C7FA30
S31508007120B0F5404F0FF2511418D1002D6CD03246ED
S315080071305146002000F0CDF9060065D003F0E4FFC3
S3150800714005460020019000940023A978324600F0F5
S31508007150C3FF002858D00120E87255E0504604F0D5
S3150800716049FD824600F09FFBFF28814601D1002099
S315080071704BE0012000214A4604F042FD0746DFF8AD
S315080071803C8508EBC6008B46D0E900233A4343EA20
S315080071900B03C0E90023BDB3484600F0E3FB98B3F0
S315080071A0484600F02CFC10F00C0F24D04FEA1A20A9
S315080071B08DF809008DF808A0324602A9012000F0D2
S315080071C088F9054603F0A0FF0646280007D10020E7
S315080071D000900C220023484600F027FC14E000200B
S315080071E0019000940023B1782A4600F075FF58B143
S315080071F00120F07208E008EBC600D0E904233A4300
S3150800720043EA0B03C0E904230120BDE8FE8F70B5ED
S31508007210044604F021FAB0F5006F0CBF01250025DD
S31508007220204604F038FA0646204604F07CFA02287E
S3150800723004461FDA22463146284600F04AF9A8B91C
S31508007240204600F091FCA8B995B1304604F0D2FC6E
S3150800725000F029FBFF281FBFDFF864140A6832F81C
S31508007260100010F4E26F03D000F0B4FC012070BDEA
S3150800727000F0B0FC002070BD2DE9F84F92460C4690
S315080072809846504604F0E8F9DFF82C54DFF83464E1
S31508007290B0F5006F0CBF05F10C0905F10A0900F0FD
S315080072A017FA1FE000F045F918E00022394605F103
S315080072B00A0004F051FB584680F31188504604F042
S315080072C032FA482148433044D0F804C1BCF1000FD3
S315080072D004D04346524621460020E04739464846F0
S315080072E004F010FB07463846F7B1BA45F6D103F065
S315080072F00BFF817A491E8172002C1EBF3F2CC9B232
S315080073000029CFD1FFF7AEFD8346384604F0A4F92D
S31508007310B0F5006FC9D10022394605F10C0004F01A
S315080073201BFB00F006F9C6E7BDE8F18F10B504F0BF
S31508007330F4F8DFF88443014620892181081AFF21E1
S3150800734080B200F030F94FF6FF71884202D1002072
S31508007350207010BD01462046BDE8104004F04DBB24
S3150800736001464FF6FF701EE12DE9F84F84B000265E
S31508007370DFF8480300EBC6010024D1E90023A04644
S31508007380434508BFA24200F09D80F0B200F0ECFB36
S31508007390002840F09780012400270196CA490A78F8
S315080073A0F8B2904280F08B800198C44A02EBC00381
S315080073B00025D3E90001A94208BFA84200F07F8052
S315080073C0002604EA000318EA010B08BFAB426FD097
S315080073D0019BE5436FEA080902EBC303284001EA6B
S315080073E00901C3E90001019B02F1100000EBC30E7D
S315080073F0DEE90001CDE90201204008EA0101B142B7
S3150800740008BFB0420BD0DDE90201019B103202EB46
S31508007410C302284001EA0901C2E900010126F8B2BF
S3150800742000F0EDFAC00743D50EB9002509E0A448D7
S315080074300168FAB231F8123003F48873102BF4D1CC
S315080074400125F8B200F0C1FA01999E484822514335
S31508007450421802F1D409D9F844A0BAF1000F0AD0AB
S3150800746000F0B8FB0199C9B2F8B2D0470198C0B28A
S3150800747000F07AFB08BB85F00100064209D0012618
S31508007480009610220023F8B200F0CFFA002000F090
S31508007490D2FDF8B200F08FF9D9F82C20110007D0E8
S315080074A001998A4B1970294690478849FF20087028
S315080074B04FEA480040EAD47864007F1C6EE7019ED4
S315080074C000F088FB761C012E7FF752AF05B0BDE8A9
S315080074D0F08F2DE9F8430C467749002819BF01F1CA
S315080074E00C08022701F10A0808271546002140461C
S315080074F004F0B4F903E04946404604F003FA81462D
S315080075005FEA090013D003F0FFFD0646F07A00286B
S31508007510F1D1484604F0BFF801463A462046FFF73F
S3150800752091FC002804BFB1788D42E4D14846BDE8F5
S31508007530F28338B50024E0B200F016FB30B9002219
S315080075400C20002100F09AFA00F044FB641CE0B21B
S315080075500228F0DB584C002104F10C0004F07EF9F7
S31508007560054617E0284604F0DEF80228FADA00F0A5
S31508007570FBFA0028F6D1284600F0E0F9FF2801D0EA
S3150800758000F00BF8294604F10C0004F0BBF9054697
S3150800759000F020FB2800E5D131BD0121009104222D
S315080075A0002300F042BA2DE9FC4704460020424E6B
S315080075B0ADF800000D464FF6FF7806F10A0901E01E
S315080075C006F10C09FFF74EFC82460FE0FF2D04D0AA
S315080075D0384604F0A8F8A84208D10021484604F025
S315080075E09BF900223946684604F040F9484604F0FB
S315080075F01FF938B900F06CF8074603F085FD0089D5
S315080076008442E3D206F10C01894508BFFFF791FFD2
S3150800761000F05EF813E0FF2D03D004F084F8A842CA
S3150800762009D1384603F070FD0189091B018189B229
S31508007630414598BF88463946484604F063F907002D
S31508007640E9D1504680F3118806F10C008145B7D17F
S31508007650684604F0EDF858BB0021684604F05CF96A
S31508007660044603F051FD0646204604F05CF8F17A1C
S315080076700029EDD10646022EEADA00F075FA00284E
S31508007680E6D1204600F05AF9FF280ED000F09DF901
S3150800769048210C484E438119D1F80461320004D0C0
S315080076A00023224641210020B04700F093FACFE795
S315080076B04046BDE8F68700008C7D0020D07000208B
S315080076C0F87C00205C7B0020D46F0020DF6F002050
S315080076D00021484604F0C2B8F8B5002818BF0029AA
S315080076E0164601D0412E01DB2120F2BDDFF81C55DC
S315080076F0286269620027DFF81805067011E02A6A11
S3150800770018237B43D41800200021C4E90401D0546F
S31508007710FF22286A18447F1C4180001D082104F0B6
S3150800772081FAB742EBDB686A710003F0BDF8002006
S31508007730F2BD70B500F05CF909B9022070BD20B938
S31508007740DFF8CC542E78B44201D3212070BD182519
S315080077506C430C44207820B9207CC10701D52E2023
S3150800776070BDDDE90401002525706280221D1D68B3
S31508007770156040F001005D685560C4E90401002009
S3150800778070BD10B500F035F909B9022010BD00F03A
S3150800779018F901D3212010BD1822504308440024AB
S315080077A0C0E9044404704480FF220821001D04F047
S315080077B043FA002010BD0246DFF85004016A00298A
S315080077C04FF6FF7000D1704730B5DFF8444425788E
S315080077D0AA4206D218235A4311440A7CD30748BF43
S315080077E0488830BD10B500F004F951B100F0E9F849
S315080077F007D2182250430844017CCA0701D5001D48
S3150800780010BD002010BDF8B50446DFF80004056A6F
S31508007810002D18BF002C13D0002600E0761CDFF8D8
S31508007820F0130B78F0B298420AD21827784300F082
S3150800783034F80028F2D1387CC107EFD57888F2BD34
S315080078404FF6FF70F2BD2DE9F0410646DFF8BC039E
S31508007850056A0C46F5B1DFF8B80390F8008046458E
S3150800786028BF212017D2002CF0B207D1182148438F
S315080078702844027CD00709D4F0B20CE018235843F8
S3150800788000F00BF810B9387CC107F5D4761CF0B2B5
S315080078904045E8D3FF20BDE8F0812F18082221468D
S315080078A0381DFFF7CFBA70B5DFF860130A6A9AB1C8
S315080078B00021182600E0491CDFF854432578CBB28E
S315080078C0AB4209D2734313445C888442F3D11B7CD0
S315080078D0DC07F0D5C8B270BDFF2070BD0146002098
S315080078E0B1E710B50C46FFF7DEFFFF2808D0FFF713
S315080078F079FF28B10168216041686160012010BDE7
S31508007900002010BD30B500F077F852B100F00BF842
S3150800791001D3212030BD00F00BF802D541800020AC
S3150800792030BD022030BDDFF8E8422578A84270470E
S31508007930182358431044027CD307704710B50446F1
S3150800794003F08AFEB0F5006F204602D103F092FEDE
S3150800795002E003F0A0FE02E0BDE81040A3E7BDE8A0
S315080079601040BBE730B5A94C216AA9B1A84B1D78D0
S31508007970A8420FD2182242431144D1E90423D10761
S315080079800AD5646A34F8100010F4E26F08BF12F0E2
S315080079900C0002D0012030BD002030BD10B500F02B
S315080079A028F861B100F00DF801D3012010BD00F0F0
S315080079B035F804D50006000F00F0010010BD0020C0
S315080079C010BD934B1C78A042704710B500F011F813
S315080079D061B1FFF7F6FF01D3212010BD18225043ED
S315080079E00A18137CDA0701D5085C10BDFF2010BD04
S315080079F00C468649096A7047844A126A704710B568
S31508007A00FFF7F7FF09B9002010BDFFF7DAFF02D22A
S31508007A1000F004F801D40020002110BD18225043BC
S31508007A200A18D2E90401C2077047F0B5014677483B
S31508007A30006A08B90220F0BD754D2E78B14201D30F
S31508007A402120F0BD18246143014401260027D1E90D
S31508007A500445BB4208BFB24203D0E00701D42D203B
S31508007A60F0BD0598002819BF22432B4324EA0202D9
S31508007A7025EA0303C1E904230020F0BDF8B5634BEA
S31508007A801B6A0BB90220F2BD0024614E3778E5B2B5
S31508007A90BD4213D2182675431D44D5E9046706F07E
S31508007AA0030EBEF1010F07D1002A07BF86438F4395
S31508007AB006430F43C5E90467641CE6E70020F2BDE8
S31508007AC02DE9F046FFF798FFAAB1514C94F80090BB
S31508007AD0002318279A4600E05B1CDCB24C450AD204
S31508007AE07C431444D4E9045605400E4008BF554566
S31508007AF0F2D0012000E00020BDE8F08610B5FFF7BF
S31508007B00D2FEFF2804460DD0FFF779FFC00709D536
S31508007B102046FFF774FF0006400E00F0010080F0D3
S31508007B20010010BD002010BD80B5FFF7BCFEFF2880
S31508007B3001D0012002BD002002BD022807DA334B1E
S31508007B4043F8301003EBC000426000207047012064
S31508007B5070472E490A6A0B68002093421FBF01200E
S31508007B6089689142FF20704770B52A4D044695F9F9
S31508007B70000010F1010F04DA40F2122126A0FFF7E7
S31508007B8051F8FFF76FF9012CDEBF95F90020511C5B
S31508007B9001291BDC1D4B53F8341000291EBF03EBCB
S31508007BA0C4067168002911D0521C2A7052B203EB20
S31508007BB0C2011A6A0A615D6A4D6153F83410196286
S31508007BC072685A6280F31188002070BD80F31188AC
S31508007BD0012070BD38B50F4C94F90000002804D573
S31508007BE04FF40E710CA0FFF71DF8FFF73BF994F957
S31508007BF00010064A02EBC103491E1D6915625B693E
S31508007C005362217080F31188002032BDD47C002095
S31508007C10D46F0020D56F00206D61632D6368696C91
S31508007C20642E630038B5DFF8444904F5B27003F0F2
S31508007C30E8F8002505E004EBC000803003F0E1F821
S31508007C406D1C94F8C010E8B28842F4D331BDF8B57B
S31508007C50DFF81849002084F87F00002504EBC502E8
S31508007C6002F180060821304602F01EFE6D1C002235
S31508007C70082D32807260F1DB00254FF6FE7648202B
S31508007C8068432718482107F1D40002F00DFE07F1D2
S31508007C90D6006D1C4FF6FF710022022D46808681A4
S31508007CA00180C276EBDB7F21204603F0E3FF04F177
S31508007CB0C0000021002201704260816001730261E8
S31508007CC004F5B2700180FF218170C17042600272B2
S31508007CD002F05AF9DFF898180870FF220221DFF837
S31508007CE0940803F09FFF0121002000F053FC0020B8
S31508007CF000F0A1F90020F2BDF0B5024600200023ED
S31508007D0014464FF4B875DFF864186C43DEB248279A
S31508007D100D197E43AF1997F8F11001B1401C5B1C91
S31508007D20D9B20229ECDBC0B2F0BD2DE9F041884694
S31508007D304646022E034615461CDA00214827DFF878
S31508007D402C4818464FF4B8725043221807FB01F026
S31508007D500244D432507F00281EBF687F0028B142F3
S31508007D600AD1491CC9B20229EBDB2978184600F06A
S31508007D7059FE60B9212026E0DFF8FC0701780229C0
S31508007D8003DB107829788842EFD002201BE004F143
S31508007D90D4007E43482229463044FFF747F800209E
S31508007DA000F0CBFD70B194F86C01404504BF00208B
S31508007DB000F074F80020FFF79FFF0228A4BF0020F8
S31508007DC000F04AF80020BDE8F08110B50446FFF738
S31508007DD093FF0228204602DB00F03EF801E000F09F
S31508007DE05DF8002010BD70B51646044672880D462B
S31508007DF000F0D7FDB2882946204600F0DEFDB21D08
S31508007E0029462046BDE8704000F0DABD38B504467C
S31508007E100D4600F0C1FD2978814203D0204600F0C6
S31508007E20BDFDC0B9204600F0B5FD95F901108142A7
S31508007E3003D0204600F0ABFD68B9204600F05BFB96
S31508007E400546204600F079FD20B12946204600F077
S31508007E507AFD00B9002032BDF8B518B9FFF74CFF16
S31508007E60022801DD0120F2BDDFF80067002448255D
S31508007E7006F1D407E1B269437A18507F18B1E1B226
S31508007E800020FFF7B0FF641CE0B20228F2DB96F888
S31508007E906C0145437919BDE8F4401DE001464FF4ED
S31508007EA0B87210B5DFF8C43651435A18482192F80B
S31508007EB06C414C43111901F1D40418B993F86C01BB
S31508007EC0022801DB012010BD224600210020FFF711
S31508007ED08AFF2146BDE81040002097E710B5022921
S31508007EE0104601DB212010BD4822DFF880465143A9
S31508007EF0631803F1D401FEF799FF002010BD10B5F1
S31508007F0000F0C5FA53F8C40F002804BF187A0028F1
S31508007F1001D1080001D1212010BD19605A60002046
S31508007F2000F089F8002010BD4FF4B871DFF83C2640
S31508007F30484380B5104400F1C801002388680B60E7
S31508007F400B7118B18B60002000F05CFC0020FFF775
S31508007F503CFF002002BD70B5DFF82026002104464C
S31508007F601170002000F0E9FC002858D04FF4B871D1
S31508007F70DFF8F8254C43144404F1C0052878A8B165
S31508007F8004F1800604F5B2703168016071684160D9
S31508007F90002000F0E0F82A78D20004F18801304683
S31508007FA003F06CFE2878411E297070BD02F1C400EA
S31508007FB001680A0008D0002301220360027200202B
S31508007FC0884700F02DF870BD94F87F00810702D429
S31508007FD003F096FE28B100F023F80020BDE87040B3
S31508007FE02DE094F86C0102280DDA4821484322183E
S31508007FF0D2F8080138B194F86C0141436018D0F8FA
S315080080000811884758B903F012FF0146287B30B992
S31508008010FF2918BF84F86C11BDE87040D5E670BD1D
S3150800802094F87F0000F0FD0040F0010084F87F001E
S31508008030704700208FE7DFF8440503F0D3BC3EB550
S3150800804000F083F8141894F87F00C10721D500F0D2
S31508008050FE0084F87F0003F03BFE054694F87F0097
S31508008060810744BF284603F019FE2946002004F07C
S31508008070D1F800210191024694F86C314820434317
S31508008080E0180023D0F8141100910020294600F0CA
S3150800809023F837BD10B50446084603F0FFFD4FF434
S315080080A0B870DFF8C8144443081990F87F2042F0E6
S315080080B0020280F87F200020BDE81040BBE74FF49D
S315080080C0B871DFF8A8244843104490F87F3003F0CD
S315080080D0FC0380F87F307047F8B502290C46154630
S315080080E001DB2120F2BD00F030F8161806F1C007B2
S315080080F0786820B9387B002818BF022B01D00120E8
S31508008100F2BD3A78082A1EDA012B08BF4FEAC20CDC
S3150800811008D0D20006F1800106F1880003F0AEFD12
S315080081204FF0000C0798069906EB0C0222F8805FC0
S31508008130D070947051603878401C38700020FFF772
S315080081407AFF0020F2BD1C20F2BD4FF4B871DFF8AB
S315080081501C24484370472DE9FF4100F01BF905F53B
S31508008160B274A678217AB14203D026720020FFF7AE
S315080081702CFE482171436F182A4697F9D5008DF8C9
S3150800818008003046B4F80080414600F009F9024676
S31508008190D7F8F840012034B102A8019000960023D0
S315080081A029464046A04702462946002000F004FB1F
S315080081B0BDE8FF8170B54FF4B872DFF8B0335043AD
S315080081C01C1804F5B2756E68300003D0EB782A885F
S315080081D00020B04700232B8094F87F00810701D543
S315080081E0FFF720FF70BD002025E72DE9F24F8146F5
S315080081F088B0084602F088FF040052D0BDF8200077
S3150800820002F09AFF617894F800B001F0070102299C
S3150800821008BF012024D005A90022C0B2C1E9002266
S315080082202044A0F10806306808607068486005AE0A
S31508008230DFF84C137778087896F80380ADF80420B1
S3150800824007F00F0704970028B5781EBFDFF8341328
S315080082500B68002B05D06AB2414620469847002095
S3150800826084E009220021601C04F048F98246ABEB41
S315080082700A01881E40B202900299002911D4049975
S31508008280DFF8E8B2482041430BEB010000F1F402A5
S31508008290039293693BB1BDF820000022012198475B
S315080082A008B9212062E0029901A8CBB20090621CAD
S315080082B00499C9B2002004F027FAC0B20028049035
S315080082C053D1611C51440091BDF8040003F0B8F97C
S315080082D000281EBF0398C269002A06D00099BDF877
S315080082E00400904708B9022040E0BDF8040003F0F6
S315080082F094FA0790BDF8040003F0A2F928B1029A8F
S3150800830000990798FEF792FD07E002985044C2B21A
S315080083100123611C01A803F037F8BDF8040002F038
S31508008320F3FE877080F8088045729DF814108172F4
S315080083309DF81A209DF81910120242EA0142F179B5
S315080083400A43C2604FF4B87202FB09F00BEB000255
S31508008350C8321079BDF80410002812BF12680398B5
S31508008360026810001CBF08469047049809B0BDE88B
S31508008370F08F000038B500F00DF8D5F8D04024B9D4
S3150800838040F21A3180A0FEF74DFC0021C5F8D01046
S31508008390A04731BD4FF4B871744A48431518704761
S315080083A02DE9F843054689464846144603F03AFA45
S315080083B00746484603F03DF9661C042821D148467D
S315080083C003F058F94FF6FF7148F64108884218BF7E
S315080083D048F66108482065494543481900F1D6051D
S315080083E0F01C298804F064FA484603F043F901466C
S315080083F0701D04F05DFA6988F01D04F059FA093613
S3150800840003E0601C03F0F6FB80464846FEF7FFFED5
S3150800841008B148F010084146601C04F049FA48467D
S3150800842003F0FBF900F01FF80121484602F0ECFEC4
S3150800843005003E4408D002F07FFEC7B2284602F087
S3150800844063FE00F010F83E4449480178E170361B97
S31508008450491C0170761C26702046BDE8F84309229F
S31508008460012104F04BB801463A463046FEF7DEBC19
S3150800847010B500F00CF8D3F8D00008B1022010BDF2
S31508008480C3F8D0101146BDE8104000F0B0B94FF45B
S31508008490B873364C5843231870472DE9FC410746F4
S315080084A08846002B14460CBF80250025404602F05E
S315080084B02BFE0646404602F03FFE4FF4B8712B4AA3
S315080084C04F43174445F0080297F86C313146C0B25D
S315080084D003F07EF9010008BF01200AD0089900912F
S315080084E000220192024697F86C1123460020FFF7F6
S315080084F0F3FDBDE8F6814FF4B8711C4A48431118DC
S31508008500482291F86C315343CA1892F8F10028B9F9
S3150800851091F8CC00401E8041C00F7047002070477C
S315080085204FF4B871114A4843104490F86C017047EB
S3150800853038B54FF4B8720D4950430C1804F1C0050C
S31508008540297B81B9002000F0F8F960B10B49087859
S31508008550002804BF94F87F00002804D12978481E13
S315080085608041C00F32BD002032BD00005C7B002078
S31508008570DE7F00207A7F0020BF6F0020CC7C0020A1
S31508008580117B0020887A002075707065722D6D61E8
S31508008590632E63000846DFF8681400220A818A728F
S315080085A00A824A82FF230B600A71FDF787BA70B503
S315080085B00C46402C1D46DFF8486403D1717A2A2000
S315080085C00020C046280018BF01203071346000F032
S315080085D08AF900F084F9BDE8704004F072B970B504
S315080085E004468D2C1CBF872C8E2C0D46164601D1B1
S315080085F004F089F933462A462146BDE87040002032
S31508008600D5E7F8B5FEF72EFCDFF8F4532C68FF2CF7
S315080086105DD2FF21296080F31188002C287A16BFC5
S315080086208F2C01260026022803D040F22D1100F0D7
S315080086309DF88D2C18BF872C03D08E2C1CBF0020CC
S31508008640A872300012D0E86800F0E1F870B1287915
S3150800865040B105F11800012129722921BDE8F4402D
S3150800866003F0CBB900F080F93F212CE0002000F0A0
S315080086707BF9402C4FF6FF770BD10120C046687A6C
S31508008680411E6972E0B100223946042003F070FCED
S3150800869012E08D2C1CBF872C8E2C11D10022394656
S315080086A0202003F065FCA87A50B1401EA872C0B21B
S315080086B010B9DFF8501348700020BDE8F24059E0C1
S315080086C006B100242146BDE8F4400020B4E080F35A
S315080086D01188287A032803D10021002000F0ACF87D
S315080086E0688A58B1FEF7BEFB6C8A0021698280F35E
S315080086F01188E2B200211D2003F076FC02F030FE5C
S31508008700040010D0FEF7AEFB298A4A1E2A8280F39F
S31508008710118821460020FFF768FD287A18B9BDE8B8
S31508008720F240FFF760BDF1BD80B50020FDF7D6FA2F
S31508008730BDE80240002064E710B5DFF8C442617D59
S3150800874099B901221028627503D04FF4E07100F040
S315080087500DF8DFF8B002002141700123E168BDE899
S3150800876010404FF480620020F9E010BD0FF2C820D7
S31508008770FEF758BA10B5012004F0E4F8A04CA24957
S315080087800020607521200020C04650B101280ED077
S3150800879002280CD1002300228E210020FFF707FFB4
S315080087A005E0E16801234FF4806200F0D8F8BDE8DF
S315080087B01040002004F0C6B870B5914C207A0D46DA
S315080087C0164618B140F20E21FFF7D0FF02208D4958
S315080087D0E56020724E708D480278207D6272A07224
S315080087E00020BDE87040C5E70020FFF7C3BD80B58F
S315080087F00A0008BF0122120185490020FEF73AFB4C
S31508008800002002BD82490020FEF790BB704710B5D4
S31508008810441C204603F0EEF900F00700032809D1AE
S3150800882009220021204603F069FE205C042801D1B4
S31508008830012010BD002010BD10B50C46704A00215D
S3150800884011720020FFF7CFFC2146BDE8104000203A
S31508008850FFF7B0BCF8B50D466F1F0446FFB21646C3
S31508008860E05DFCF7E0FD2178FCF7E5FDE055FDF756
S315080088707AF960B13EB12046FFF7C9FF18B16078B2
S3150800888040F0200002E0607800F0DF00607001220E
S315080088902946204602F042FD01001FD002F051FD94
S315080088A0574C5C4D208A401C20822888218A8842A1
S315080088B008D2608A401C608204E002F051FD208ADA
S315080088C0411E21822888218A8842F6D300F00BF8B7
S315080088D000F005F8BDE8F14003F0F3BFF1BD4E48DE
S315080088E0007803F068B94D48007803F064B910B50C
S315080088F0434C207A012806D100212176002000F079
S3150800890033F80321217210BD38B53D4D0020287675
S315080089100024FEF7A7FA297A012902D103210124A6
S31508008920297280F311883CB1002000F01DF8BDE8DB
S3150800893034403F2100207FE731BD3148017A481E87
S315080089408041C00F70470846FDF7B8B880B52C4976
S31508008950088A10B902F012FD2BE0012002BD084674
S3150800896011461A4603F0B2BF80B50020FFF7C3FDD3
S31508008970012803D1BDE80140FDF78FB801BD2048A5
S31508008980017A012901D10120704700207047084665
S31508008990FBF784BEFBF77EBEFBF779BE0846FBF7FE
S315080089A06EBE1046FDF714B9FDF79EB880B5FDF703
S315080089B071F8401E8041C00F02BD1046FDF703B98D
S315080089C0FDF7D4B8FBF721BEFCF7C1BA0C49087A03
S315080089D0002800D0704780B5FCF7ECFB18B1BDE85D
S315080089E0014003F0B7BF01BD80B5FFF7EFFFBDE853
S315080089F004404FF4A0510A4802F0FFBF00000000EF
S31508008A008C7A0020586E002039870008CB6F00202A
S31508008A10E9870008886F0020E77F0020C37F0020D1
S31508008A20507A002080B50846FBF7F6FDFF2801D0EE
S31508008A30012002BD002002BD6C6F7765722D6D6145
S31508008A40632D656D6265722D7068792E630000006E
S31508008A500268174912BACA60426812BA8A608268FE
S31508008A6012BA4A60C06800BA08607047704730B5E5
S31508008A70104980220A6006230F4A136007240C60F7
S31508008A801568AB07FCD5002350F823405B1C24BAB5
S31508008A90042B8C62F8D313685C07FCD500220B6B99
S31508008AA01BBA40F82230521C042AF8D330BD000005
S31508008AB0383000400030004010A0004010B5044691
S31508008AC00846FFF7C5FF2046BDE81040CFE700007F
S31508008AD0FDF7C5B92348012181604EF6BE224260E2
S31508008AE0016070472049012008607047A52805D114
S31508008AF01C484DF6AD614160022202607047194874
S31508008B00016811F0010018BF0120704780B51749A8
S31508008B1010200860BFF34F8FBFF36F8F144A1549B3
S31508008B201078154A60B1032807BF0020106001239A
S31508008B30136040F651020A600020FDF789FB06E043
S31508008B40022313604FF400600860FDF74BF90B48E9
S31508008B5007210160012202641020094908600020EB
S31508008B6002BD0000006000400860004080E100E0AF
S31508008B709B7F00200C6000400800004014A00040C5
S31508008B8000E100E0002848BF404270472DE9F84F51
S31508008B908046DFF87890FF222821484603F04CF8F3
S31508008BA0DFF86CB0FF22B621584603F045F819489D
S31508008BB0194EDFF868A00090282500241AF804202A
S31508008BC01749375D085D521C520800B1193215481D
S31508008BD030F814100098D21C7A4303F001FF012FD5
S31508008BE01CBF2BF814507D19641C282CE6DB28239F
S31508008BF04FF4805240F26E310B4803F0F1FE4946BD
S31508008C004046BDE8F44F00F013BB00BF4079002092
S31508008C10887800203071020850720208287202080B
S31508008C2000720208B07102084C71020830B5DFF80C
S31508008C30445ADFF8444A2B882468C01A04EB4004D7
S31508008C40002004E034F8103021F81030401C90421F
S31508008C50F8DB002030BDDFF81C3ADFF81C1A1A884A
S31508008C600968801A01EB4001022003F0D1BEF8B56D
S31508008C7004460F461646DFF8005AF0B208B34FF618
S31508008C80FF70ADF80000002017F8011BC3B2401CA6
S31508008C900DF80310761EC1B2022902DAF1B20029D4
S31508008CA0F2D1DFF8D0E92868BEF800301FFA84FC54
S31508008CB0ACEB030300F014FF641C0100DDD000F0E8
S31508008CC0E6BB0120F2BDF8B504460D461646F0B2DD
S31508008CD088B1012200F010F8641C0020C2B2401CC2
S31508008CE01DF80230761EC7B2022F05F8013BEEDAF0
S31508008CF0F1B20029F2D1F1BD6946A0B296E7014664
S31508008D00DFF87809DFF87829405C525CDFF8B43B75
S31508008D10595C09B102F5997240EAC21080B27047EF
S31508008D2010B5DFF85839DFF8A02B1C5C012C02D1EE
S31508008D3002EB400010BD32F81000091802EB4100A2
S31508008D4010BD70B590B005460C464FF6FF7604E0A8
S31508008D50A8B2FFF780FF203D2035A9B28C420FD379
S31508008D6020226946A8B2FFF761FF002082B23DF8CB
S31508008D701230B342ECD1401C81B22029F6DBEBE776
S31508008D8010B070BD38B5044661882088FFF7D9FF52
S31508008D900121DFF8383BA171DFF8901C228818788A
S31508008DA00D88821802EB4502921DA28031BD10B5CE
S31508008DB0DFF81C4B2046FFF7E5FF04F10800FFF734
S31508008DC0E1FF04F11000FFF7DDFFDFF8640C04F1A2
S31508008DD00801446004F110028160C26010BD2DE9EB
S31508008DE0F0430446DFF8E40A0778B946B9F1060FF6
S31508008DF085B003DD4FF4377100F001FB0021A17146
S31508008E007A1C208892B201A9FFF710FFBDF804105A
S31508008E104FF6FF76B14218BF002910D00DF10408AD
S31508008E20711A38F81900884209D101254D454DDADD
S31508008E3038F8150048B1BDF80410884215D0204608
S31508008E40FFF7A0FF05B0BDE8F083DFF8881C0A88A5
S31508008E50208805FB02214118711805FB020089B21A
S31508008E6080B2FFF76EFF0220A0716D1CDEE7208836
S31508008E703818C01C00F02EF8BDF80200000B484553
S31508008E80DDD120883818401D00F024F8BDF80210FE
S31508008E90BDF80200711A000A01F0FF018842CED11E
S31508008EA00320A071012220883F187F1C6946B8B2AA
S31508008EB0FFF7BCFEBDF80000FF2802D10421A1710E
S31508008EC0C0E7B042BED00028B9D1BBE7A0790228D6
S31508008ED0CDD1B7E701220DF1020180B2A6E6F8B5B9
S31508008EE0DFF8EC69DFF8485B002006F1080106F1B7
S31508008EF01002B071B073B075A960EA606E60304652
S31508008F00FFF76DFF06F10800FFF769FF06F110008D
S31508008F10FFF765FFB179B07BDFF85C47042908D114
S31508008F2000220428ADF800204CD1FFF740FF0120AD
S31508008F30F2BDB17D04282ED100200429ADF8000029
S31508008F40F3D03046FFF71EFF06F11000FFF71AFFB1
S31508008F502068DFF87839378900F081F8040047D1AE
S31508008F600320B073B079032851D1B07B032802D10E
S31508008F70B07D01286AD0B079012851D1B07B032889
S31508008F805BD1B07D012818BF0328CED106F10800B1
S31508008F9006F110015EE0042932D10020ADF8000088
S31508008FA03046FFF7EFFE06F10800FFF7EBFE2068F4
S31508008FB0DFF81839378A00F052F8040018D1032070
S31508008FC0B0751DE0B07D0428AFD006F10800FFF7A4
S31508008FD0D9FE06F11000FFF7D5FE2068DFF8EC3859
S31508008FE0378800F03CF8040002D10320B0710AE08B
S31508008FF0204603F0B1FC1CB14FF4747100F0FFF980
S31508009000B0790328AED1B07B0128AED1B0E70228EB
S31508009010B1D1B07B032804BFB07D012885D1B5E75F
S31508009020032804BFB07B0128F8D1B07D03280BD1F3
S3150800903006F11000314608360CE0022812BF012856
S31508009040B07D0328EAD1F3E70228E7D1304606F1D6
S31508009050080110366860EE60A9600020F2BD1C7831
S31508009060E719DFF8104623887F1CFF1A0122694694
S3150800907000EB470003F006BD2DE9FE4F0646DFF874
S315080090804C08DFF8548ADFF8549A0F460178ADF891
S315080090900810012234880C19641DFFF72DFEDFF82D
S315080090A08C19BDF80000B1F800A0641C000AADF8E0
S315080090B0000050451CBF0121397000251AE0401CEC
S315080090C0C1B2514514D25FFA80FB39F81B10BDF8BE
S315080090D006209142F3D1C0B2FFF711FEBDF8043065
S315080090E04FF6807210401340984208BF08F80B509C
S315080090F06D1CADB2BDF80000854206DA022201A950
S31508009100FFF7FBFDA41C0020DAE70020D14601E0AA
S31508009110401C80B2484517DA18F800108142F7D08B
S315080091200120387010E021F815A00DE00128DFF8BD
S315080091309817F8D0BBF17F0F31F8150008BF4FF02C
S31508009140000B834421F81BA0A1B27088C01E884278
S315080091504FF6FF7A28DB00F066F8BDF80200FF2517
S31508009160504521D0601C00F0B9FDBDF80200BDF8DD
S315080091700610AAEB0002914213D104F1030A040A6D
S3150800918000F07F0BBDF8000084420ADA002000E0F8
S31508009190401C484518DA18F80010A142F8D1C5B2A3
S315080091A012E0012038700DE0B4807088A1B28842C0
S315080091B008D300F038F8BDF80200641C5045F4D016
S315080091C001213970BDE8F78F3088BDF808301818C6
S315080091D000EB4400801D012201A980B2FFF726FD9D
S315080091E0BDF80400C0F3C710401C00EBD0700AEBB2
S315080091F060047088A1B28842D3D3FF2DA4D0DFF8CB
S315080092007C04405DBBF17F0F14BF594600218142A3
S3150800921086DABDF80210DFF8AC26535D0906C90FD9
S31508009220994283D07CE701220DF10201A0B2FDE448
S31508009230F8B58DF80000DFF8281BDFF83804DFF8EA
S31508009240EC470288DFF8880602800B884380DFF83F
S315080092507C361D782188DFF89C3BDFF89C4BAA18E2
S3150800926002EB4102921D8280002282711A880281D5
S31508009270AA1802EB41022388DFF8804B4381921D2E
S31508009280828100228273DFF8783B1A880282AA1844
S3150800929002EB4101891D2388DFF8944781824382C6
S315080092A0002181750020C046002851D12070FFF7A3
S315080092B016FE9DF80010084318BF01208DF800001F
S315080092C0012260680388ED18AD1CA11CA8B2FFF73F
S315080092D0ADFC9DF8000000283DD16068DFF8E86520
S315080092E06946FFF7C9FEDFF8940B0588A0688179FF
S315080092F0032922D16946FFF7BFFE6168DFF87C23A0
S31508009300002010E0DFF824371F88B84202DA135C21
S31508009310012B07D136F810300F88BB4224BF4F887F
S315080093209F420AD2401CA842ECDB02208871A16841
S315080093306068E2686160A260E06000204FF6FF7234
S3150800934000E0401CA84206DA36F810109142F8D11F
S3150800935001208DF80000607828B1012100208DF8E1
S315080093600010607002E09DF80000B8B14D2003F0CF
S31508009370F3FA6088401C6080E068FFF703FD9DF8FB
S31508009380000000F051F838B100F085F820B19DF8DA
S31508009390000000F09FFA08B90120F2BD0020F2BDD6
S315080093A0F8B50D46DFF8841617467F2F0A8808BFDA
S315080093B000271E4695423EBFB04B595D8F42044674
S315080093C004D2AF4A535D9E4200D11CB940F2646193
S315080093D000F015F839462846FFF7A2FCDFF8281BE7
S315080093E00388485D28B11946284600F09FFC20608E
S315080093F0F1BD324621461846BDE8F84063E40FF64B
S315080094004430FDF70FBC38B5044608461146FFF749
S3150800941087FC984D0388DFF8F41A28880A681B1A0F
S3150800942002EB4302226031BDF8B5DFF80416924D0F
S31508009430DFF8A866002814BFC8688868DFF88C14A7
S31508009440048808780419A41DA4B2002701E0A41C06
S315080094507F1CDFF8D80501888F4216DAF8B2FFF7C5
S315080094604EFCADF80000A3B236F81700DFF8A0CA24
S31508009470BCF800E0ADF80200A3EB0E032868022250
S3150800948000F02FFB0100E2D001E00120F2BD03F05D
S3150800949063FA0020F2BD2DE9F84FDFF89005DFF8F2
S315080094A090250188744C84B00025ADF80810D16861
S315080094B0DFF818240E881078BDF80810861906EB10
S315080094C04106B61DB6B200E06D1CBDF8080085421F
S315080094D080F2C4804FF0000A78E0BDF802105FFA07
S315080094E08AF00143ADF802104FF6FF72BDF802008C
S315080094F060490F88BDF80010121AADF804204FF61F
S31508009500FF732068F21B761C994200EB4200B6B244
S315080095101DD100F0BEF801002BD12068F71B0122EF
S3150800952001A900EB470003F0ADFA010021D1B61CF2
S31508009530B6B25348DFF8DC19A8F80060425D51F866
S3150800954025103046FFF793FB002838D18FE04C49A9
S31508009550495D491C01EBD1714FEAC15900F099F8F0
